{
	"https://github.com/OpenZeppelin/openzeppelin-contracts/blob/master/contracts/finance/PaymentSplitter.sol": {
		"PaymentSplitter": {
			"abi": [
				{
					"inputs": [
						{
							"internalType": "address[]",
							"name": "payees",
							"type": "address[]"
						},
						{
							"internalType": "uint256[]",
							"name": "shares_",
							"type": "uint256[]"
						}
					],
					"stateMutability": "payable",
					"type": "constructor"
				},
				{
					"anonymous": false,
					"inputs": [
						{
							"indexed": true,
							"internalType": "contract IERC20",
							"name": "token",
							"type": "address"
						},
						{
							"indexed": false,
							"internalType": "address",
							"name": "to",
							"type": "address"
						},
						{
							"indexed": false,
							"internalType": "uint256",
							"name": "amount",
							"type": "uint256"
						}
					],
					"name": "ERC20PaymentReleased",
					"type": "event"
				},
				{
					"anonymous": false,
					"inputs": [
						{
							"indexed": false,
							"internalType": "address",
							"name": "account",
							"type": "address"
						},
						{
							"indexed": false,
							"internalType": "uint256",
							"name": "shares",
							"type": "uint256"
						}
					],
					"name": "PayeeAdded",
					"type": "event"
				},
				{
					"anonymous": false,
					"inputs": [
						{
							"indexed": false,
							"internalType": "address",
							"name": "from",
							"type": "address"
						},
						{
							"indexed": false,
							"internalType": "uint256",
							"name": "amount",
							"type": "uint256"
						}
					],
					"name": "PaymentReceived",
					"type": "event"
				},
				{
					"anonymous": false,
					"inputs": [
						{
							"indexed": false,
							"internalType": "address",
							"name": "to",
							"type": "address"
						},
						{
							"indexed": false,
							"internalType": "uint256",
							"name": "amount",
							"type": "uint256"
						}
					],
					"name": "PaymentReleased",
					"type": "event"
				},
				{
					"inputs": [
						{
							"internalType": "uint256",
							"name": "index",
							"type": "uint256"
						}
					],
					"name": "payee",
					"outputs": [
						{
							"internalType": "address",
							"name": "",
							"type": "address"
						}
					],
					"stateMutability": "view",
					"type": "function"
				},
				{
					"inputs": [
						{
							"internalType": "address",
							"name": "account",
							"type": "address"
						}
					],
					"name": "releasable",
					"outputs": [
						{
							"internalType": "uint256",
							"name": "",
							"type": "uint256"
						}
					],
					"stateMutability": "view",
					"type": "function"
				},
				{
					"inputs": [
						{
							"internalType": "contract IERC20",
							"name": "token",
							"type": "address"
						},
						{
							"internalType": "address",
							"name": "account",
							"type": "address"
						}
					],
					"name": "releasable",
					"outputs": [
						{
							"internalType": "uint256",
							"name": "",
							"type": "uint256"
						}
					],
					"stateMutability": "view",
					"type": "function"
				},
				{
					"inputs": [
						{
							"internalType": "address payable",
							"name": "account",
							"type": "address"
						}
					],
					"name": "release",
					"outputs": [],
					"stateMutability": "nonpayable",
					"type": "function"
				},
				{
					"inputs": [
						{
							"internalType": "contract IERC20",
							"name": "token",
							"type": "address"
						},
						{
							"internalType": "address",
							"name": "account",
							"type": "address"
						}
					],
					"name": "release",
					"outputs": [],
					"stateMutability": "nonpayable",
					"type": "function"
				},
				{
					"inputs": [
						{
							"internalType": "contract IERC20",
							"name": "token",
							"type": "address"
						},
						{
							"internalType": "address",
							"name": "account",
							"type": "address"
						}
					],
					"name": "released",
					"outputs": [
						{
							"internalType": "uint256",
							"name": "",
							"type": "uint256"
						}
					],
					"stateMutability": "view",
					"type": "function"
				},
				{
					"inputs": [
						{
							"internalType": "address",
							"name": "account",
							"type": "address"
						}
					],
					"name": "released",
					"outputs": [
						{
							"internalType": "uint256",
							"name": "",
							"type": "uint256"
						}
					],
					"stateMutability": "view",
					"type": "function"
				},
				{
					"inputs": [
						{
							"internalType": "address",
							"name": "account",
							"type": "address"
						}
					],
					"name": "shares",
					"outputs": [
						{
							"internalType": "uint256",
							"name": "",
							"type": "uint256"
						}
					],
					"stateMutability": "view",
					"type": "function"
				},
				{
					"inputs": [
						{
							"internalType": "contract IERC20",
							"name": "token",
							"type": "address"
						}
					],
					"name": "totalReleased",
					"outputs": [
						{
							"internalType": "uint256",
							"name": "",
							"type": "uint256"
						}
					],
					"stateMutability": "view",
					"type": "function"
				},
				{
					"inputs": [],
					"name": "totalReleased",
					"outputs": [
						{
							"internalType": "uint256",
							"name": "",
							"type": "uint256"
						}
					],
					"stateMutability": "view",
					"type": "function"
				},
				{
					"inputs": [],
					"name": "totalShares",
					"outputs": [
						{
							"internalType": "uint256",
							"name": "",
							"type": "uint256"
						}
					],
					"stateMutability": "view",
					"type": "function"
				},
				{
					"stateMutability": "payable",
					"type": "receive"
				}
			],
			"devdoc": {
				"details": "This contract allows to split Ether payments among a group of accounts. The sender does not need to be aware that the Ether will be split in this way, since it is handled transparently by the contract. The split can be in equal parts or in any other arbitrary proportion. The way this is specified is by assigning each account to a number of shares. Of all the Ether that this contract receives, each account will then be able to claim an amount proportional to the percentage of total shares they were assigned. The distribution of shares is set at the time of contract deployment and can't be updated thereafter. `PaymentSplitter` follows a _pull payment_ model. This means that payments are not automatically forwarded to the accounts but kept in this contract, and the actual transfer is triggered as a separate step by calling the {release} function. NOTE: This contract assumes that ERC20 tokens will behave similarly to native tokens (Ether). Rebasing tokens, and tokens that apply fees during transfers, are likely to not be supported as expected. If in doubt, we encourage you to run tests before sending real value to this contract.",
				"kind": "dev",
				"methods": {
					"constructor": {
						"details": "Creates an instance of `PaymentSplitter` where each account in `payees` is assigned the number of shares at the matching position in the `shares` array. All addresses in `payees` must be non-zero. Both arrays must have the same non-zero length, and there must be no duplicates in `payees`."
					},
					"payee(uint256)": {
						"details": "Getter for the address of the payee number `index`."
					},
					"releasable(address)": {
						"details": "Getter for the amount of payee's releasable Ether."
					},
					"releasable(address,address)": {
						"details": "Getter for the amount of payee's releasable `token` tokens. `token` should be the address of an IERC20 contract."
					},
					"release(address)": {
						"details": "Triggers a transfer to `account` of the amount of Ether they are owed, according to their percentage of the total shares and their previous withdrawals."
					},
					"release(address,address)": {
						"details": "Triggers a transfer to `account` of the amount of `token` tokens they are owed, according to their percentage of the total shares and their previous withdrawals. `token` must be the address of an IERC20 contract."
					},
					"released(address)": {
						"details": "Getter for the amount of Ether already released to a payee."
					},
					"released(address,address)": {
						"details": "Getter for the amount of `token` tokens already released to a payee. `token` should be the address of an IERC20 contract."
					},
					"shares(address)": {
						"details": "Getter for the amount of shares held by an account."
					},
					"totalReleased()": {
						"details": "Getter for the total amount of Ether already released."
					},
					"totalReleased(address)": {
						"details": "Getter for the total amount of `token` already released. `token` should be the address of an IERC20 contract."
					},
					"totalShares()": {
						"details": "Getter for the total shares held by payees."
					}
				},
				"title": "PaymentSplitter",
				"version": 1
			},
			"evm": {
				"assembly": "    /* \"https://github.com/OpenZeppelin/openzeppelin-contracts/blob/master/contracts/finance/PaymentSplitter.sol\":1471:8571  contract PaymentSplitter is Context {... */\n  mstore(0x40, 0x80)\n    /* \"https://github.com/OpenZeppelin/openzeppelin-contracts/blob/master/contracts/finance/PaymentSplitter.sol\":2448:2807  constructor(address[] memory payees, uint256[] memory shares_) payable {... */\n  mload(0x40)\n  sub(codesize, bytecodeSize)\n  dup1\n  bytecodeSize\n  dup4\n  codecopy\n  dup2\n  dup2\n  add\n  0x40\n  mstore\n  dup2\n  add\n  swap1\n  tag_1\n  swap2\n  swap1\n  tag_2\n  jump\t// in\ntag_1:\n    /* \"https://github.com/OpenZeppelin/openzeppelin-contracts/blob/master/contracts/finance/PaymentSplitter.sol\":2554:2561  shares_ */\n  dup1\n    /* \"https://github.com/OpenZeppelin/openzeppelin-contracts/blob/master/contracts/finance/PaymentSplitter.sol\":2554:2568  shares_.length */\n  mload\n    /* \"https://github.com/OpenZeppelin/openzeppelin-contracts/blob/master/contracts/finance/PaymentSplitter.sol\":2537:2543  payees */\n  dup3\n    /* \"https://github.com/OpenZeppelin/openzeppelin-contracts/blob/master/contracts/finance/PaymentSplitter.sol\":2537:2550  payees.length */\n  mload\n    /* \"https://github.com/OpenZeppelin/openzeppelin-contracts/blob/master/contracts/finance/PaymentSplitter.sol\":2537:2568  payees.length == shares_.length */\n  eq\n    /* \"https://github.com/OpenZeppelin/openzeppelin-contracts/blob/master/contracts/finance/PaymentSplitter.sol\":2529:2623  require(payees.length == shares_.length, \"PaymentSplitter: payees and shares length mismatch\") */\n  tag_5\n  jumpi\n  mload(0x40)\n  0x08c379a000000000000000000000000000000000000000000000000000000000\n  dup2\n  mstore\n  0x04\n  add\n  tag_6\n  swap1\n  tag_7\n  jump\t// in\ntag_6:\n  mload(0x40)\n  dup1\n  swap2\n  sub\n  swap1\n  revert\ntag_5:\n    /* \"https://github.com/OpenZeppelin/openzeppelin-contracts/blob/master/contracts/finance/PaymentSplitter.sol\":2657:2658  0 */\n  0x00\n    /* \"https://github.com/OpenZeppelin/openzeppelin-contracts/blob/master/contracts/finance/PaymentSplitter.sol\":2641:2647  payees */\n  dup3\n    /* \"https://github.com/OpenZeppelin/openzeppelin-contracts/blob/master/contracts/finance/PaymentSplitter.sol\":2641:2654  payees.length */\n  mload\n    /* \"https://github.com/OpenZeppelin/openzeppelin-contracts/blob/master/contracts/finance/PaymentSplitter.sol\":2641:2658  payees.length > 0 */\n  gt\n    /* \"https://github.com/OpenZeppelin/openzeppelin-contracts/blob/master/contracts/finance/PaymentSplitter.sol\":2633:2689  require(payees.length > 0, \"PaymentSplitter: no payees\") */\n  tag_8\n  jumpi\n  mload(0x40)\n  0x08c379a000000000000000000000000000000000000000000000000000000000\n  dup2\n  mstore\n  0x04\n  add\n  tag_9\n  swap1\n  tag_10\n  jump\t// in\ntag_9:\n  mload(0x40)\n  dup1\n  swap2\n  sub\n  swap1\n  revert\ntag_8:\n    /* \"https://github.com/OpenZeppelin/openzeppelin-contracts/blob/master/contracts/finance/PaymentSplitter.sol\":2705:2714  uint256 i */\n  0x00\n    /* \"https://github.com/OpenZeppelin/openzeppelin-contracts/blob/master/contracts/finance/PaymentSplitter.sol\":2700:2801  for (uint256 i = 0; i < payees.length; i++) {... */\ntag_11:\n    /* \"https://github.com/OpenZeppelin/openzeppelin-contracts/blob/master/contracts/finance/PaymentSplitter.sol\":2724:2730  payees */\n  dup3\n    /* \"https://github.com/OpenZeppelin/openzeppelin-contracts/blob/master/contracts/finance/PaymentSplitter.sol\":2724:2737  payees.length */\n  mload\n    /* \"https://github.com/OpenZeppelin/openzeppelin-contracts/blob/master/contracts/finance/PaymentSplitter.sol\":2720:2721  i */\n  dup2\n    /* \"https://github.com/OpenZeppelin/openzeppelin-contracts/blob/master/contracts/finance/PaymentSplitter.sol\":2720:2737  i < payees.length */\n  lt\n    /* \"https://github.com/OpenZeppelin/openzeppelin-contracts/blob/master/contracts/finance/PaymentSplitter.sol\":2700:2801  for (uint256 i = 0; i < payees.length; i++) {... */\n  iszero\n  tag_12\n  jumpi\n    /* \"https://github.com/OpenZeppelin/openzeppelin-contracts/blob/master/contracts/finance/PaymentSplitter.sol\":2758:2790  _addPayee(payees[i], shares_[i]) */\n  tag_14\n    /* \"https://github.com/OpenZeppelin/openzeppelin-contracts/blob/master/contracts/finance/PaymentSplitter.sol\":2768:2774  payees */\n  dup4\n    /* \"https://github.com/OpenZeppelin/openzeppelin-contracts/blob/master/contracts/finance/PaymentSplitter.sol\":2775:2776  i */\n  dup3\n    /* \"https://github.com/OpenZeppelin/openzeppelin-contracts/blob/master/contracts/finance/PaymentSplitter.sol\":2768:2777  payees[i] */\n  dup2\n  mload\n  dup2\n  lt\n  tag_15\n  jumpi\n  tag_16\n  tag_17\n  jump\t// in\ntag_16:\ntag_15:\n  0x20\n  mul\n  0x20\n  add\n  add\n  mload\n    /* \"https://github.com/OpenZeppelin/openzeppelin-contracts/blob/master/contracts/finance/PaymentSplitter.sol\":2779:2786  shares_ */\n  dup4\n    /* \"https://github.com/OpenZeppelin/openzeppelin-contracts/blob/master/contracts/finance/PaymentSplitter.sol\":2787:2788  i */\n  dup4\n    /* \"https://github.com/OpenZeppelin/openzeppelin-contracts/blob/master/contracts/finance/PaymentSplitter.sol\":2779:2789  shares_[i] */\n  dup2\n  mload\n  dup2\n  lt\n  tag_18\n  jumpi\n  tag_19\n  tag_17\n  jump\t// in\ntag_19:\ntag_18:\n  0x20\n  mul\n  0x20\n  add\n  add\n  mload\n    /* \"https://github.com/OpenZeppelin/openzeppelin-contracts/blob/master/contracts/finance/PaymentSplitter.sol\":2758:2767  _addPayee */\n  shl(0x20, tag_20)\n    /* \"https://github.com/OpenZeppelin/openzeppelin-contracts/blob/master/contracts/finance/PaymentSplitter.sol\":2758:2790  _addPayee(payees[i], shares_[i]) */\n  0x20\n  shr\n  jump\t// in\ntag_14:\n    /* \"https://github.com/OpenZeppelin/openzeppelin-contracts/blob/master/contracts/finance/PaymentSplitter.sol\":2739:2742  i++ */\n  dup1\n  dup1\n  tag_21\n  swap1\n  tag_22\n  jump\t// in\ntag_21:\n  swap2\n  pop\n  pop\n    /* \"https://github.com/OpenZeppelin/openzeppelin-contracts/blob/master/contracts/finance/PaymentSplitter.sol\":2700:2801  for (uint256 i = 0; i < payees.length; i++) {... */\n  jump(tag_11)\ntag_12:\n  pop\n    /* \"https://github.com/OpenZeppelin/openzeppelin-contracts/blob/master/contracts/finance/PaymentSplitter.sol\":2448:2807  constructor(address[] memory payees, uint256[] memory shares_) payable {... */\n  pop\n  pop\n    /* \"https://github.com/OpenZeppelin/openzeppelin-contracts/blob/master/contracts/finance/PaymentSplitter.sol\":1471:8571  contract PaymentSplitter is Context {... */\n  jump(tag_23)\n    /* \"https://github.com/OpenZeppelin/openzeppelin-contracts/blob/master/contracts/finance/PaymentSplitter.sol\":8105:8569  function _addPayee(address account, uint256 shares_) private {... */\ntag_20:\n    /* \"https://github.com/OpenZeppelin/openzeppelin-contracts/blob/master/contracts/finance/PaymentSplitter.sol\":8203:8204  0 */\n  0x00\n    /* \"https://github.com/OpenZeppelin/openzeppelin-contracts/blob/master/contracts/finance/PaymentSplitter.sol\":8184:8205  account != address(0) */\n  0xffffffffffffffffffffffffffffffffffffffff\n  and\n    /* \"https://github.com/OpenZeppelin/openzeppelin-contracts/blob/master/contracts/finance/PaymentSplitter.sol\":8184:8191  account */\n  dup3\n    /* \"https://github.com/OpenZeppelin/openzeppelin-contracts/blob/master/contracts/finance/PaymentSplitter.sol\":8184:8205  account != address(0) */\n  0xffffffffffffffffffffffffffffffffffffffff\n  and\n  sub\n    /* \"https://github.com/OpenZeppelin/openzeppelin-contracts/blob/master/contracts/finance/PaymentSplitter.sol\":8176:8254  require(account != address(0), \"PaymentSplitter: account is the zero address\") */\n  tag_25\n  jumpi\n  mload(0x40)\n  0x08c379a000000000000000000000000000000000000000000000000000000000\n  dup2\n  mstore\n  0x04\n  add\n  tag_26\n  swap1\n  tag_27\n  jump\t// in\ntag_26:\n  mload(0x40)\n  dup1\n  swap2\n  sub\n  swap1\n  revert\ntag_25:\n    /* \"https://github.com/OpenZeppelin/openzeppelin-contracts/blob/master/contracts/finance/PaymentSplitter.sol\":8282:8283  0 */\n  0x00\n    /* \"https://github.com/OpenZeppelin/openzeppelin-contracts/blob/master/contracts/finance/PaymentSplitter.sol\":8272:8279  shares_ */\n  dup2\n    /* \"https://github.com/OpenZeppelin/openzeppelin-contracts/blob/master/contracts/finance/PaymentSplitter.sol\":8272:8283  shares_ > 0 */\n  gt\n    /* \"https://github.com/OpenZeppelin/openzeppelin-contracts/blob/master/contracts/finance/PaymentSplitter.sol\":8264:8317  require(shares_ > 0, \"PaymentSplitter: shares are 0\") */\n  tag_28\n  jumpi\n  mload(0x40)\n  0x08c379a000000000000000000000000000000000000000000000000000000000\n  dup2\n  mstore\n  0x04\n  add\n  tag_29\n  swap1\n  tag_30\n  jump\t// in\ntag_29:\n  mload(0x40)\n  dup1\n  swap2\n  sub\n  swap1\n  revert\ntag_28:\n    /* \"https://github.com/OpenZeppelin/openzeppelin-contracts/blob/master/contracts/finance/PaymentSplitter.sol\":8355:8356  0 */\n  0x00\n    /* \"https://github.com/OpenZeppelin/openzeppelin-contracts/blob/master/contracts/finance/PaymentSplitter.sol\":8335:8342  _shares */\n  0x02\n    /* \"https://github.com/OpenZeppelin/openzeppelin-contracts/blob/master/contracts/finance/PaymentSplitter.sol\":8335:8351  _shares[account] */\n  0x00\n    /* \"https://github.com/OpenZeppelin/openzeppelin-contracts/blob/master/contracts/finance/PaymentSplitter.sol\":8343:8350  account */\n  dup5\n    /* \"https://github.com/OpenZeppelin/openzeppelin-contracts/blob/master/contracts/finance/PaymentSplitter.sol\":8335:8351  _shares[account] */\n  0xffffffffffffffffffffffffffffffffffffffff\n  and\n  0xffffffffffffffffffffffffffffffffffffffff\n  and\n  dup2\n  mstore\n  0x20\n  add\n  swap1\n  dup2\n  mstore\n  0x20\n  add\n  0x00\n  keccak256\n  sload\n    /* \"https://github.com/OpenZeppelin/openzeppelin-contracts/blob/master/contracts/finance/PaymentSplitter.sol\":8335:8356  _shares[account] == 0 */\n  eq\n    /* \"https://github.com/OpenZeppelin/openzeppelin-contracts/blob/master/contracts/finance/PaymentSplitter.sol\":8327:8404  require(_shares[account] == 0, \"PaymentSplitter: account already has shares\") */\n  tag_31\n  jumpi\n  mload(0x40)\n  0x08c379a000000000000000000000000000000000000000000000000000000000\n  dup2\n  mstore\n  0x04\n  add\n  tag_32\n  swap1\n  tag_33\n  jump\t// in\ntag_32:\n  mload(0x40)\n  dup1\n  swap2\n  sub\n  swap1\n  revert\ntag_31:\n    /* \"https://github.com/OpenZeppelin/openzeppelin-contracts/blob/master/contracts/finance/PaymentSplitter.sol\":8415:8422  _payees */\n  0x04\n    /* \"https://github.com/OpenZeppelin/openzeppelin-contracts/blob/master/contracts/finance/PaymentSplitter.sol\":8428:8435  account */\n  dup3\n    /* \"https://github.com/OpenZeppelin/openzeppelin-contracts/blob/master/contracts/finance/PaymentSplitter.sol\":8415:8436  _payees.push(account) */\n  swap1\n  dup1\n  0x01\n  dup2\n  sload\n  add\n  dup1\n  dup3\n  sstore\n  dup1\n  swap2\n  pop\n  pop\n  0x01\n  swap1\n  sub\n  swap1\n  0x00\n  mstore\n  keccak256(0x00, 0x20)\n  add\n  0x00\n  swap1\n  swap2\n  swap1\n  swap2\n  swap1\n  swap2\n  0x0100\n  exp\n  dup2\n  sload\n  dup2\n  0xffffffffffffffffffffffffffffffffffffffff\n  mul\n  not\n  and\n  swap1\n  dup4\n  0xffffffffffffffffffffffffffffffffffffffff\n  and\n  mul\n  or\n  swap1\n  sstore\n  pop\n    /* \"https://github.com/OpenZeppelin/openzeppelin-contracts/blob/master/contracts/finance/PaymentSplitter.sol\":8465:8472  shares_ */\n  dup1\n    /* \"https://github.com/OpenZeppelin/openzeppelin-contracts/blob/master/contracts/finance/PaymentSplitter.sol\":8446:8453  _shares */\n  0x02\n    /* \"https://github.com/OpenZeppelin/openzeppelin-contracts/blob/master/contracts/finance/PaymentSplitter.sol\":8446:8462  _shares[account] */\n  0x00\n    /* \"https://github.com/OpenZeppelin/openzeppelin-contracts/blob/master/contracts/finance/PaymentSplitter.sol\":8454:8461  account */\n  dup5\n    /* \"https://github.com/OpenZeppelin/openzeppelin-contracts/blob/master/contracts/finance/PaymentSplitter.sol\":8446:8462  _shares[account] */\n  0xffffffffffffffffffffffffffffffffffffffff\n  and\n  0xffffffffffffffffffffffffffffffffffffffff\n  and\n  dup2\n  mstore\n  0x20\n  add\n  swap1\n  dup2\n  mstore\n  0x20\n  add\n  0x00\n  keccak256\n    /* \"https://github.com/OpenZeppelin/openzeppelin-contracts/blob/master/contracts/finance/PaymentSplitter.sol\":8446:8472  _shares[account] = shares_ */\n  dup2\n  swap1\n  sstore\n  pop\n    /* \"https://github.com/OpenZeppelin/openzeppelin-contracts/blob/master/contracts/finance/PaymentSplitter.sol\":8512:8519  shares_ */\n  dup1\n    /* \"https://github.com/OpenZeppelin/openzeppelin-contracts/blob/master/contracts/finance/PaymentSplitter.sol\":8497:8509  _totalShares */\n  sload(0x00)\n    /* \"https://github.com/OpenZeppelin/openzeppelin-contracts/blob/master/contracts/finance/PaymentSplitter.sol\":8497:8519  _totalShares + shares_ */\n  tag_35\n  swap2\n  swap1\n  tag_36\n  jump\t// in\ntag_35:\n    /* \"https://github.com/OpenZeppelin/openzeppelin-contracts/blob/master/contracts/finance/PaymentSplitter.sol\":8482:8494  _totalShares */\n  0x00\n    /* \"https://github.com/OpenZeppelin/openzeppelin-contracts/blob/master/contracts/finance/PaymentSplitter.sol\":8482:8519  _totalShares = _totalShares + shares_ */\n  dup2\n  swap1\n  sstore\n  pop\n    /* \"https://github.com/OpenZeppelin/openzeppelin-contracts/blob/master/contracts/finance/PaymentSplitter.sol\":8534:8562  PayeeAdded(account, shares_) */\n  0x40c340f65e17194d14ddddb073d3c9f888e3cb52b5aae0c6c7706b4fbc905fac\n    /* \"https://github.com/OpenZeppelin/openzeppelin-contracts/blob/master/contracts/finance/PaymentSplitter.sol\":8545:8552  account */\n  dup3\n    /* \"https://github.com/OpenZeppelin/openzeppelin-contracts/blob/master/contracts/finance/PaymentSplitter.sol\":8554:8561  shares_ */\n  dup3\n    /* \"https://github.com/OpenZeppelin/openzeppelin-contracts/blob/master/contracts/finance/PaymentSplitter.sol\":8534:8562  PayeeAdded(account, shares_) */\n  mload(0x40)\n  tag_37\n  swap3\n  swap2\n  swap1\n  tag_38\n  jump\t// in\ntag_37:\n  mload(0x40)\n  dup1\n  swap2\n  sub\n  swap1\n  log1\n    /* \"https://github.com/OpenZeppelin/openzeppelin-contracts/blob/master/contracts/finance/PaymentSplitter.sol\":8105:8569  function _addPayee(address account, uint256 shares_) private {... */\n  pop\n  pop\n  jump\t// out\n    /* \"#utility.yul\":7:82   */\ntag_39:\n    /* \"#utility.yul\":40:46   */\n  0x00\n    /* \"#utility.yul\":73:75   */\n  0x40\n    /* \"#utility.yul\":67:76   */\n  mload\n    /* \"#utility.yul\":57:76   */\n  swap1\n  pop\n    /* \"#utility.yul\":7:82   */\n  swap1\n  jump\t// out\n    /* \"#utility.yul\":88:205   */\ntag_40:\n    /* \"#utility.yul\":197:198   */\n  0x00\n    /* \"#utility.yul\":194:195   */\n  dup1\n    /* \"#utility.yul\":187:199   */\n  revert\n    /* \"#utility.yul\":211:328   */\ntag_41:\n    /* \"#utility.yul\":320:321   */\n  0x00\n    /* \"#utility.yul\":317:318   */\n  dup1\n    /* \"#utility.yul\":310:322   */\n  revert\n    /* \"#utility.yul\":334:451   */\ntag_42:\n    /* \"#utility.yul\":443:444   */\n  0x00\n    /* \"#utility.yul\":440:441   */\n  dup1\n    /* \"#utility.yul\":433:445   */\n  revert\n    /* \"#utility.yul\":457:559   */\ntag_43:\n    /* \"#utility.yul\":498:504   */\n  0x00\n    /* \"#utility.yul\":549:551   */\n  0x1f\n    /* \"#utility.yul\":545:552   */\n  not\n    /* \"#utility.yul\":540:542   */\n  0x1f\n    /* \"#utility.yul\":533:538   */\n  dup4\n    /* \"#utility.yul\":529:543   */\n  add\n    /* \"#utility.yul\":525:553   */\n  and\n    /* \"#utility.yul\":515:553   */\n  swap1\n  pop\n    /* \"#utility.yul\":457:559   */\n  swap2\n  swap1\n  pop\n  jump\t// out\n    /* \"#utility.yul\":565:745   */\ntag_44:\n    /* \"#utility.yul\":613:690   */\n  0x4e487b7100000000000000000000000000000000000000000000000000000000\n    /* \"#utility.yul\":610:611   */\n  0x00\n    /* \"#utility.yul\":603:691   */\n  mstore\n    /* \"#utility.yul\":710:714   */\n  0x41\n    /* \"#utility.yul\":707:708   */\n  0x04\n    /* \"#utility.yul\":700:715   */\n  mstore\n    /* \"#utility.yul\":734:738   */\n  0x24\n    /* \"#utility.yul\":731:732   */\n  0x00\n    /* \"#utility.yul\":724:739   */\n  revert\n    /* \"#utility.yul\":751:1032   */\ntag_45:\n    /* \"#utility.yul\":834:861   */\n  tag_83\n    /* \"#utility.yul\":856:860   */\n  dup3\n    /* \"#utility.yul\":834:861   */\n  tag_43\n  jump\t// in\ntag_83:\n    /* \"#utility.yul\":826:832   */\n  dup2\n    /* \"#utility.yul\":822:862   */\n  add\n    /* \"#utility.yul\":964:970   */\n  dup2\n    /* \"#utility.yul\":952:962   */\n  dup2\n    /* \"#utility.yul\":949:971   */\n  lt\n    /* \"#utility.yul\":928:946   */\n  0xffffffffffffffff\n    /* \"#utility.yul\":916:926   */\n  dup3\n    /* \"#utility.yul\":913:947   */\n  gt\n    /* \"#utility.yul\":910:972   */\n  or\n    /* \"#utility.yul\":907:995   */\n  iszero\n  tag_84\n  jumpi\n    /* \"#utility.yul\":975:993   */\n  tag_85\n  tag_44\n  jump\t// in\ntag_85:\n    /* \"#utility.yul\":907:995   */\ntag_84:\n    /* \"#utility.yul\":1015:1025   */\n  dup1\n    /* \"#utility.yul\":1011:1013   */\n  0x40\n    /* \"#utility.yul\":1004:1026   */\n  mstore\n    /* \"#utility.yul\":794:1032   */\n  pop\n    /* \"#utility.yul\":751:1032   */\n  pop\n  pop\n  jump\t// out\n    /* \"#utility.yul\":1038:1167   */\ntag_46:\n    /* \"#utility.yul\":1072:1078   */\n  0x00\n    /* \"#utility.yul\":1099:1119   */\n  tag_87\n  tag_39\n  jump\t// in\ntag_87:\n    /* \"#utility.yul\":1089:1119   */\n  swap1\n  pop\n    /* \"#utility.yul\":1128:1161   */\n  tag_88\n    /* \"#utility.yul\":1156:1160   */\n  dup3\n    /* \"#utility.yul\":1148:1154   */\n  dup3\n    /* \"#utility.yul\":1128:1161   */\n  tag_45\n  jump\t// in\ntag_88:\n    /* \"#utility.yul\":1038:1167   */\n  swap2\n  swap1\n  pop\n  jump\t// out\n    /* \"#utility.yul\":1173:1484   */\ntag_47:\n    /* \"#utility.yul\":1250:1254   */\n  0x00\n    /* \"#utility.yul\":1340:1358   */\n  0xffffffffffffffff\n    /* \"#utility.yul\":1332:1338   */\n  dup3\n    /* \"#utility.yul\":1329:1359   */\n  gt\n    /* \"#utility.yul\":1326:1382   */\n  iszero\n  tag_90\n  jumpi\n    /* \"#utility.yul\":1362:1380   */\n  tag_91\n  tag_44\n  jump\t// in\ntag_91:\n    /* \"#utility.yul\":1326:1382   */\ntag_90:\n    /* \"#utility.yul\":1412:1416   */\n  0x20\n    /* \"#utility.yul\":1404:1410   */\n  dup3\n    /* \"#utility.yul\":1400:1417   */\n  mul\n    /* \"#utility.yul\":1392:1417   */\n  swap1\n  pop\n    /* \"#utility.yul\":1472:1476   */\n  0x20\n    /* \"#utility.yul\":1466:1470   */\n  dup2\n    /* \"#utility.yul\":1462:1477   */\n  add\n    /* \"#utility.yul\":1454:1477   */\n  swap1\n  pop\n    /* \"#utility.yul\":1173:1484   */\n  swap2\n  swap1\n  pop\n  jump\t// out\n    /* \"#utility.yul\":1490:1607   */\ntag_48:\n    /* \"#utility.yul\":1599:1600   */\n  0x00\n    /* \"#utility.yul\":1596:1597   */\n  dup1\n    /* \"#utility.yul\":1589:1601   */\n  revert\n    /* \"#utility.yul\":1613:1739   */\ntag_49:\n    /* \"#utility.yul\":1650:1657   */\n  0x00\n    /* \"#utility.yul\":1690:1732   */\n  0xffffffffffffffffffffffffffffffffffffffff\n    /* \"#utility.yul\":1683:1688   */\n  dup3\n    /* \"#utility.yul\":1679:1733   */\n  and\n    /* \"#utility.yul\":1668:1733   */\n  swap1\n  pop\n    /* \"#utility.yul\":1613:1739   */\n  swap2\n  swap1\n  pop\n  jump\t// out\n    /* \"#utility.yul\":1745:1841   */\ntag_50:\n    /* \"#utility.yul\":1782:1789   */\n  0x00\n    /* \"#utility.yul\":1811:1835   */\n  tag_95\n    /* \"#utility.yul\":1829:1834   */\n  dup3\n    /* \"#utility.yul\":1811:1835   */\n  tag_49\n  jump\t// in\ntag_95:\n    /* \"#utility.yul\":1800:1835   */\n  swap1\n  pop\n    /* \"#utility.yul\":1745:1841   */\n  swap2\n  swap1\n  pop\n  jump\t// out\n    /* \"#utility.yul\":1847:1969   */\ntag_51:\n    /* \"#utility.yul\":1920:1944   */\n  tag_97\n    /* \"#utility.yul\":1938:1943   */\n  dup2\n    /* \"#utility.yul\":1920:1944   */\n  tag_50\n  jump\t// in\ntag_97:\n    /* \"#utility.yul\":1913:1918   */\n  dup2\n    /* \"#utility.yul\":1910:1945   */\n  eq\n    /* \"#utility.yul\":1900:1963   */\n  tag_98\n  jumpi\n    /* \"#utility.yul\":1959:1960   */\n  0x00\n    /* \"#utility.yul\":1956:1957   */\n  dup1\n    /* \"#utility.yul\":1949:1961   */\n  revert\n    /* \"#utility.yul\":1900:1963   */\ntag_98:\n    /* \"#utility.yul\":1847:1969   */\n  pop\n  jump\t// out\n    /* \"#utility.yul\":1975:2118   */\ntag_52:\n    /* \"#utility.yul\":2032:2037   */\n  0x00\n    /* \"#utility.yul\":2063:2069   */\n  dup2\n    /* \"#utility.yul\":2057:2070   */\n  mload\n    /* \"#utility.yul\":2048:2070   */\n  swap1\n  pop\n    /* \"#utility.yul\":2079:2112   */\n  tag_100\n    /* \"#utility.yul\":2106:2111   */\n  dup2\n    /* \"#utility.yul\":2079:2112   */\n  tag_51\n  jump\t// in\ntag_100:\n    /* \"#utility.yul\":1975:2118   */\n  swap3\n  swap2\n  pop\n  pop\n  jump\t// out\n    /* \"#utility.yul\":2141:2873   */\ntag_53:\n    /* \"#utility.yul\":2248:2253   */\n  0x00\n    /* \"#utility.yul\":2273:2354   */\n  tag_102\n    /* \"#utility.yul\":2289:2353   */\n  tag_103\n    /* \"#utility.yul\":2346:2352   */\n  dup5\n    /* \"#utility.yul\":2289:2353   */\n  tag_47\n  jump\t// in\ntag_103:\n    /* \"#utility.yul\":2273:2354   */\n  tag_46\n  jump\t// in\ntag_102:\n    /* \"#utility.yul\":2264:2354   */\n  swap1\n  pop\n    /* \"#utility.yul\":2374:2379   */\n  dup1\n    /* \"#utility.yul\":2403:2409   */\n  dup4\n    /* \"#utility.yul\":2396:2401   */\n  dup3\n    /* \"#utility.yul\":2389:2410   */\n  mstore\n    /* \"#utility.yul\":2437:2441   */\n  0x20\n    /* \"#utility.yul\":2430:2435   */\n  dup3\n    /* \"#utility.yul\":2426:2442   */\n  add\n    /* \"#utility.yul\":2419:2442   */\n  swap1\n  pop\n    /* \"#utility.yul\":2490:2494   */\n  0x20\n    /* \"#utility.yul\":2482:2488   */\n  dup5\n    /* \"#utility.yul\":2478:2495   */\n  mul\n    /* \"#utility.yul\":2470:2476   */\n  dup4\n    /* \"#utility.yul\":2466:2496   */\n  add\n    /* \"#utility.yul\":2519:2522   */\n  dup6\n    /* \"#utility.yul\":2511:2517   */\n  dup2\n    /* \"#utility.yul\":2508:2523   */\n  gt\n    /* \"#utility.yul\":2505:2627   */\n  iszero\n  tag_104\n  jumpi\n    /* \"#utility.yul\":2538:2617   */\n  tag_105\n  tag_48\n  jump\t// in\ntag_105:\n    /* \"#utility.yul\":2505:2627   */\ntag_104:\n    /* \"#utility.yul\":2653:2659   */\n  dup4\n    /* \"#utility.yul\":2636:2867   */\ntag_106:\n    /* \"#utility.yul\":2670:2676   */\n  dup2\n    /* \"#utility.yul\":2665:2668   */\n  dup2\n    /* \"#utility.yul\":2662:2677   */\n  lt\n    /* \"#utility.yul\":2636:2867   */\n  iszero\n  tag_108\n  jumpi\n    /* \"#utility.yul\":2745:2748   */\n  dup1\n    /* \"#utility.yul\":2774:2822   */\n  tag_109\n    /* \"#utility.yul\":2818:2821   */\n  dup9\n    /* \"#utility.yul\":2806:2816   */\n  dup3\n    /* \"#utility.yul\":2774:2822   */\n  tag_52\n  jump\t// in\ntag_109:\n    /* \"#utility.yul\":2769:2772   */\n  dup5\n    /* \"#utility.yul\":2762:2823   */\n  mstore\n    /* \"#utility.yul\":2852:2856   */\n  0x20\n    /* \"#utility.yul\":2847:2850   */\n  dup5\n    /* \"#utility.yul\":2843:2857   */\n  add\n    /* \"#utility.yul\":2836:2857   */\n  swap4\n  pop\n    /* \"#utility.yul\":2712:2867   */\n  pop\n    /* \"#utility.yul\":2696:2700   */\n  0x20\n    /* \"#utility.yul\":2691:2694   */\n  dup2\n    /* \"#utility.yul\":2687:2701   */\n  add\n    /* \"#utility.yul\":2680:2701   */\n  swap1\n  pop\n    /* \"#utility.yul\":2636:2867   */\n  jump(tag_106)\ntag_108:\n    /* \"#utility.yul\":2640:2661   */\n  pop\n    /* \"#utility.yul\":2254:2873   */\n  pop\n  pop\n    /* \"#utility.yul\":2141:2873   */\n  swap4\n  swap3\n  pop\n  pop\n  pop\n  jump\t// out\n    /* \"#utility.yul\":2896:3281   */\ntag_54:\n    /* \"#utility.yul\":2978:2983   */\n  0x00\n    /* \"#utility.yul\":3027:3030   */\n  dup3\n    /* \"#utility.yul\":3020:3024   */\n  0x1f\n    /* \"#utility.yul\":3012:3018   */\n  dup4\n    /* \"#utility.yul\":3008:3025   */\n  add\n    /* \"#utility.yul\":3004:3031   */\n  slt\n    /* \"#utility.yul\":2994:3116   */\n  tag_111\n  jumpi\n    /* \"#utility.yul\":3035:3114   */\n  tag_112\n  tag_42\n  jump\t// in\ntag_112:\n    /* \"#utility.yul\":2994:3116   */\ntag_111:\n    /* \"#utility.yul\":3145:3151   */\n  dup2\n    /* \"#utility.yul\":3139:3152   */\n  mload\n    /* \"#utility.yul\":3170:3275   */\n  tag_113\n    /* \"#utility.yul\":3271:3274   */\n  dup5\n    /* \"#utility.yul\":3263:3269   */\n  dup3\n    /* \"#utility.yul\":3256:3260   */\n  0x20\n    /* \"#utility.yul\":3248:3254   */\n  dup7\n    /* \"#utility.yul\":3244:3261   */\n  add\n    /* \"#utility.yul\":3170:3275   */\n  tag_53\n  jump\t// in\ntag_113:\n    /* \"#utility.yul\":3161:3275   */\n  swap2\n  pop\n    /* \"#utility.yul\":2984:3281   */\n  pop\n    /* \"#utility.yul\":2896:3281   */\n  swap3\n  swap2\n  pop\n  pop\n  jump\t// out\n    /* \"#utility.yul\":3287:3598   */\ntag_55:\n    /* \"#utility.yul\":3364:3368   */\n  0x00\n    /* \"#utility.yul\":3454:3472   */\n  0xffffffffffffffff\n    /* \"#utility.yul\":3446:3452   */\n  dup3\n    /* \"#utility.yul\":3443:3473   */\n  gt\n    /* \"#utility.yul\":3440:3496   */\n  iszero\n  tag_115\n  jumpi\n    /* \"#utility.yul\":3476:3494   */\n  tag_116\n  tag_44\n  jump\t// in\ntag_116:\n    /* \"#utility.yul\":3440:3496   */\ntag_115:\n    /* \"#utility.yul\":3526:3530   */\n  0x20\n    /* \"#utility.yul\":3518:3524   */\n  dup3\n    /* \"#utility.yul\":3514:3531   */\n  mul\n    /* \"#utility.yul\":3506:3531   */\n  swap1\n  pop\n    /* \"#utility.yul\":3586:3590   */\n  0x20\n    /* \"#utility.yul\":3580:3584   */\n  dup2\n    /* \"#utility.yul\":3576:3591   */\n  add\n    /* \"#utility.yul\":3568:3591   */\n  swap1\n  pop\n    /* \"#utility.yul\":3287:3598   */\n  swap2\n  swap1\n  pop\n  jump\t// out\n    /* \"#utility.yul\":3604:3681   */\ntag_56:\n    /* \"#utility.yul\":3641:3648   */\n  0x00\n    /* \"#utility.yul\":3670:3675   */\n  dup2\n    /* \"#utility.yul\":3659:3675   */\n  swap1\n  pop\n    /* \"#utility.yul\":3604:3681   */\n  swap2\n  swap1\n  pop\n  jump\t// out\n    /* \"#utility.yul\":3687:3809   */\ntag_57:\n    /* \"#utility.yul\":3760:3784   */\n  tag_119\n    /* \"#utility.yul\":3778:3783   */\n  dup2\n    /* \"#utility.yul\":3760:3784   */\n  tag_56\n  jump\t// in\ntag_119:\n    /* \"#utility.yul\":3753:3758   */\n  dup2\n    /* \"#utility.yul\":3750:3785   */\n  eq\n    /* \"#utility.yul\":3740:3803   */\n  tag_120\n  jumpi\n    /* \"#utility.yul\":3799:3800   */\n  0x00\n    /* \"#utility.yul\":3796:3797   */\n  dup1\n    /* \"#utility.yul\":3789:3801   */\n  revert\n    /* \"#utility.yul\":3740:3803   */\ntag_120:\n    /* \"#utility.yul\":3687:3809   */\n  pop\n  jump\t// out\n    /* \"#utility.yul\":3815:3958   */\ntag_58:\n    /* \"#utility.yul\":3872:3877   */\n  0x00\n    /* \"#utility.yul\":3903:3909   */\n  dup2\n    /* \"#utility.yul\":3897:3910   */\n  mload\n    /* \"#utility.yul\":3888:3910   */\n  swap1\n  pop\n    /* \"#utility.yul\":3919:3952   */\n  tag_122\n    /* \"#utility.yul\":3946:3951   */\n  dup2\n    /* \"#utility.yul\":3919:3952   */\n  tag_57\n  jump\t// in\ntag_122:\n    /* \"#utility.yul\":3815:3958   */\n  swap3\n  swap2\n  pop\n  pop\n  jump\t// out\n    /* \"#utility.yul\":3981:4713   */\ntag_59:\n    /* \"#utility.yul\":4088:4093   */\n  0x00\n    /* \"#utility.yul\":4113:4194   */\n  tag_124\n    /* \"#utility.yul\":4129:4193   */\n  tag_125\n    /* \"#utility.yul\":4186:4192   */\n  dup5\n    /* \"#utility.yul\":4129:4193   */\n  tag_55\n  jump\t// in\ntag_125:\n    /* \"#utility.yul\":4113:4194   */\n  tag_46\n  jump\t// in\ntag_124:\n    /* \"#utility.yul\":4104:4194   */\n  swap1\n  pop\n    /* \"#utility.yul\":4214:4219   */\n  dup1\n    /* \"#utility.yul\":4243:4249   */\n  dup4\n    /* \"#utility.yul\":4236:4241   */\n  dup3\n    /* \"#utility.yul\":4229:4250   */\n  mstore\n    /* \"#utility.yul\":4277:4281   */\n  0x20\n    /* \"#utility.yul\":4270:4275   */\n  dup3\n    /* \"#utility.yul\":4266:4282   */\n  add\n    /* \"#utility.yul\":4259:4282   */\n  swap1\n  pop\n    /* \"#utility.yul\":4330:4334   */\n  0x20\n    /* \"#utility.yul\":4322:4328   */\n  dup5\n    /* \"#utility.yul\":4318:4335   */\n  mul\n    /* \"#utility.yul\":4310:4316   */\n  dup4\n    /* \"#utility.yul\":4306:4336   */\n  add\n    /* \"#utility.yul\":4359:4362   */\n  dup6\n    /* \"#utility.yul\":4351:4357   */\n  dup2\n    /* \"#utility.yul\":4348:4363   */\n  gt\n    /* \"#utility.yul\":4345:4467   */\n  iszero\n  tag_126\n  jumpi\n    /* \"#utility.yul\":4378:4457   */\n  tag_127\n  tag_48\n  jump\t// in\ntag_127:\n    /* \"#utility.yul\":4345:4467   */\ntag_126:\n    /* \"#utility.yul\":4493:4499   */\n  dup4\n    /* \"#utility.yul\":4476:4707   */\ntag_128:\n    /* \"#utility.yul\":4510:4516   */\n  dup2\n    /* \"#utility.yul\":4505:4508   */\n  dup2\n    /* \"#utility.yul\":4502:4517   */\n  lt\n    /* \"#utility.yul\":4476:4707   */\n  iszero\n  tag_130\n  jumpi\n    /* \"#utility.yul\":4585:4588   */\n  dup1\n    /* \"#utility.yul\":4614:4662   */\n  tag_131\n    /* \"#utility.yul\":4658:4661   */\n  dup9\n    /* \"#utility.yul\":4646:4656   */\n  dup3\n    /* \"#utility.yul\":4614:4662   */\n  tag_58\n  jump\t// in\ntag_131:\n    /* \"#utility.yul\":4609:4612   */\n  dup5\n    /* \"#utility.yul\":4602:4663   */\n  mstore\n    /* \"#utility.yul\":4692:4696   */\n  0x20\n    /* \"#utility.yul\":4687:4690   */\n  dup5\n    /* \"#utility.yul\":4683:4697   */\n  add\n    /* \"#utility.yul\":4676:4697   */\n  swap4\n  pop\n    /* \"#utility.yul\":4552:4707   */\n  pop\n    /* \"#utility.yul\":4536:4540   */\n  0x20\n    /* \"#utility.yul\":4531:4534   */\n  dup2\n    /* \"#utility.yul\":4527:4541   */\n  add\n    /* \"#utility.yul\":4520:4541   */\n  swap1\n  pop\n    /* \"#utility.yul\":4476:4707   */\n  jump(tag_128)\ntag_130:\n    /* \"#utility.yul\":4480:4501   */\n  pop\n    /* \"#utility.yul\":4094:4713   */\n  pop\n  pop\n    /* \"#utility.yul\":3981:4713   */\n  swap4\n  swap3\n  pop\n  pop\n  pop\n  jump\t// out\n    /* \"#utility.yul\":4736:5121   */\ntag_60:\n    /* \"#utility.yul\":4818:4823   */\n  0x00\n    /* \"#utility.yul\":4867:4870   */\n  dup3\n    /* \"#utility.yul\":4860:4864   */\n  0x1f\n    /* \"#utility.yul\":4852:4858   */\n  dup4\n    /* \"#utility.yul\":4848:4865   */\n  add\n    /* \"#utility.yul\":4844:4871   */\n  slt\n    /* \"#utility.yul\":4834:4956   */\n  tag_133\n  jumpi\n    /* \"#utility.yul\":4875:4954   */\n  tag_134\n  tag_42\n  jump\t// in\ntag_134:\n    /* \"#utility.yul\":4834:4956   */\ntag_133:\n    /* \"#utility.yul\":4985:4991   */\n  dup2\n    /* \"#utility.yul\":4979:4992   */\n  mload\n    /* \"#utility.yul\":5010:5115   */\n  tag_135\n    /* \"#utility.yul\":5111:5114   */\n  dup5\n    /* \"#utility.yul\":5103:5109   */\n  dup3\n    /* \"#utility.yul\":5096:5100   */\n  0x20\n    /* \"#utility.yul\":5088:5094   */\n  dup7\n    /* \"#utility.yul\":5084:5101   */\n  add\n    /* \"#utility.yul\":5010:5115   */\n  tag_59\n  jump\t// in\ntag_135:\n    /* \"#utility.yul\":5001:5115   */\n  swap2\n  pop\n    /* \"#utility.yul\":4824:5121   */\n  pop\n    /* \"#utility.yul\":4736:5121   */\n  swap3\n  swap2\n  pop\n  pop\n  jump\t// out\n    /* \"#utility.yul\":5127:6040   */\ntag_2:\n    /* \"#utility.yul\":5256:5262   */\n  0x00\n    /* \"#utility.yul\":5264:5270   */\n  dup1\n    /* \"#utility.yul\":5313:5315   */\n  0x40\n    /* \"#utility.yul\":5301:5310   */\n  dup4\n    /* \"#utility.yul\":5292:5299   */\n  dup6\n    /* \"#utility.yul\":5288:5311   */\n  sub\n    /* \"#utility.yul\":5284:5316   */\n  slt\n    /* \"#utility.yul\":5281:5400   */\n  iszero\n  tag_137\n  jumpi\n    /* \"#utility.yul\":5319:5398   */\n  tag_138\n  tag_40\n  jump\t// in\ntag_138:\n    /* \"#utility.yul\":5281:5400   */\ntag_137:\n    /* \"#utility.yul\":5460:5461   */\n  0x00\n    /* \"#utility.yul\":5449:5458   */\n  dup4\n    /* \"#utility.yul\":5445:5462   */\n  add\n    /* \"#utility.yul\":5439:5463   */\n  mload\n    /* \"#utility.yul\":5490:5508   */\n  0xffffffffffffffff\n    /* \"#utility.yul\":5482:5488   */\n  dup2\n    /* \"#utility.yul\":5479:5509   */\n  gt\n    /* \"#utility.yul\":5476:5593   */\n  iszero\n  tag_139\n  jumpi\n    /* \"#utility.yul\":5512:5591   */\n  tag_140\n  tag_41\n  jump\t// in\ntag_140:\n    /* \"#utility.yul\":5476:5593   */\ntag_139:\n    /* \"#utility.yul\":5617:5706   */\n  tag_141\n    /* \"#utility.yul\":5698:5705   */\n  dup6\n    /* \"#utility.yul\":5689:5695   */\n  dup3\n    /* \"#utility.yul\":5678:5687   */\n  dup7\n    /* \"#utility.yul\":5674:5696   */\n  add\n    /* \"#utility.yul\":5617:5706   */\n  tag_54\n  jump\t// in\ntag_141:\n    /* \"#utility.yul\":5607:5706   */\n  swap3\n  pop\n    /* \"#utility.yul\":5410:5716   */\n  pop\n    /* \"#utility.yul\":5776:5778   */\n  0x20\n    /* \"#utility.yul\":5765:5774   */\n  dup4\n    /* \"#utility.yul\":5761:5779   */\n  add\n    /* \"#utility.yul\":5755:5780   */\n  mload\n    /* \"#utility.yul\":5807:5825   */\n  0xffffffffffffffff\n    /* \"#utility.yul\":5799:5805   */\n  dup2\n    /* \"#utility.yul\":5796:5826   */\n  gt\n    /* \"#utility.yul\":5793:5910   */\n  iszero\n  tag_142\n  jumpi\n    /* \"#utility.yul\":5829:5908   */\n  tag_143\n  tag_41\n  jump\t// in\ntag_143:\n    /* \"#utility.yul\":5793:5910   */\ntag_142:\n    /* \"#utility.yul\":5934:6023   */\n  tag_144\n    /* \"#utility.yul\":6015:6022   */\n  dup6\n    /* \"#utility.yul\":6006:6012   */\n  dup3\n    /* \"#utility.yul\":5995:6004   */\n  dup7\n    /* \"#utility.yul\":5991:6013   */\n  add\n    /* \"#utility.yul\":5934:6023   */\n  tag_60\n  jump\t// in\ntag_144:\n    /* \"#utility.yul\":5924:6023   */\n  swap2\n  pop\n    /* \"#utility.yul\":5726:6033   */\n  pop\n    /* \"#utility.yul\":5127:6040   */\n  swap3\n  pop\n  swap3\n  swap1\n  pop\n  jump\t// out\n    /* \"#utility.yul\":6046:6215   */\ntag_61:\n    /* \"#utility.yul\":6130:6141   */\n  0x00\n    /* \"#utility.yul\":6164:6170   */\n  dup3\n    /* \"#utility.yul\":6159:6162   */\n  dup3\n    /* \"#utility.yul\":6152:6171   */\n  mstore\n    /* \"#utility.yul\":6204:6208   */\n  0x20\n    /* \"#utility.yul\":6199:6202   */\n  dup3\n    /* \"#utility.yul\":6195:6209   */\n  add\n    /* \"#utility.yul\":6180:6209   */\n  swap1\n  pop\n    /* \"#utility.yul\":6046:6215   */\n  swap3\n  swap2\n  pop\n  pop\n  jump\t// out\n    /* \"#utility.yul\":6221:6458   */\ntag_62:\n    /* \"#utility.yul\":6361:6395   */\n  0x5061796d656e7453706c69747465723a2070617965657320616e642073686172\n    /* \"#utility.yul\":6357:6358   */\n  0x00\n    /* \"#utility.yul\":6349:6355   */\n  dup3\n    /* \"#utility.yul\":6345:6359   */\n  add\n    /* \"#utility.yul\":6338:6396   */\n  mstore\n    /* \"#utility.yul\":6430:6450   */\n  0x6573206c656e677468206d69736d617463680000000000000000000000000000\n    /* \"#utility.yul\":6425:6427   */\n  0x20\n    /* \"#utility.yul\":6417:6423   */\n  dup3\n    /* \"#utility.yul\":6413:6428   */\n  add\n    /* \"#utility.yul\":6406:6451   */\n  mstore\n    /* \"#utility.yul\":6221:6458   */\n  pop\n  jump\t// out\n    /* \"#utility.yul\":6464:6830   */\ntag_63:\n    /* \"#utility.yul\":6606:6609   */\n  0x00\n    /* \"#utility.yul\":6627:6694   */\n  tag_148\n    /* \"#utility.yul\":6691:6693   */\n  0x32\n    /* \"#utility.yul\":6686:6689   */\n  dup4\n    /* \"#utility.yul\":6627:6694   */\n  tag_61\n  jump\t// in\ntag_148:\n    /* \"#utility.yul\":6620:6694   */\n  swap2\n  pop\n    /* \"#utility.yul\":6703:6796   */\n  tag_149\n    /* \"#utility.yul\":6792:6795   */\n  dup3\n    /* \"#utility.yul\":6703:6796   */\n  tag_62\n  jump\t// in\ntag_149:\n    /* \"#utility.yul\":6821:6823   */\n  0x40\n    /* \"#utility.yul\":6816:6819   */\n  dup3\n    /* \"#utility.yul\":6812:6824   */\n  add\n    /* \"#utility.yul\":6805:6824   */\n  swap1\n  pop\n    /* \"#utility.yul\":6464:6830   */\n  swap2\n  swap1\n  pop\n  jump\t// out\n    /* \"#utility.yul\":6836:7255   */\ntag_7:\n    /* \"#utility.yul\":7002:7006   */\n  0x00\n    /* \"#utility.yul\":7040:7042   */\n  0x20\n    /* \"#utility.yul\":7029:7038   */\n  dup3\n    /* \"#utility.yul\":7025:7043   */\n  add\n    /* \"#utility.yul\":7017:7043   */\n  swap1\n  pop\n    /* \"#utility.yul\":7089:7098   */\n  dup2\n    /* \"#utility.yul\":7083:7087   */\n  dup2\n    /* \"#utility.yul\":7079:7099   */\n  sub\n    /* \"#utility.yul\":7075:7076   */\n  0x00\n    /* \"#utility.yul\":7064:7073   */\n  dup4\n    /* \"#utility.yul\":7060:7077   */\n  add\n    /* \"#utility.yul\":7053:7100   */\n  mstore\n    /* \"#utility.yul\":7117:7248   */\n  tag_151\n    /* \"#utility.yul\":7243:7247   */\n  dup2\n    /* \"#utility.yul\":7117:7248   */\n  tag_63\n  jump\t// in\ntag_151:\n    /* \"#utility.yul\":7109:7248   */\n  swap1\n  pop\n    /* \"#utility.yul\":6836:7255   */\n  swap2\n  swap1\n  pop\n  jump\t// out\n    /* \"#utility.yul\":7261:7437   */\ntag_64:\n    /* \"#utility.yul\":7401:7429   */\n  0x5061796d656e7453706c69747465723a206e6f20706179656573000000000000\n    /* \"#utility.yul\":7397:7398   */\n  0x00\n    /* \"#utility.yul\":7389:7395   */\n  dup3\n    /* \"#utility.yul\":7385:7399   */\n  add\n    /* \"#utility.yul\":7378:7430   */\n  mstore\n    /* \"#utility.yul\":7261:7437   */\n  pop\n  jump\t// out\n    /* \"#utility.yul\":7443:7809   */\ntag_65:\n    /* \"#utility.yul\":7585:7588   */\n  0x00\n    /* \"#utility.yul\":7606:7673   */\n  tag_154\n    /* \"#utility.yul\":7670:7672   */\n  0x1a\n    /* \"#utility.yul\":7665:7668   */\n  dup4\n    /* \"#utility.yul\":7606:7673   */\n  tag_61\n  jump\t// in\ntag_154:\n    /* \"#utility.yul\":7599:7673   */\n  swap2\n  pop\n    /* \"#utility.yul\":7682:7775   */\n  tag_155\n    /* \"#utility.yul\":7771:7774   */\n  dup3\n    /* \"#utility.yul\":7682:7775   */\n  tag_64\n  jump\t// in\ntag_155:\n    /* \"#utility.yul\":7800:7802   */\n  0x20\n    /* \"#utility.yul\":7795:7798   */\n  dup3\n    /* \"#utility.yul\":7791:7803   */\n  add\n    /* \"#utility.yul\":7784:7803   */\n  swap1\n  pop\n    /* \"#utility.yul\":7443:7809   */\n  swap2\n  swap1\n  pop\n  jump\t// out\n    /* \"#utility.yul\":7815:8234   */\ntag_10:\n    /* \"#utility.yul\":7981:7985   */\n  0x00\n    /* \"#utility.yul\":8019:8021   */\n  0x20\n    /* \"#utility.yul\":8008:8017   */\n  dup3\n    /* \"#utility.yul\":8004:8022   */\n  add\n    /* \"#utility.yul\":7996:8022   */\n  swap1\n  pop\n    /* \"#utility.yul\":8068:8077   */\n  dup2\n    /* \"#utility.yul\":8062:8066   */\n  dup2\n    /* \"#utility.yul\":8058:8078   */\n  sub\n    /* \"#utility.yul\":8054:8055   */\n  0x00\n    /* \"#utility.yul\":8043:8052   */\n  dup4\n    /* \"#utility.yul\":8039:8056   */\n  add\n    /* \"#utility.yul\":8032:8079   */\n  mstore\n    /* \"#utility.yul\":8096:8227   */\n  tag_157\n    /* \"#utility.yul\":8222:8226   */\n  dup2\n    /* \"#utility.yul\":8096:8227   */\n  tag_65\n  jump\t// in\ntag_157:\n    /* \"#utility.yul\":8088:8227   */\n  swap1\n  pop\n    /* \"#utility.yul\":7815:8234   */\n  swap2\n  swap1\n  pop\n  jump\t// out\n    /* \"#utility.yul\":8240:8420   */\ntag_17:\n    /* \"#utility.yul\":8288:8365   */\n  0x4e487b7100000000000000000000000000000000000000000000000000000000\n    /* \"#utility.yul\":8285:8286   */\n  0x00\n    /* \"#utility.yul\":8278:8366   */\n  mstore\n    /* \"#utility.yul\":8385:8389   */\n  0x32\n    /* \"#utility.yul\":8382:8383   */\n  0x04\n    /* \"#utility.yul\":8375:8390   */\n  mstore\n    /* \"#utility.yul\":8409:8413   */\n  0x24\n    /* \"#utility.yul\":8406:8407   */\n  0x00\n    /* \"#utility.yul\":8399:8414   */\n  revert\n    /* \"#utility.yul\":8426:8606   */\ntag_66:\n    /* \"#utility.yul\":8474:8551   */\n  0x4e487b7100000000000000000000000000000000000000000000000000000000\n    /* \"#utility.yul\":8471:8472   */\n  0x00\n    /* \"#utility.yul\":8464:8552   */\n  mstore\n    /* \"#utility.yul\":8571:8575   */\n  0x11\n    /* \"#utility.yul\":8568:8569   */\n  0x04\n    /* \"#utility.yul\":8561:8576   */\n  mstore\n    /* \"#utility.yul\":8595:8599   */\n  0x24\n    /* \"#utility.yul\":8592:8593   */\n  0x00\n    /* \"#utility.yul\":8585:8600   */\n  revert\n    /* \"#utility.yul\":8612:8845   */\ntag_22:\n    /* \"#utility.yul\":8651:8654   */\n  0x00\n    /* \"#utility.yul\":8674:8698   */\n  tag_161\n    /* \"#utility.yul\":8692:8697   */\n  dup3\n    /* \"#utility.yul\":8674:8698   */\n  tag_56\n  jump\t// in\ntag_161:\n    /* \"#utility.yul\":8665:8698   */\n  swap2\n  pop\n    /* \"#utility.yul\":8720:8786   */\n  0xffffffffffffffffffffffffffffffffffffffffffffffffffffffffffffffff\n    /* \"#utility.yul\":8713:8718   */\n  dup3\n    /* \"#utility.yul\":8710:8787   */\n  sub\n    /* \"#utility.yul\":8707:8810   */\n  tag_162\n  jumpi\n    /* \"#utility.yul\":8790:8808   */\n  tag_163\n  tag_66\n  jump\t// in\ntag_163:\n    /* \"#utility.yul\":8707:8810   */\ntag_162:\n    /* \"#utility.yul\":8837:8838   */\n  0x01\n    /* \"#utility.yul\":8830:8835   */\n  dup3\n    /* \"#utility.yul\":8826:8839   */\n  add\n    /* \"#utility.yul\":8819:8839   */\n  swap1\n  pop\n    /* \"#utility.yul\":8612:8845   */\n  swap2\n  swap1\n  pop\n  jump\t// out\n    /* \"#utility.yul\":8851:9082   */\ntag_67:\n    /* \"#utility.yul\":8991:9025   */\n  0x5061796d656e7453706c69747465723a206163636f756e742069732074686520\n    /* \"#utility.yul\":8987:8988   */\n  0x00\n    /* \"#utility.yul\":8979:8985   */\n  dup3\n    /* \"#utility.yul\":8975:8989   */\n  add\n    /* \"#utility.yul\":8968:9026   */\n  mstore\n    /* \"#utility.yul\":9060:9074   */\n  0x7a65726f20616464726573730000000000000000000000000000000000000000\n    /* \"#utility.yul\":9055:9057   */\n  0x20\n    /* \"#utility.yul\":9047:9053   */\n  dup3\n    /* \"#utility.yul\":9043:9058   */\n  add\n    /* \"#utility.yul\":9036:9075   */\n  mstore\n    /* \"#utility.yul\":8851:9082   */\n  pop\n  jump\t// out\n    /* \"#utility.yul\":9088:9454   */\ntag_68:\n    /* \"#utility.yul\":9230:9233   */\n  0x00\n    /* \"#utility.yul\":9251:9318   */\n  tag_166\n    /* \"#utility.yul\":9315:9317   */\n  0x2c\n    /* \"#utility.yul\":9310:9313   */\n  dup4\n    /* \"#utility.yul\":9251:9318   */\n  tag_61\n  jump\t// in\ntag_166:\n    /* \"#utility.yul\":9244:9318   */\n  swap2\n  pop\n    /* \"#utility.yul\":9327:9420   */\n  tag_167\n    /* \"#utility.yul\":9416:9419   */\n  dup3\n    /* \"#utility.yul\":9327:9420   */\n  tag_67\n  jump\t// in\ntag_167:\n    /* \"#utility.yul\":9445:9447   */\n  0x40\n    /* \"#utility.yul\":9440:9443   */\n  dup3\n    /* \"#utility.yul\":9436:9448   */\n  add\n    /* \"#utility.yul\":9429:9448   */\n  swap1\n  pop\n    /* \"#utility.yul\":9088:9454   */\n  swap2\n  swap1\n  pop\n  jump\t// out\n    /* \"#utility.yul\":9460:9879   */\ntag_27:\n    /* \"#utility.yul\":9626:9630   */\n  0x00\n    /* \"#utility.yul\":9664:9666   */\n  0x20\n    /* \"#utility.yul\":9653:9662   */\n  dup3\n    /* \"#utility.yul\":9649:9667   */\n  add\n    /* \"#utility.yul\":9641:9667   */\n  swap1\n  pop\n    /* \"#utility.yul\":9713:9722   */\n  dup2\n    /* \"#utility.yul\":9707:9711   */\n  dup2\n    /* \"#utility.yul\":9703:9723   */\n  sub\n    /* \"#utility.yul\":9699:9700   */\n  0x00\n    /* \"#utility.yul\":9688:9697   */\n  dup4\n    /* \"#utility.yul\":9684:9701   */\n  add\n    /* \"#utility.yul\":9677:9724   */\n  mstore\n    /* \"#utility.yul\":9741:9872   */\n  tag_169\n    /* \"#utility.yul\":9867:9871   */\n  dup2\n    /* \"#utility.yul\":9741:9872   */\n  tag_68\n  jump\t// in\ntag_169:\n    /* \"#utility.yul\":9733:9872   */\n  swap1\n  pop\n    /* \"#utility.yul\":9460:9879   */\n  swap2\n  swap1\n  pop\n  jump\t// out\n    /* \"#utility.yul\":9885:10064   */\ntag_69:\n    /* \"#utility.yul\":10025:10056   */\n  0x5061796d656e7453706c69747465723a20736861726573206172652030000000\n    /* \"#utility.yul\":10021:10022   */\n  0x00\n    /* \"#utility.yul\":10013:10019   */\n  dup3\n    /* \"#utility.yul\":10009:10023   */\n  add\n    /* \"#utility.yul\":10002:10057   */\n  mstore\n    /* \"#utility.yul\":9885:10064   */\n  pop\n  jump\t// out\n    /* \"#utility.yul\":10070:10436   */\ntag_70:\n    /* \"#utility.yul\":10212:10215   */\n  0x00\n    /* \"#utility.yul\":10233:10300   */\n  tag_172\n    /* \"#utility.yul\":10297:10299   */\n  0x1d\n    /* \"#utility.yul\":10292:10295   */\n  dup4\n    /* \"#utility.yul\":10233:10300   */\n  tag_61\n  jump\t// in\ntag_172:\n    /* \"#utility.yul\":10226:10300   */\n  swap2\n  pop\n    /* \"#utility.yul\":10309:10402   */\n  tag_173\n    /* \"#utility.yul\":10398:10401   */\n  dup3\n    /* \"#utility.yul\":10309:10402   */\n  tag_69\n  jump\t// in\ntag_173:\n    /* \"#utility.yul\":10427:10429   */\n  0x20\n    /* \"#utility.yul\":10422:10425   */\n  dup3\n    /* \"#utility.yul\":10418:10430   */\n  add\n    /* \"#utility.yul\":10411:10430   */\n  swap1\n  pop\n    /* \"#utility.yul\":10070:10436   */\n  swap2\n  swap1\n  pop\n  jump\t// out\n    /* \"#utility.yul\":10442:10861   */\ntag_30:\n    /* \"#utility.yul\":10608:10612   */\n  0x00\n    /* \"#utility.yul\":10646:10648   */\n  0x20\n    /* \"#utility.yul\":10635:10644   */\n  dup3\n    /* \"#utility.yul\":10631:10649   */\n  add\n    /* \"#utility.yul\":10623:10649   */\n  swap1\n  pop\n    /* \"#utility.yul\":10695:10704   */\n  dup2\n    /* \"#utility.yul\":10689:10693   */\n  dup2\n    /* \"#utility.yul\":10685:10705   */\n  sub\n    /* \"#utility.yul\":10681:10682   */\n  0x00\n    /* \"#utility.yul\":10670:10679   */\n  dup4\n    /* \"#utility.yul\":10666:10683   */\n  add\n    /* \"#utility.yul\":10659:10706   */\n  mstore\n    /* \"#utility.yul\":10723:10854   */\n  tag_175\n    /* \"#utility.yul\":10849:10853   */\n  dup2\n    /* \"#utility.yul\":10723:10854   */\n  tag_70\n  jump\t// in\ntag_175:\n    /* \"#utility.yul\":10715:10854   */\n  swap1\n  pop\n    /* \"#utility.yul\":10442:10861   */\n  swap2\n  swap1\n  pop\n  jump\t// out\n    /* \"#utility.yul\":10867:11097   */\ntag_71:\n    /* \"#utility.yul\":11007:11041   */\n  0x5061796d656e7453706c69747465723a206163636f756e7420616c7265616479\n    /* \"#utility.yul\":11003:11004   */\n  0x00\n    /* \"#utility.yul\":10995:11001   */\n  dup3\n    /* \"#utility.yul\":10991:11005   */\n  add\n    /* \"#utility.yul\":10984:11042   */\n  mstore\n    /* \"#utility.yul\":11076:11089   */\n  0x2068617320736861726573000000000000000000000000000000000000000000\n    /* \"#utility.yul\":11071:11073   */\n  0x20\n    /* \"#utility.yul\":11063:11069   */\n  dup3\n    /* \"#utility.yul\":11059:11074   */\n  add\n    /* \"#utility.yul\":11052:11090   */\n  mstore\n    /* \"#utility.yul\":10867:11097   */\n  pop\n  jump\t// out\n    /* \"#utility.yul\":11103:11469   */\ntag_72:\n    /* \"#utility.yul\":11245:11248   */\n  0x00\n    /* \"#utility.yul\":11266:11333   */\n  tag_178\n    /* \"#utility.yul\":11330:11332   */\n  0x2b\n    /* \"#utility.yul\":11325:11328   */\n  dup4\n    /* \"#utility.yul\":11266:11333   */\n  tag_61\n  jump\t// in\ntag_178:\n    /* \"#utility.yul\":11259:11333   */\n  swap2\n  pop\n    /* \"#utility.yul\":11342:11435   */\n  tag_179\n    /* \"#utility.yul\":11431:11434   */\n  dup3\n    /* \"#utility.yul\":11342:11435   */\n  tag_71\n  jump\t// in\ntag_179:\n    /* \"#utility.yul\":11460:11462   */\n  0x40\n    /* \"#utility.yul\":11455:11458   */\n  dup3\n    /* \"#utility.yul\":11451:11463   */\n  add\n    /* \"#utility.yul\":11444:11463   */\n  swap1\n  pop\n    /* \"#utility.yul\":11103:11469   */\n  swap2\n  swap1\n  pop\n  jump\t// out\n    /* \"#utility.yul\":11475:11894   */\ntag_33:\n    /* \"#utility.yul\":11641:11645   */\n  0x00\n    /* \"#utility.yul\":11679:11681   */\n  0x20\n    /* \"#utility.yul\":11668:11677   */\n  dup3\n    /* \"#utility.yul\":11664:11682   */\n  add\n    /* \"#utility.yul\":11656:11682   */\n  swap1\n  pop\n    /* \"#utility.yul\":11728:11737   */\n  dup2\n    /* \"#utility.yul\":11722:11726   */\n  dup2\n    /* \"#utility.yul\":11718:11738   */\n  sub\n    /* \"#utility.yul\":11714:11715   */\n  0x00\n    /* \"#utility.yul\":11703:11712   */\n  dup4\n    /* \"#utility.yul\":11699:11716   */\n  add\n    /* \"#utility.yul\":11692:11739   */\n  mstore\n    /* \"#utility.yul\":11756:11887   */\n  tag_181\n    /* \"#utility.yul\":11882:11886   */\n  dup2\n    /* \"#utility.yul\":11756:11887   */\n  tag_72\n  jump\t// in\ntag_181:\n    /* \"#utility.yul\":11748:11887   */\n  swap1\n  pop\n    /* \"#utility.yul\":11475:11894   */\n  swap2\n  swap1\n  pop\n  jump\t// out\n    /* \"#utility.yul\":11900:12205   */\ntag_36:\n    /* \"#utility.yul\":11940:11943   */\n  0x00\n    /* \"#utility.yul\":11959:11979   */\n  tag_183\n    /* \"#utility.yul\":11977:11978   */\n  dup3\n    /* \"#utility.yul\":11959:11979   */\n  tag_56\n  jump\t// in\ntag_183:\n    /* \"#utility.yul\":11954:11979   */\n  swap2\n  pop\n    /* \"#utility.yul\":11993:12013   */\n  tag_184\n    /* \"#utility.yul\":12011:12012   */\n  dup4\n    /* \"#utility.yul\":11993:12013   */\n  tag_56\n  jump\t// in\ntag_184:\n    /* \"#utility.yul\":11988:12013   */\n  swap3\n  pop\n    /* \"#utility.yul\":12147:12148   */\n  dup3\n    /* \"#utility.yul\":12079:12145   */\n  0xffffffffffffffffffffffffffffffffffffffffffffffffffffffffffffffff\n    /* \"#utility.yul\":12075:12149   */\n  sub\n    /* \"#utility.yul\":12072:12073   */\n  dup3\n    /* \"#utility.yul\":12069:12150   */\n  gt\n    /* \"#utility.yul\":12066:12173   */\n  iszero\n  tag_185\n  jumpi\n    /* \"#utility.yul\":12153:12171   */\n  tag_186\n  tag_66\n  jump\t// in\ntag_186:\n    /* \"#utility.yul\":12066:12173   */\ntag_185:\n    /* \"#utility.yul\":12197:12198   */\n  dup3\n    /* \"#utility.yul\":12194:12195   */\n  dup3\n    /* \"#utility.yul\":12190:12199   */\n  add\n    /* \"#utility.yul\":12183:12199   */\n  swap1\n  pop\n    /* \"#utility.yul\":11900:12205   */\n  swap3\n  swap2\n  pop\n  pop\n  jump\t// out\n    /* \"#utility.yul\":12211:12329   */\ntag_73:\n    /* \"#utility.yul\":12298:12322   */\n  tag_188\n    /* \"#utility.yul\":12316:12321   */\n  dup2\n    /* \"#utility.yul\":12298:12322   */\n  tag_50\n  jump\t// in\ntag_188:\n    /* \"#utility.yul\":12293:12296   */\n  dup3\n    /* \"#utility.yul\":12286:12323   */\n  mstore\n    /* \"#utility.yul\":12211:12329   */\n  pop\n  pop\n  jump\t// out\n    /* \"#utility.yul\":12335:12453   */\ntag_74:\n    /* \"#utility.yul\":12422:12446   */\n  tag_190\n    /* \"#utility.yul\":12440:12445   */\n  dup2\n    /* \"#utility.yul\":12422:12446   */\n  tag_56\n  jump\t// in\ntag_190:\n    /* \"#utility.yul\":12417:12420   */\n  dup3\n    /* \"#utility.yul\":12410:12447   */\n  mstore\n    /* \"#utility.yul\":12335:12453   */\n  pop\n  pop\n  jump\t// out\n    /* \"#utility.yul\":12459:12791   */\ntag_38:\n    /* \"#utility.yul\":12580:12584   */\n  0x00\n    /* \"#utility.yul\":12618:12620   */\n  0x40\n    /* \"#utility.yul\":12607:12616   */\n  dup3\n    /* \"#utility.yul\":12603:12621   */\n  add\n    /* \"#utility.yul\":12595:12621   */\n  swap1\n  pop\n    /* \"#utility.yul\":12631:12702   */\n  tag_192\n    /* \"#utility.yul\":12699:12700   */\n  0x00\n    /* \"#utility.yul\":12688:12697   */\n  dup4\n    /* \"#utility.yul\":12684:12701   */\n  add\n    /* \"#utility.yul\":12675:12681   */\n  dup6\n    /* \"#utility.yul\":12631:12702   */\n  tag_73\n  jump\t// in\ntag_192:\n    /* \"#utility.yul\":12712:12784   */\n  tag_193\n    /* \"#utility.yul\":12780:12782   */\n  0x20\n    /* \"#utility.yul\":12769:12778   */\n  dup4\n    /* \"#utility.yul\":12765:12783   */\n  add\n    /* \"#utility.yul\":12756:12762   */\n  dup5\n    /* \"#utility.yul\":12712:12784   */\n  tag_74\n  jump\t// in\ntag_193:\n    /* \"#utility.yul\":12459:12791   */\n  swap4\n  swap3\n  pop\n  pop\n  pop\n  jump\t// out\n    /* \"https://github.com/OpenZeppelin/openzeppelin-contracts/blob/master/contracts/finance/PaymentSplitter.sol\":1471:8571  contract PaymentSplitter is Context {... */\ntag_23:\n  dataSize(sub_0)\n  dup1\n  dataOffset(sub_0)\n  0x00\n  codecopy\n  0x00\n  return\nstop\n\nsub_0: assembly {\n        /* \"https://github.com/OpenZeppelin/openzeppelin-contracts/blob/master/contracts/finance/PaymentSplitter.sol\":1471:8571  contract PaymentSplitter is Context {... */\n      mstore(0x40, 0x80)\n      jumpi(tag_1, lt(calldatasize, 0x04))\n      shr(0xe0, calldataload(0x00))\n      dup1\n      0x9852595c\n      gt\n      tag_14\n      jumpi\n      dup1\n      0x9852595c\n      eq\n      tag_8\n      jumpi\n      dup1\n      0xa3f8eace\n      eq\n      tag_9\n      jumpi\n      dup1\n      0xc45ac050\n      eq\n      tag_10\n      jumpi\n      dup1\n      0xce7c2ac2\n      eq\n      tag_11\n      jumpi\n      dup1\n      0xd79779b2\n      eq\n      tag_12\n      jumpi\n      dup1\n      0xe33b7de3\n      eq\n      tag_13\n      jumpi\n      jump(tag_2)\n    tag_14:\n      dup1\n      0x19165587\n      eq\n      tag_3\n      jumpi\n      dup1\n      0x3a98ef39\n      eq\n      tag_4\n      jumpi\n      dup1\n      0x406072a9\n      eq\n      tag_5\n      jumpi\n      dup1\n      0x48b75044\n      eq\n      tag_6\n      jumpi\n      dup1\n      0x8b83209b\n      eq\n      tag_7\n      jumpi\n      jump(tag_2)\n    tag_1:\n      jumpi(tag_2, calldatasize)\n        /* \"https://github.com/OpenZeppelin/openzeppelin-contracts/blob/master/contracts/finance/PaymentSplitter.sol\":3369:3409  PaymentReceived(_msgSender(), msg.value) */\n      0x6ef95f06320e7a25a04a175ca677b7052bdd97131872c2192525a629f51be770\n        /* \"https://github.com/OpenZeppelin/openzeppelin-contracts/blob/master/contracts/finance/PaymentSplitter.sol\":3385:3397  _msgSender() */\n      tag_17\n        /* \"https://github.com/OpenZeppelin/openzeppelin-contracts/blob/master/contracts/finance/PaymentSplitter.sol\":3385:3395  _msgSender */\n      tag_18\n        /* \"https://github.com/OpenZeppelin/openzeppelin-contracts/blob/master/contracts/finance/PaymentSplitter.sol\":3385:3397  _msgSender() */\n      jump\t// in\n    tag_17:\n        /* \"https://github.com/OpenZeppelin/openzeppelin-contracts/blob/master/contracts/finance/PaymentSplitter.sol\":3399:3408  msg.value */\n      callvalue\n        /* \"https://github.com/OpenZeppelin/openzeppelin-contracts/blob/master/contracts/finance/PaymentSplitter.sol\":3369:3409  PaymentReceived(_msgSender(), msg.value) */\n      mload(0x40)\n      tag_19\n      swap3\n      swap2\n      swap1\n      tag_20\n      jump\t// in\n    tag_19:\n      mload(0x40)\n      dup1\n      swap2\n      sub\n      swap1\n      log1\n        /* \"https://github.com/OpenZeppelin/openzeppelin-contracts/blob/master/contracts/finance/PaymentSplitter.sol\":1471:8571  contract PaymentSplitter is Context {... */\n      stop\n    tag_2:\n      0x00\n      dup1\n      revert\n        /* \"https://github.com/OpenZeppelin/openzeppelin-contracts/blob/master/contracts/finance/PaymentSplitter.sol\":5815:6470  function release(address payable account) public virtual {... */\n    tag_3:\n      callvalue\n      dup1\n      iszero\n      tag_21\n      jumpi\n      0x00\n      dup1\n      revert\n    tag_21:\n      pop\n      tag_22\n      0x04\n      dup1\n      calldatasize\n      sub\n      dup2\n      add\n      swap1\n      tag_23\n      swap2\n      swap1\n      tag_24\n      jump\t// in\n    tag_23:\n      tag_25\n      jump\t// in\n    tag_22:\n      stop\n        /* \"https://github.com/OpenZeppelin/openzeppelin-contracts/blob/master/contracts/finance/PaymentSplitter.sol\":3494:3583  function totalShares() public view returns (uint256) {... */\n    tag_4:\n      callvalue\n      dup1\n      iszero\n      tag_26\n      jumpi\n      0x00\n      dup1\n      revert\n    tag_26:\n      pop\n      tag_27\n      tag_28\n      jump\t// in\n    tag_27:\n      mload(0x40)\n      tag_29\n      swap2\n      swap1\n      tag_30\n      jump\t// in\n    tag_29:\n      mload(0x40)\n      dup1\n      swap2\n      sub\n      swap1\n      return\n        /* \"https://github.com/OpenZeppelin/openzeppelin-contracts/blob/master/contracts/finance/PaymentSplitter.sol\":4586:4719  function released(IERC20 token, address account) public view returns (uint256) {... */\n    tag_5:\n      callvalue\n      dup1\n      iszero\n      tag_31\n      jumpi\n      0x00\n      dup1\n      revert\n    tag_31:\n      pop\n      tag_32\n      0x04\n      dup1\n      calldatasize\n      sub\n      dup2\n      add\n      swap1\n      tag_33\n      swap2\n      swap1\n      tag_34\n      jump\t// in\n    tag_33:\n      tag_35\n      jump\t// in\n    tag_32:\n      mload(0x40)\n      tag_36\n      swap2\n      swap1\n      tag_30\n      jump\t// in\n    tag_36:\n      mload(0x40)\n      dup1\n      swap2\n      sub\n      swap1\n      return\n        /* \"https://github.com/OpenZeppelin/openzeppelin-contracts/blob/master/contracts/finance/PaymentSplitter.sol\":6731:7506  function release(IERC20 token, address account) public virtual {... */\n    tag_6:\n      callvalue\n      dup1\n      iszero\n      tag_37\n      jumpi\n      0x00\n      dup1\n      revert\n    tag_37:\n      pop\n      tag_38\n      0x04\n      dup1\n      calldatasize\n      sub\n      dup2\n      add\n      swap1\n      tag_39\n      swap2\n      swap1\n      tag_34\n      jump\t// in\n    tag_39:\n      tag_40\n      jump\t// in\n    tag_38:\n      stop\n        /* \"https://github.com/OpenZeppelin/openzeppelin-contracts/blob/master/contracts/finance/PaymentSplitter.sol\":4805:4903  function payee(uint256 index) public view returns (address) {... */\n    tag_7:\n      callvalue\n      dup1\n      iszero\n      tag_41\n      jumpi\n      0x00\n      dup1\n      revert\n    tag_41:\n      pop\n      tag_42\n      0x04\n      dup1\n      calldatasize\n      sub\n      dup2\n      add\n      swap1\n      tag_43\n      swap2\n      swap1\n      tag_44\n      jump\t// in\n    tag_43:\n      tag_45\n      jump\t// in\n    tag_42:\n      mload(0x40)\n      tag_46\n      swap2\n      swap1\n      tag_47\n      jump\t// in\n    tag_46:\n      mload(0x40)\n      dup1\n      swap2\n      sub\n      swap1\n      return\n        /* \"https://github.com/OpenZeppelin/openzeppelin-contracts/blob/master/contracts/finance/PaymentSplitter.sol\":4316:4423  function released(address account) public view returns (uint256) {... */\n    tag_8:\n      callvalue\n      dup1\n      iszero\n      tag_48\n      jumpi\n      0x00\n      dup1\n      revert\n    tag_48:\n      pop\n      tag_49\n      0x04\n      dup1\n      calldatasize\n      sub\n      dup2\n      add\n      swap1\n      tag_50\n      swap2\n      swap1\n      tag_51\n      jump\t// in\n    tag_50:\n      tag_52\n      jump\t// in\n    tag_49:\n      mload(0x40)\n      tag_53\n      swap2\n      swap1\n      tag_30\n      jump\t// in\n    tag_53:\n      mload(0x40)\n      dup1\n      swap2\n      sub\n      swap1\n      return\n        /* \"https://github.com/OpenZeppelin/openzeppelin-contracts/blob/master/contracts/finance/PaymentSplitter.sol\":4988:5210  function releasable(address account) public view returns (uint256) {... */\n    tag_9:\n      callvalue\n      dup1\n      iszero\n      tag_54\n      jumpi\n      0x00\n      dup1\n      revert\n    tag_54:\n      pop\n      tag_55\n      0x04\n      dup1\n      calldatasize\n      sub\n      dup2\n      add\n      swap1\n      tag_56\n      swap2\n      swap1\n      tag_51\n      jump\t// in\n    tag_56:\n      tag_57\n      jump\t// in\n    tag_55:\n      mload(0x40)\n      tag_58\n      swap2\n      swap1\n      tag_30\n      jump\t// in\n    tag_58:\n      mload(0x40)\n      dup1\n      swap2\n      sub\n      swap1\n      return\n        /* \"https://github.com/OpenZeppelin/openzeppelin-contracts/blob/master/contracts/finance/PaymentSplitter.sol\":5364:5621  function releasable(IERC20 token, address account) public view returns (uint256) {... */\n    tag_10:\n      callvalue\n      dup1\n      iszero\n      tag_59\n      jumpi\n      0x00\n      dup1\n      revert\n    tag_59:\n      pop\n      tag_60\n      0x04\n      dup1\n      calldatasize\n      sub\n      dup2\n      add\n      swap1\n      tag_61\n      swap2\n      swap1\n      tag_34\n      jump\t// in\n    tag_61:\n      tag_62\n      jump\t// in\n    tag_60:\n      mload(0x40)\n      tag_63\n      swap2\n      swap1\n      tag_30\n      jump\t// in\n    tag_63:\n      mload(0x40)\n      dup1\n      swap2\n      sub\n      swap1\n      return\n        /* \"https://github.com/OpenZeppelin/openzeppelin-contracts/blob/master/contracts/finance/PaymentSplitter.sol\":4119:4222  function shares(address account) public view returns (uint256) {... */\n    tag_11:\n      callvalue\n      dup1\n      iszero\n      tag_64\n      jumpi\n      0x00\n      dup1\n      revert\n    tag_64:\n      pop\n      tag_65\n      0x04\n      dup1\n      calldatasize\n      sub\n      dup2\n      add\n      swap1\n      tag_66\n      swap2\n      swap1\n      tag_51\n      jump\t// in\n    tag_66:\n      tag_67\n      jump\t// in\n    tag_65:\n      mload(0x40)\n      tag_68\n      swap2\n      swap1\n      tag_30\n      jump\t// in\n    tag_68:\n      mload(0x40)\n      dup1\n      swap2\n      sub\n      swap1\n      return\n        /* \"https://github.com/OpenZeppelin/openzeppelin-contracts/blob/master/contracts/finance/PaymentSplitter.sol\":3916:4033  function totalReleased(IERC20 token) public view returns (uint256) {... */\n    tag_12:\n      callvalue\n      dup1\n      iszero\n      tag_69\n      jumpi\n      0x00\n      dup1\n      revert\n    tag_69:\n      pop\n      tag_70\n      0x04\n      dup1\n      calldatasize\n      sub\n      dup2\n      add\n      swap1\n      tag_71\n      swap2\n      swap1\n      tag_72\n      jump\t// in\n    tag_71:\n      tag_73\n      jump\t// in\n    tag_70:\n      mload(0x40)\n      tag_74\n      swap2\n      swap1\n      tag_30\n      jump\t// in\n    tag_74:\n      mload(0x40)\n      dup1\n      swap2\n      sub\n      swap1\n      return\n        /* \"https://github.com/OpenZeppelin/openzeppelin-contracts/blob/master/contracts/finance/PaymentSplitter.sol\":3672:3765  function totalReleased() public view returns (uint256) {... */\n    tag_13:\n      callvalue\n      dup1\n      iszero\n      tag_75\n      jumpi\n      0x00\n      dup1\n      revert\n    tag_75:\n      pop\n      tag_76\n      tag_77\n      jump\t// in\n    tag_76:\n      mload(0x40)\n      tag_78\n      swap2\n      swap1\n      tag_30\n      jump\t// in\n    tag_78:\n      mload(0x40)\n      dup1\n      swap2\n      sub\n      swap1\n      return\n        /* \"https://github.com/OpenZeppelin/openzeppelin-contracts/blob/master/contracts/utils/Context.sol\":640:736  function _msgSender() internal view virtual returns (address) {... */\n    tag_18:\n        /* \"https://github.com/OpenZeppelin/openzeppelin-contracts/blob/master/contracts/utils/Context.sol\":693:700  address */\n      0x00\n        /* \"https://github.com/OpenZeppelin/openzeppelin-contracts/blob/master/contracts/utils/Context.sol\":719:729  msg.sender */\n      caller\n        /* \"https://github.com/OpenZeppelin/openzeppelin-contracts/blob/master/contracts/utils/Context.sol\":712:729  return msg.sender */\n      swap1\n      pop\n        /* \"https://github.com/OpenZeppelin/openzeppelin-contracts/blob/master/contracts/utils/Context.sol\":640:736  function _msgSender() internal view virtual returns (address) {... */\n      swap1\n      jump\t// out\n        /* \"https://github.com/OpenZeppelin/openzeppelin-contracts/blob/master/contracts/finance/PaymentSplitter.sol\":5815:6470  function release(address payable account) public virtual {... */\n    tag_25:\n        /* \"https://github.com/OpenZeppelin/openzeppelin-contracts/blob/master/contracts/finance/PaymentSplitter.sol\":5909:5910  0 */\n      0x00\n        /* \"https://github.com/OpenZeppelin/openzeppelin-contracts/blob/master/contracts/finance/PaymentSplitter.sol\":5890:5897  _shares */\n      0x02\n        /* \"https://github.com/OpenZeppelin/openzeppelin-contracts/blob/master/contracts/finance/PaymentSplitter.sol\":5890:5906  _shares[account] */\n      0x00\n        /* \"https://github.com/OpenZeppelin/openzeppelin-contracts/blob/master/contracts/finance/PaymentSplitter.sol\":5898:5905  account */\n      dup4\n        /* \"https://github.com/OpenZeppelin/openzeppelin-contracts/blob/master/contracts/finance/PaymentSplitter.sol\":5890:5906  _shares[account] */\n      0xffffffffffffffffffffffffffffffffffffffff\n      and\n      0xffffffffffffffffffffffffffffffffffffffff\n      and\n      dup2\n      mstore\n      0x20\n      add\n      swap1\n      dup2\n      mstore\n      0x20\n      add\n      0x00\n      keccak256\n      sload\n        /* \"https://github.com/OpenZeppelin/openzeppelin-contracts/blob/master/contracts/finance/PaymentSplitter.sol\":5890:5910  _shares[account] > 0 */\n      gt\n        /* \"https://github.com/OpenZeppelin/openzeppelin-contracts/blob/master/contracts/finance/PaymentSplitter.sol\":5882:5953  require(_shares[account] > 0, \"PaymentSplitter: account has no shares\") */\n      tag_81\n      jumpi\n      mload(0x40)\n      0x08c379a000000000000000000000000000000000000000000000000000000000\n      dup2\n      mstore\n      0x04\n      add\n      tag_82\n      swap1\n      tag_83\n      jump\t// in\n    tag_82:\n      mload(0x40)\n      dup1\n      swap2\n      sub\n      swap1\n      revert\n    tag_81:\n        /* \"https://github.com/OpenZeppelin/openzeppelin-contracts/blob/master/contracts/finance/PaymentSplitter.sol\":5964:5979  uint256 payment */\n      0x00\n        /* \"https://github.com/OpenZeppelin/openzeppelin-contracts/blob/master/contracts/finance/PaymentSplitter.sol\":5982:6001  releasable(account) */\n      tag_84\n        /* \"https://github.com/OpenZeppelin/openzeppelin-contracts/blob/master/contracts/finance/PaymentSplitter.sol\":5993:6000  account */\n      dup3\n        /* \"https://github.com/OpenZeppelin/openzeppelin-contracts/blob/master/contracts/finance/PaymentSplitter.sol\":5982:5992  releasable */\n      tag_57\n        /* \"https://github.com/OpenZeppelin/openzeppelin-contracts/blob/master/contracts/finance/PaymentSplitter.sol\":5982:6001  releasable(account) */\n      jump\t// in\n    tag_84:\n        /* \"https://github.com/OpenZeppelin/openzeppelin-contracts/blob/master/contracts/finance/PaymentSplitter.sol\":5964:6001  uint256 payment = releasable(account) */\n      swap1\n      pop\n        /* \"https://github.com/OpenZeppelin/openzeppelin-contracts/blob/master/contracts/finance/PaymentSplitter.sol\":6031:6032  0 */\n      0x00\n        /* \"https://github.com/OpenZeppelin/openzeppelin-contracts/blob/master/contracts/finance/PaymentSplitter.sol\":6020:6027  payment */\n      dup2\n        /* \"https://github.com/OpenZeppelin/openzeppelin-contracts/blob/master/contracts/finance/PaymentSplitter.sol\":6020:6032  payment != 0 */\n      sub\n        /* \"https://github.com/OpenZeppelin/openzeppelin-contracts/blob/master/contracts/finance/PaymentSplitter.sol\":6012:6080  require(payment != 0, \"PaymentSplitter: account is not due payment\") */\n      tag_85\n      jumpi\n      mload(0x40)\n      0x08c379a000000000000000000000000000000000000000000000000000000000\n      dup2\n      mstore\n      0x04\n      add\n      tag_86\n      swap1\n      tag_87\n      jump\t// in\n    tag_86:\n      mload(0x40)\n      dup1\n      swap2\n      sub\n      swap1\n      revert\n    tag_85:\n        /* \"https://github.com/OpenZeppelin/openzeppelin-contracts/blob/master/contracts/finance/PaymentSplitter.sol\":6289:6296  payment */\n      dup1\n        /* \"https://github.com/OpenZeppelin/openzeppelin-contracts/blob/master/contracts/finance/PaymentSplitter.sol\":6271:6285  _totalReleased */\n      0x01\n      0x00\n        /* \"https://github.com/OpenZeppelin/openzeppelin-contracts/blob/master/contracts/finance/PaymentSplitter.sol\":6271:6296  _totalReleased += payment */\n      dup3\n      dup3\n      sload\n      tag_88\n      swap2\n      swap1\n      tag_89\n      jump\t// in\n    tag_88:\n      swap3\n      pop\n      pop\n      dup2\n      swap1\n      sstore\n      pop\n        /* \"https://github.com/OpenZeppelin/openzeppelin-contracts/blob/master/contracts/finance/PaymentSplitter.sol\":6352:6359  payment */\n      dup1\n        /* \"https://github.com/OpenZeppelin/openzeppelin-contracts/blob/master/contracts/finance/PaymentSplitter.sol\":6330:6339  _released */\n      0x03\n        /* \"https://github.com/OpenZeppelin/openzeppelin-contracts/blob/master/contracts/finance/PaymentSplitter.sol\":6330:6348  _released[account] */\n      0x00\n        /* \"https://github.com/OpenZeppelin/openzeppelin-contracts/blob/master/contracts/finance/PaymentSplitter.sol\":6340:6347  account */\n      dup5\n        /* \"https://github.com/OpenZeppelin/openzeppelin-contracts/blob/master/contracts/finance/PaymentSplitter.sol\":6330:6348  _released[account] */\n      0xffffffffffffffffffffffffffffffffffffffff\n      and\n      0xffffffffffffffffffffffffffffffffffffffff\n      and\n      dup2\n      mstore\n      0x20\n      add\n      swap1\n      dup2\n      mstore\n      0x20\n      add\n      0x00\n      keccak256\n      0x00\n        /* \"https://github.com/OpenZeppelin/openzeppelin-contracts/blob/master/contracts/finance/PaymentSplitter.sol\":6330:6359  _released[account] += payment */\n      dup3\n      dup3\n      sload\n      add\n      swap3\n      pop\n      pop\n      dup2\n      swap1\n      sstore\n      pop\n        /* \"https://github.com/OpenZeppelin/openzeppelin-contracts/blob/master/contracts/finance/PaymentSplitter.sol\":6380:6415  Address.sendValue(account, payment) */\n      tag_90\n        /* \"https://github.com/OpenZeppelin/openzeppelin-contracts/blob/master/contracts/finance/PaymentSplitter.sol\":6398:6405  account */\n      dup3\n        /* \"https://github.com/OpenZeppelin/openzeppelin-contracts/blob/master/contracts/finance/PaymentSplitter.sol\":6407:6414  payment */\n      dup3\n        /* \"https://github.com/OpenZeppelin/openzeppelin-contracts/blob/master/contracts/finance/PaymentSplitter.sol\":6380:6397  Address.sendValue */\n      tag_91\n        /* \"https://github.com/OpenZeppelin/openzeppelin-contracts/blob/master/contracts/finance/PaymentSplitter.sol\":6380:6415  Address.sendValue(account, payment) */\n      jump\t// in\n    tag_90:\n        /* \"https://github.com/OpenZeppelin/openzeppelin-contracts/blob/master/contracts/finance/PaymentSplitter.sol\":6430:6463  PaymentReleased(account, payment) */\n      0xdf20fd1e76bc69d672e4814fafb2c449bba3a5369d8359adf9e05e6fde87b056\n        /* \"https://github.com/OpenZeppelin/openzeppelin-contracts/blob/master/contracts/finance/PaymentSplitter.sol\":6446:6453  account */\n      dup3\n        /* \"https://github.com/OpenZeppelin/openzeppelin-contracts/blob/master/contracts/finance/PaymentSplitter.sol\":6455:6462  payment */\n      dup3\n        /* \"https://github.com/OpenZeppelin/openzeppelin-contracts/blob/master/contracts/finance/PaymentSplitter.sol\":6430:6463  PaymentReleased(account, payment) */\n      mload(0x40)\n      tag_92\n      swap3\n      swap2\n      swap1\n      tag_93\n      jump\t// in\n    tag_92:\n      mload(0x40)\n      dup1\n      swap2\n      sub\n      swap1\n      log1\n        /* \"https://github.com/OpenZeppelin/openzeppelin-contracts/blob/master/contracts/finance/PaymentSplitter.sol\":5872:6470  {... */\n      pop\n        /* \"https://github.com/OpenZeppelin/openzeppelin-contracts/blob/master/contracts/finance/PaymentSplitter.sol\":5815:6470  function release(address payable account) public virtual {... */\n      pop\n      jump\t// out\n        /* \"https://github.com/OpenZeppelin/openzeppelin-contracts/blob/master/contracts/finance/PaymentSplitter.sol\":3494:3583  function totalShares() public view returns (uint256) {... */\n    tag_28:\n        /* \"https://github.com/OpenZeppelin/openzeppelin-contracts/blob/master/contracts/finance/PaymentSplitter.sol\":3538:3545  uint256 */\n      0x00\n        /* \"https://github.com/OpenZeppelin/openzeppelin-contracts/blob/master/contracts/finance/PaymentSplitter.sol\":3564:3576  _totalShares */\n      dup1\n      sload\n        /* \"https://github.com/OpenZeppelin/openzeppelin-contracts/blob/master/contracts/finance/PaymentSplitter.sol\":3557:3576  return _totalShares */\n      swap1\n      pop\n        /* \"https://github.com/OpenZeppelin/openzeppelin-contracts/blob/master/contracts/finance/PaymentSplitter.sol\":3494:3583  function totalShares() public view returns (uint256) {... */\n      swap1\n      jump\t// out\n        /* \"https://github.com/OpenZeppelin/openzeppelin-contracts/blob/master/contracts/finance/PaymentSplitter.sol\":4586:4719  function released(IERC20 token, address account) public view returns (uint256) {... */\n    tag_35:\n        /* \"https://github.com/OpenZeppelin/openzeppelin-contracts/blob/master/contracts/finance/PaymentSplitter.sol\":4656:4663  uint256 */\n      0x00\n        /* \"https://github.com/OpenZeppelin/openzeppelin-contracts/blob/master/contracts/finance/PaymentSplitter.sol\":4682:4696  _erc20Released */\n      0x06\n        /* \"https://github.com/OpenZeppelin/openzeppelin-contracts/blob/master/contracts/finance/PaymentSplitter.sol\":4682:4703  _erc20Released[token] */\n      0x00\n        /* \"https://github.com/OpenZeppelin/openzeppelin-contracts/blob/master/contracts/finance/PaymentSplitter.sol\":4697:4702  token */\n      dup5\n        /* \"https://github.com/OpenZeppelin/openzeppelin-contracts/blob/master/contracts/finance/PaymentSplitter.sol\":4682:4703  _erc20Released[token] */\n      0xffffffffffffffffffffffffffffffffffffffff\n      and\n      0xffffffffffffffffffffffffffffffffffffffff\n      and\n      dup2\n      mstore\n      0x20\n      add\n      swap1\n      dup2\n      mstore\n      0x20\n      add\n      0x00\n      keccak256\n        /* \"https://github.com/OpenZeppelin/openzeppelin-contracts/blob/master/contracts/finance/PaymentSplitter.sol\":4682:4712  _erc20Released[token][account] */\n      0x00\n        /* \"https://github.com/OpenZeppelin/openzeppelin-contracts/blob/master/contracts/finance/PaymentSplitter.sol\":4704:4711  account */\n      dup4\n        /* \"https://github.com/OpenZeppelin/openzeppelin-contracts/blob/master/contracts/finance/PaymentSplitter.sol\":4682:4712  _erc20Released[token][account] */\n      0xffffffffffffffffffffffffffffffffffffffff\n      and\n      0xffffffffffffffffffffffffffffffffffffffff\n      and\n      dup2\n      mstore\n      0x20\n      add\n      swap1\n      dup2\n      mstore\n      0x20\n      add\n      0x00\n      keccak256\n      sload\n        /* \"https://github.com/OpenZeppelin/openzeppelin-contracts/blob/master/contracts/finance/PaymentSplitter.sol\":4675:4712  return _erc20Released[token][account] */\n      swap1\n      pop\n        /* \"https://github.com/OpenZeppelin/openzeppelin-contracts/blob/master/contracts/finance/PaymentSplitter.sol\":4586:4719  function released(IERC20 token, address account) public view returns (uint256) {... */\n      swap3\n      swap2\n      pop\n      pop\n      jump\t// out\n        /* \"https://github.com/OpenZeppelin/openzeppelin-contracts/blob/master/contracts/finance/PaymentSplitter.sol\":6731:7506  function release(IERC20 token, address account) public virtual {... */\n    tag_40:\n        /* \"https://github.com/OpenZeppelin/openzeppelin-contracts/blob/master/contracts/finance/PaymentSplitter.sol\":6831:6832  0 */\n      0x00\n        /* \"https://github.com/OpenZeppelin/openzeppelin-contracts/blob/master/contracts/finance/PaymentSplitter.sol\":6812:6819  _shares */\n      0x02\n        /* \"https://github.com/OpenZeppelin/openzeppelin-contracts/blob/master/contracts/finance/PaymentSplitter.sol\":6812:6828  _shares[account] */\n      0x00\n        /* \"https://github.com/OpenZeppelin/openzeppelin-contracts/blob/master/contracts/finance/PaymentSplitter.sol\":6820:6827  account */\n      dup4\n        /* \"https://github.com/OpenZeppelin/openzeppelin-contracts/blob/master/contracts/finance/PaymentSplitter.sol\":6812:6828  _shares[account] */\n      0xffffffffffffffffffffffffffffffffffffffff\n      and\n      0xffffffffffffffffffffffffffffffffffffffff\n      and\n      dup2\n      mstore\n      0x20\n      add\n      swap1\n      dup2\n      mstore\n      0x20\n      add\n      0x00\n      keccak256\n      sload\n        /* \"https://github.com/OpenZeppelin/openzeppelin-contracts/blob/master/contracts/finance/PaymentSplitter.sol\":6812:6832  _shares[account] > 0 */\n      gt\n        /* \"https://github.com/OpenZeppelin/openzeppelin-contracts/blob/master/contracts/finance/PaymentSplitter.sol\":6804:6875  require(_shares[account] > 0, \"PaymentSplitter: account has no shares\") */\n      tag_97\n      jumpi\n      mload(0x40)\n      0x08c379a000000000000000000000000000000000000000000000000000000000\n      dup2\n      mstore\n      0x04\n      add\n      tag_98\n      swap1\n      tag_83\n      jump\t// in\n    tag_98:\n      mload(0x40)\n      dup1\n      swap2\n      sub\n      swap1\n      revert\n    tag_97:\n        /* \"https://github.com/OpenZeppelin/openzeppelin-contracts/blob/master/contracts/finance/PaymentSplitter.sol\":6886:6901  uint256 payment */\n      0x00\n        /* \"https://github.com/OpenZeppelin/openzeppelin-contracts/blob/master/contracts/finance/PaymentSplitter.sol\":6904:6930  releasable(token, account) */\n      tag_99\n        /* \"https://github.com/OpenZeppelin/openzeppelin-contracts/blob/master/contracts/finance/PaymentSplitter.sol\":6915:6920  token */\n      dup4\n        /* \"https://github.com/OpenZeppelin/openzeppelin-contracts/blob/master/contracts/finance/PaymentSplitter.sol\":6922:6929  account */\n      dup4\n        /* \"https://github.com/OpenZeppelin/openzeppelin-contracts/blob/master/contracts/finance/PaymentSplitter.sol\":6904:6914  releasable */\n      tag_62\n        /* \"https://github.com/OpenZeppelin/openzeppelin-contracts/blob/master/contracts/finance/PaymentSplitter.sol\":6904:6930  releasable(token, account) */\n      jump\t// in\n    tag_99:\n        /* \"https://github.com/OpenZeppelin/openzeppelin-contracts/blob/master/contracts/finance/PaymentSplitter.sol\":6886:6930  uint256 payment = releasable(token, account) */\n      swap1\n      pop\n        /* \"https://github.com/OpenZeppelin/openzeppelin-contracts/blob/master/contracts/finance/PaymentSplitter.sol\":6960:6961  0 */\n      0x00\n        /* \"https://github.com/OpenZeppelin/openzeppelin-contracts/blob/master/contracts/finance/PaymentSplitter.sol\":6949:6956  payment */\n      dup2\n        /* \"https://github.com/OpenZeppelin/openzeppelin-contracts/blob/master/contracts/finance/PaymentSplitter.sol\":6949:6961  payment != 0 */\n      sub\n        /* \"https://github.com/OpenZeppelin/openzeppelin-contracts/blob/master/contracts/finance/PaymentSplitter.sol\":6941:7009  require(payment != 0, \"PaymentSplitter: account is not due payment\") */\n      tag_100\n      jumpi\n      mload(0x40)\n      0x08c379a000000000000000000000000000000000000000000000000000000000\n      dup2\n      mstore\n      0x04\n      add\n      tag_101\n      swap1\n      tag_87\n      jump\t// in\n    tag_101:\n      mload(0x40)\n      dup1\n      swap2\n      sub\n      swap1\n      revert\n    tag_100:\n        /* \"https://github.com/OpenZeppelin/openzeppelin-contracts/blob/master/contracts/finance/PaymentSplitter.sol\":7289:7296  payment */\n      dup1\n        /* \"https://github.com/OpenZeppelin/openzeppelin-contracts/blob/master/contracts/finance/PaymentSplitter.sol\":7259:7278  _erc20TotalReleased */\n      0x05\n        /* \"https://github.com/OpenZeppelin/openzeppelin-contracts/blob/master/contracts/finance/PaymentSplitter.sol\":7259:7285  _erc20TotalReleased[token] */\n      0x00\n        /* \"https://github.com/OpenZeppelin/openzeppelin-contracts/blob/master/contracts/finance/PaymentSplitter.sol\":7279:7284  token */\n      dup6\n        /* \"https://github.com/OpenZeppelin/openzeppelin-contracts/blob/master/contracts/finance/PaymentSplitter.sol\":7259:7285  _erc20TotalReleased[token] */\n      0xffffffffffffffffffffffffffffffffffffffff\n      and\n      0xffffffffffffffffffffffffffffffffffffffff\n      and\n      dup2\n      mstore\n      0x20\n      add\n      swap1\n      dup2\n      mstore\n      0x20\n      add\n      0x00\n      keccak256\n      0x00\n        /* \"https://github.com/OpenZeppelin/openzeppelin-contracts/blob/master/contracts/finance/PaymentSplitter.sol\":7259:7296  _erc20TotalReleased[token] += payment */\n      dup3\n      dup3\n      sload\n      tag_102\n      swap2\n      swap1\n      tag_89\n      jump\t// in\n    tag_102:\n      swap3\n      pop\n      pop\n      dup2\n      swap1\n      sstore\n      pop\n        /* \"https://github.com/OpenZeppelin/openzeppelin-contracts/blob/master/contracts/finance/PaymentSplitter.sol\":7364:7371  payment */\n      dup1\n        /* \"https://github.com/OpenZeppelin/openzeppelin-contracts/blob/master/contracts/finance/PaymentSplitter.sol\":7330:7344  _erc20Released */\n      0x06\n        /* \"https://github.com/OpenZeppelin/openzeppelin-contracts/blob/master/contracts/finance/PaymentSplitter.sol\":7330:7351  _erc20Released[token] */\n      0x00\n        /* \"https://github.com/OpenZeppelin/openzeppelin-contracts/blob/master/contracts/finance/PaymentSplitter.sol\":7345:7350  token */\n      dup6\n        /* \"https://github.com/OpenZeppelin/openzeppelin-contracts/blob/master/contracts/finance/PaymentSplitter.sol\":7330:7351  _erc20Released[token] */\n      0xffffffffffffffffffffffffffffffffffffffff\n      and\n      0xffffffffffffffffffffffffffffffffffffffff\n      and\n      dup2\n      mstore\n      0x20\n      add\n      swap1\n      dup2\n      mstore\n      0x20\n      add\n      0x00\n      keccak256\n        /* \"https://github.com/OpenZeppelin/openzeppelin-contracts/blob/master/contracts/finance/PaymentSplitter.sol\":7330:7360  _erc20Released[token][account] */\n      0x00\n        /* \"https://github.com/OpenZeppelin/openzeppelin-contracts/blob/master/contracts/finance/PaymentSplitter.sol\":7352:7359  account */\n      dup5\n        /* \"https://github.com/OpenZeppelin/openzeppelin-contracts/blob/master/contracts/finance/PaymentSplitter.sol\":7330:7360  _erc20Released[token][account] */\n      0xffffffffffffffffffffffffffffffffffffffff\n      and\n      0xffffffffffffffffffffffffffffffffffffffff\n      and\n      dup2\n      mstore\n      0x20\n      add\n      swap1\n      dup2\n      mstore\n      0x20\n      add\n      0x00\n      keccak256\n      0x00\n        /* \"https://github.com/OpenZeppelin/openzeppelin-contracts/blob/master/contracts/finance/PaymentSplitter.sol\":7330:7371  _erc20Released[token][account] += payment */\n      dup3\n      dup3\n      sload\n      add\n      swap3\n      pop\n      pop\n      dup2\n      swap1\n      sstore\n      pop\n        /* \"https://github.com/OpenZeppelin/openzeppelin-contracts/blob/master/contracts/finance/PaymentSplitter.sol\":7392:7439  SafeERC20.safeTransfer(token, account, payment) */\n      tag_103\n        /* \"https://github.com/OpenZeppelin/openzeppelin-contracts/blob/master/contracts/finance/PaymentSplitter.sol\":7415:7420  token */\n      dup4\n        /* \"https://github.com/OpenZeppelin/openzeppelin-contracts/blob/master/contracts/finance/PaymentSplitter.sol\":7422:7429  account */\n      dup4\n        /* \"https://github.com/OpenZeppelin/openzeppelin-contracts/blob/master/contracts/finance/PaymentSplitter.sol\":7431:7438  payment */\n      dup4\n        /* \"https://github.com/OpenZeppelin/openzeppelin-contracts/blob/master/contracts/finance/PaymentSplitter.sol\":7392:7414  SafeERC20.safeTransfer */\n      tag_104\n        /* \"https://github.com/OpenZeppelin/openzeppelin-contracts/blob/master/contracts/finance/PaymentSplitter.sol\":7392:7439  SafeERC20.safeTransfer(token, account, payment) */\n      jump\t// in\n    tag_103:\n        /* \"https://github.com/OpenZeppelin/openzeppelin-contracts/blob/master/contracts/finance/PaymentSplitter.sol\":7475:7480  token */\n      dup3\n        /* \"https://github.com/OpenZeppelin/openzeppelin-contracts/blob/master/contracts/finance/PaymentSplitter.sol\":7454:7499  ERC20PaymentReleased(token, account, payment) */\n      0xffffffffffffffffffffffffffffffffffffffff\n      and\n      0x3be5b7a71e84ed12875d241991c70855ac5817d847039e17a9d895c1ceb0f18a\n        /* \"https://github.com/OpenZeppelin/openzeppelin-contracts/blob/master/contracts/finance/PaymentSplitter.sol\":7482:7489  account */\n      dup4\n        /* \"https://github.com/OpenZeppelin/openzeppelin-contracts/blob/master/contracts/finance/PaymentSplitter.sol\":7491:7498  payment */\n      dup4\n        /* \"https://github.com/OpenZeppelin/openzeppelin-contracts/blob/master/contracts/finance/PaymentSplitter.sol\":7454:7499  ERC20PaymentReleased(token, account, payment) */\n      mload(0x40)\n      tag_105\n      swap3\n      swap2\n      swap1\n      tag_20\n      jump\t// in\n    tag_105:\n      mload(0x40)\n      dup1\n      swap2\n      sub\n      swap1\n      log2\n        /* \"https://github.com/OpenZeppelin/openzeppelin-contracts/blob/master/contracts/finance/PaymentSplitter.sol\":6794:7506  {... */\n      pop\n        /* \"https://github.com/OpenZeppelin/openzeppelin-contracts/blob/master/contracts/finance/PaymentSplitter.sol\":6731:7506  function release(IERC20 token, address account) public virtual {... */\n      pop\n      pop\n      jump\t// out\n        /* \"https://github.com/OpenZeppelin/openzeppelin-contracts/blob/master/contracts/finance/PaymentSplitter.sol\":4805:4903  function payee(uint256 index) public view returns (address) {... */\n    tag_45:\n        /* \"https://github.com/OpenZeppelin/openzeppelin-contracts/blob/master/contracts/finance/PaymentSplitter.sol\":4856:4863  address */\n      0x00\n        /* \"https://github.com/OpenZeppelin/openzeppelin-contracts/blob/master/contracts/finance/PaymentSplitter.sol\":4882:4889  _payees */\n      0x04\n        /* \"https://github.com/OpenZeppelin/openzeppelin-contracts/blob/master/contracts/finance/PaymentSplitter.sol\":4890:4895  index */\n      dup3\n        /* \"https://github.com/OpenZeppelin/openzeppelin-contracts/blob/master/contracts/finance/PaymentSplitter.sol\":4882:4896  _payees[index] */\n      dup2\n      sload\n      dup2\n      lt\n      tag_107\n      jumpi\n      tag_108\n      tag_109\n      jump\t// in\n    tag_108:\n    tag_107:\n      swap1\n      0x00\n      mstore\n      keccak256(0x00, 0x20)\n      add\n      0x00\n      swap1\n      sload\n      swap1\n      0x0100\n      exp\n      swap1\n      div\n      0xffffffffffffffffffffffffffffffffffffffff\n      and\n        /* \"https://github.com/OpenZeppelin/openzeppelin-contracts/blob/master/contracts/finance/PaymentSplitter.sol\":4875:4896  return _payees[index] */\n      swap1\n      pop\n        /* \"https://github.com/OpenZeppelin/openzeppelin-contracts/blob/master/contracts/finance/PaymentSplitter.sol\":4805:4903  function payee(uint256 index) public view returns (address) {... */\n      swap2\n      swap1\n      pop\n      jump\t// out\n        /* \"https://github.com/OpenZeppelin/openzeppelin-contracts/blob/master/contracts/finance/PaymentSplitter.sol\":4316:4423  function released(address account) public view returns (uint256) {... */\n    tag_52:\n        /* \"https://github.com/OpenZeppelin/openzeppelin-contracts/blob/master/contracts/finance/PaymentSplitter.sol\":4372:4379  uint256 */\n      0x00\n        /* \"https://github.com/OpenZeppelin/openzeppelin-contracts/blob/master/contracts/finance/PaymentSplitter.sol\":4398:4407  _released */\n      0x03\n        /* \"https://github.com/OpenZeppelin/openzeppelin-contracts/blob/master/contracts/finance/PaymentSplitter.sol\":4398:4416  _released[account] */\n      0x00\n        /* \"https://github.com/OpenZeppelin/openzeppelin-contracts/blob/master/contracts/finance/PaymentSplitter.sol\":4408:4415  account */\n      dup4\n        /* \"https://github.com/OpenZeppelin/openzeppelin-contracts/blob/master/contracts/finance/PaymentSplitter.sol\":4398:4416  _released[account] */\n      0xffffffffffffffffffffffffffffffffffffffff\n      and\n      0xffffffffffffffffffffffffffffffffffffffff\n      and\n      dup2\n      mstore\n      0x20\n      add\n      swap1\n      dup2\n      mstore\n      0x20\n      add\n      0x00\n      keccak256\n      sload\n        /* \"https://github.com/OpenZeppelin/openzeppelin-contracts/blob/master/contracts/finance/PaymentSplitter.sol\":4391:4416  return _released[account] */\n      swap1\n      pop\n        /* \"https://github.com/OpenZeppelin/openzeppelin-contracts/blob/master/contracts/finance/PaymentSplitter.sol\":4316:4423  function released(address account) public view returns (uint256) {... */\n      swap2\n      swap1\n      pop\n      jump\t// out\n        /* \"https://github.com/OpenZeppelin/openzeppelin-contracts/blob/master/contracts/finance/PaymentSplitter.sol\":4988:5210  function releasable(address account) public view returns (uint256) {... */\n    tag_57:\n        /* \"https://github.com/OpenZeppelin/openzeppelin-contracts/blob/master/contracts/finance/PaymentSplitter.sol\":5046:5053  uint256 */\n      0x00\n        /* \"https://github.com/OpenZeppelin/openzeppelin-contracts/blob/master/contracts/finance/PaymentSplitter.sol\":5065:5086  uint256 totalReceived */\n      dup1\n        /* \"https://github.com/OpenZeppelin/openzeppelin-contracts/blob/master/contracts/finance/PaymentSplitter.sol\":5113:5128  totalReleased() */\n      tag_113\n        /* \"https://github.com/OpenZeppelin/openzeppelin-contracts/blob/master/contracts/finance/PaymentSplitter.sol\":5113:5126  totalReleased */\n      tag_77\n        /* \"https://github.com/OpenZeppelin/openzeppelin-contracts/blob/master/contracts/finance/PaymentSplitter.sol\":5113:5128  totalReleased() */\n      jump\t// in\n    tag_113:\n        /* \"https://github.com/OpenZeppelin/openzeppelin-contracts/blob/master/contracts/finance/PaymentSplitter.sol\":5089:5110  address(this).balance */\n      selfbalance\n        /* \"https://github.com/OpenZeppelin/openzeppelin-contracts/blob/master/contracts/finance/PaymentSplitter.sol\":5089:5128  address(this).balance + totalReleased() */\n      tag_114\n      swap2\n      swap1\n      tag_89\n      jump\t// in\n    tag_114:\n        /* \"https://github.com/OpenZeppelin/openzeppelin-contracts/blob/master/contracts/finance/PaymentSplitter.sol\":5065:5128  uint256 totalReceived = address(this).balance + totalReleased() */\n      swap1\n      pop\n        /* \"https://github.com/OpenZeppelin/openzeppelin-contracts/blob/master/contracts/finance/PaymentSplitter.sol\":5145:5203  _pendingPayment(account, totalReceived, released(account)) */\n      tag_115\n        /* \"https://github.com/OpenZeppelin/openzeppelin-contracts/blob/master/contracts/finance/PaymentSplitter.sol\":5161:5168  account */\n      dup4\n        /* \"https://github.com/OpenZeppelin/openzeppelin-contracts/blob/master/contracts/finance/PaymentSplitter.sol\":5170:5183  totalReceived */\n      dup3\n        /* \"https://github.com/OpenZeppelin/openzeppelin-contracts/blob/master/contracts/finance/PaymentSplitter.sol\":5185:5202  released(account) */\n      tag_116\n        /* \"https://github.com/OpenZeppelin/openzeppelin-contracts/blob/master/contracts/finance/PaymentSplitter.sol\":5194:5201  account */\n      dup7\n        /* \"https://github.com/OpenZeppelin/openzeppelin-contracts/blob/master/contracts/finance/PaymentSplitter.sol\":5185:5193  released */\n      tag_52\n        /* \"https://github.com/OpenZeppelin/openzeppelin-contracts/blob/master/contracts/finance/PaymentSplitter.sol\":5185:5202  released(account) */\n      jump\t// in\n    tag_116:\n        /* \"https://github.com/OpenZeppelin/openzeppelin-contracts/blob/master/contracts/finance/PaymentSplitter.sol\":5145:5160  _pendingPayment */\n      tag_117\n        /* \"https://github.com/OpenZeppelin/openzeppelin-contracts/blob/master/contracts/finance/PaymentSplitter.sol\":5145:5203  _pendingPayment(account, totalReceived, released(account)) */\n      jump\t// in\n    tag_115:\n        /* \"https://github.com/OpenZeppelin/openzeppelin-contracts/blob/master/contracts/finance/PaymentSplitter.sol\":5138:5203  return _pendingPayment(account, totalReceived, released(account)) */\n      swap2\n      pop\n      pop\n        /* \"https://github.com/OpenZeppelin/openzeppelin-contracts/blob/master/contracts/finance/PaymentSplitter.sol\":4988:5210  function releasable(address account) public view returns (uint256) {... */\n      swap2\n      swap1\n      pop\n      jump\t// out\n        /* \"https://github.com/OpenZeppelin/openzeppelin-contracts/blob/master/contracts/finance/PaymentSplitter.sol\":5364:5621  function releasable(IERC20 token, address account) public view returns (uint256) {... */\n    tag_62:\n        /* \"https://github.com/OpenZeppelin/openzeppelin-contracts/blob/master/contracts/finance/PaymentSplitter.sol\":5436:5443  uint256 */\n      0x00\n        /* \"https://github.com/OpenZeppelin/openzeppelin-contracts/blob/master/contracts/finance/PaymentSplitter.sol\":5455:5476  uint256 totalReceived */\n      dup1\n        /* \"https://github.com/OpenZeppelin/openzeppelin-contracts/blob/master/contracts/finance/PaymentSplitter.sol\":5512:5532  totalReleased(token) */\n      tag_119\n        /* \"https://github.com/OpenZeppelin/openzeppelin-contracts/blob/master/contracts/finance/PaymentSplitter.sol\":5526:5531  token */\n      dup5\n        /* \"https://github.com/OpenZeppelin/openzeppelin-contracts/blob/master/contracts/finance/PaymentSplitter.sol\":5512:5525  totalReleased */\n      tag_73\n        /* \"https://github.com/OpenZeppelin/openzeppelin-contracts/blob/master/contracts/finance/PaymentSplitter.sol\":5512:5532  totalReleased(token) */\n      jump\t// in\n    tag_119:\n        /* \"https://github.com/OpenZeppelin/openzeppelin-contracts/blob/master/contracts/finance/PaymentSplitter.sol\":5479:5484  token */\n      dup5\n        /* \"https://github.com/OpenZeppelin/openzeppelin-contracts/blob/master/contracts/finance/PaymentSplitter.sol\":5479:5494  token.balanceOf */\n      0xffffffffffffffffffffffffffffffffffffffff\n      and\n      0x70a08231\n        /* \"https://github.com/OpenZeppelin/openzeppelin-contracts/blob/master/contracts/finance/PaymentSplitter.sol\":5503:5507  this */\n      address\n        /* \"https://github.com/OpenZeppelin/openzeppelin-contracts/blob/master/contracts/finance/PaymentSplitter.sol\":5479:5509  token.balanceOf(address(this)) */\n      mload(0x40)\n      dup3\n      0xffffffff\n      and\n      0xe0\n      shl\n      dup2\n      mstore\n      0x04\n      add\n      tag_120\n      swap2\n      swap1\n      tag_47\n      jump\t// in\n    tag_120:\n      0x20\n      mload(0x40)\n      dup1\n      dup4\n      sub\n      dup2\n      dup7\n      gas\n      staticcall\n      iszero\n      dup1\n      iszero\n      tag_122\n      jumpi\n      returndatasize\n      0x00\n      dup1\n      returndatacopy\n      revert(0x00, returndatasize)\n    tag_122:\n      pop\n      pop\n      pop\n      pop\n      mload(0x40)\n      returndatasize\n      not(0x1f)\n      0x1f\n      dup3\n      add\n      and\n      dup3\n      add\n      dup1\n      0x40\n      mstore\n      pop\n      dup2\n      add\n      swap1\n      tag_123\n      swap2\n      swap1\n      tag_124\n      jump\t// in\n    tag_123:\n        /* \"https://github.com/OpenZeppelin/openzeppelin-contracts/blob/master/contracts/finance/PaymentSplitter.sol\":5479:5532  token.balanceOf(address(this)) + totalReleased(token) */\n      tag_125\n      swap2\n      swap1\n      tag_89\n      jump\t// in\n    tag_125:\n        /* \"https://github.com/OpenZeppelin/openzeppelin-contracts/blob/master/contracts/finance/PaymentSplitter.sol\":5455:5532  uint256 totalReceived = token.balanceOf(address(this)) + totalReleased(token) */\n      swap1\n      pop\n        /* \"https://github.com/OpenZeppelin/openzeppelin-contracts/blob/master/contracts/finance/PaymentSplitter.sol\":5549:5614  _pendingPayment(account, totalReceived, released(token, account)) */\n      tag_126\n        /* \"https://github.com/OpenZeppelin/openzeppelin-contracts/blob/master/contracts/finance/PaymentSplitter.sol\":5565:5572  account */\n      dup4\n        /* \"https://github.com/OpenZeppelin/openzeppelin-contracts/blob/master/contracts/finance/PaymentSplitter.sol\":5574:5587  totalReceived */\n      dup3\n        /* \"https://github.com/OpenZeppelin/openzeppelin-contracts/blob/master/contracts/finance/PaymentSplitter.sol\":5589:5613  released(token, account) */\n      tag_127\n        /* \"https://github.com/OpenZeppelin/openzeppelin-contracts/blob/master/contracts/finance/PaymentSplitter.sol\":5598:5603  token */\n      dup8\n        /* \"https://github.com/OpenZeppelin/openzeppelin-contracts/blob/master/contracts/finance/PaymentSplitter.sol\":5605:5612  account */\n      dup8\n        /* \"https://github.com/OpenZeppelin/openzeppelin-contracts/blob/master/contracts/finance/PaymentSplitter.sol\":5589:5597  released */\n      tag_35\n        /* \"https://github.com/OpenZeppelin/openzeppelin-contracts/blob/master/contracts/finance/PaymentSplitter.sol\":5589:5613  released(token, account) */\n      jump\t// in\n    tag_127:\n        /* \"https://github.com/OpenZeppelin/openzeppelin-contracts/blob/master/contracts/finance/PaymentSplitter.sol\":5549:5564  _pendingPayment */\n      tag_117\n        /* \"https://github.com/OpenZeppelin/openzeppelin-contracts/blob/master/contracts/finance/PaymentSplitter.sol\":5549:5614  _pendingPayment(account, totalReceived, released(token, account)) */\n      jump\t// in\n    tag_126:\n        /* \"https://github.com/OpenZeppelin/openzeppelin-contracts/blob/master/contracts/finance/PaymentSplitter.sol\":5542:5614  return _pendingPayment(account, totalReceived, released(token, account)) */\n      swap2\n      pop\n      pop\n        /* \"https://github.com/OpenZeppelin/openzeppelin-contracts/blob/master/contracts/finance/PaymentSplitter.sol\":5364:5621  function releasable(IERC20 token, address account) public view returns (uint256) {... */\n      swap3\n      swap2\n      pop\n      pop\n      jump\t// out\n        /* \"https://github.com/OpenZeppelin/openzeppelin-contracts/blob/master/contracts/finance/PaymentSplitter.sol\":4119:4222  function shares(address account) public view returns (uint256) {... */\n    tag_67:\n        /* \"https://github.com/OpenZeppelin/openzeppelin-contracts/blob/master/contracts/finance/PaymentSplitter.sol\":4173:4180  uint256 */\n      0x00\n        /* \"https://github.com/OpenZeppelin/openzeppelin-contracts/blob/master/contracts/finance/PaymentSplitter.sol\":4199:4206  _shares */\n      0x02\n        /* \"https://github.com/OpenZeppelin/openzeppelin-contracts/blob/master/contracts/finance/PaymentSplitter.sol\":4199:4215  _shares[account] */\n      0x00\n        /* \"https://github.com/OpenZeppelin/openzeppelin-contracts/blob/master/contracts/finance/PaymentSplitter.sol\":4207:4214  account */\n      dup4\n        /* \"https://github.com/OpenZeppelin/openzeppelin-contracts/blob/master/contracts/finance/PaymentSplitter.sol\":4199:4215  _shares[account] */\n      0xffffffffffffffffffffffffffffffffffffffff\n      and\n      0xffffffffffffffffffffffffffffffffffffffff\n      and\n      dup2\n      mstore\n      0x20\n      add\n      swap1\n      dup2\n      mstore\n      0x20\n      add\n      0x00\n      keccak256\n      sload\n        /* \"https://github.com/OpenZeppelin/openzeppelin-contracts/blob/master/contracts/finance/PaymentSplitter.sol\":4192:4215  return _shares[account] */\n      swap1\n      pop\n        /* \"https://github.com/OpenZeppelin/openzeppelin-contracts/blob/master/contracts/finance/PaymentSplitter.sol\":4119:4222  function shares(address account) public view returns (uint256) {... */\n      swap2\n      swap1\n      pop\n      jump\t// out\n        /* \"https://github.com/OpenZeppelin/openzeppelin-contracts/blob/master/contracts/finance/PaymentSplitter.sol\":3916:4033  function totalReleased(IERC20 token) public view returns (uint256) {... */\n    tag_73:\n        /* \"https://github.com/OpenZeppelin/openzeppelin-contracts/blob/master/contracts/finance/PaymentSplitter.sol\":3974:3981  uint256 */\n      0x00\n        /* \"https://github.com/OpenZeppelin/openzeppelin-contracts/blob/master/contracts/finance/PaymentSplitter.sol\":4000:4019  _erc20TotalReleased */\n      0x05\n        /* \"https://github.com/OpenZeppelin/openzeppelin-contracts/blob/master/contracts/finance/PaymentSplitter.sol\":4000:4026  _erc20TotalReleased[token] */\n      0x00\n        /* \"https://github.com/OpenZeppelin/openzeppelin-contracts/blob/master/contracts/finance/PaymentSplitter.sol\":4020:4025  token */\n      dup4\n        /* \"https://github.com/OpenZeppelin/openzeppelin-contracts/blob/master/contracts/finance/PaymentSplitter.sol\":4000:4026  _erc20TotalReleased[token] */\n      0xffffffffffffffffffffffffffffffffffffffff\n      and\n      0xffffffffffffffffffffffffffffffffffffffff\n      and\n      dup2\n      mstore\n      0x20\n      add\n      swap1\n      dup2\n      mstore\n      0x20\n      add\n      0x00\n      keccak256\n      sload\n        /* \"https://github.com/OpenZeppelin/openzeppelin-contracts/blob/master/contracts/finance/PaymentSplitter.sol\":3993:4026  return _erc20TotalReleased[token] */\n      swap1\n      pop\n        /* \"https://github.com/OpenZeppelin/openzeppelin-contracts/blob/master/contracts/finance/PaymentSplitter.sol\":3916:4033  function totalReleased(IERC20 token) public view returns (uint256) {... */\n      swap2\n      swap1\n      pop\n      jump\t// out\n        /* \"https://github.com/OpenZeppelin/openzeppelin-contracts/blob/master/contracts/finance/PaymentSplitter.sol\":3672:3765  function totalReleased() public view returns (uint256) {... */\n    tag_77:\n        /* \"https://github.com/OpenZeppelin/openzeppelin-contracts/blob/master/contracts/finance/PaymentSplitter.sol\":3718:3725  uint256 */\n      0x00\n        /* \"https://github.com/OpenZeppelin/openzeppelin-contracts/blob/master/contracts/finance/PaymentSplitter.sol\":3744:3758  _totalReleased */\n      sload(0x01)\n        /* \"https://github.com/OpenZeppelin/openzeppelin-contracts/blob/master/contracts/finance/PaymentSplitter.sol\":3737:3758  return _totalReleased */\n      swap1\n      pop\n        /* \"https://github.com/OpenZeppelin/openzeppelin-contracts/blob/master/contracts/finance/PaymentSplitter.sol\":3672:3765  function totalReleased() public view returns (uint256) {... */\n      swap1\n      jump\t// out\n        /* \"https://github.com/OpenZeppelin/openzeppelin-contracts/blob/master/contracts/utils/Address.sol\":2411:2723  function sendValue(address payable recipient, uint256 amount) internal {... */\n    tag_91:\n        /* \"https://github.com/OpenZeppelin/openzeppelin-contracts/blob/master/contracts/utils/Address.sol\":2525:2531  amount */\n      dup1\n        /* \"https://github.com/OpenZeppelin/openzeppelin-contracts/blob/master/contracts/utils/Address.sol\":2500:2521  address(this).balance */\n      selfbalance\n        /* \"https://github.com/OpenZeppelin/openzeppelin-contracts/blob/master/contracts/utils/Address.sol\":2500:2531  address(this).balance >= amount */\n      lt\n      iszero\n        /* \"https://github.com/OpenZeppelin/openzeppelin-contracts/blob/master/contracts/utils/Address.sol\":2492:2565  require(address(this).balance >= amount, \"Address: insufficient balance\") */\n      tag_132\n      jumpi\n      mload(0x40)\n      0x08c379a000000000000000000000000000000000000000000000000000000000\n      dup2\n      mstore\n      0x04\n      add\n      tag_133\n      swap1\n      tag_134\n      jump\t// in\n    tag_133:\n      mload(0x40)\n      dup1\n      swap2\n      sub\n      swap1\n      revert\n    tag_132:\n        /* \"https://github.com/OpenZeppelin/openzeppelin-contracts/blob/master/contracts/utils/Address.sol\":2577:2589  bool success */\n      0x00\n        /* \"https://github.com/OpenZeppelin/openzeppelin-contracts/blob/master/contracts/utils/Address.sol\":2595:2604  recipient */\n      dup3\n        /* \"https://github.com/OpenZeppelin/openzeppelin-contracts/blob/master/contracts/utils/Address.sol\":2595:2609  recipient.call */\n      0xffffffffffffffffffffffffffffffffffffffff\n      and\n        /* \"https://github.com/OpenZeppelin/openzeppelin-contracts/blob/master/contracts/utils/Address.sol\":2617:2623  amount */\n      dup3\n        /* \"https://github.com/OpenZeppelin/openzeppelin-contracts/blob/master/contracts/utils/Address.sol\":2595:2628  recipient.call{value: amount}(\"\") */\n      mload(0x40)\n      tag_135\n      swap1\n      tag_136\n      jump\t// in\n    tag_135:\n      0x00\n      mload(0x40)\n      dup1\n      dup4\n      sub\n      dup2\n      dup6\n      dup8\n      gas\n      call\n      swap3\n      pop\n      pop\n      pop\n      returndatasize\n      dup1\n      0x00\n      dup2\n      eq\n      tag_139\n      jumpi\n      mload(0x40)\n      swap2\n      pop\n      and(add(returndatasize, 0x3f), not(0x1f))\n      dup3\n      add\n      0x40\n      mstore\n      returndatasize\n      dup3\n      mstore\n      returndatasize\n      0x00\n      0x20\n      dup5\n      add\n      returndatacopy\n      jump(tag_138)\n    tag_139:\n      0x60\n      swap2\n      pop\n    tag_138:\n      pop\n        /* \"https://github.com/OpenZeppelin/openzeppelin-contracts/blob/master/contracts/utils/Address.sol\":2576:2628  (bool success, ) = recipient.call{value: amount}(\"\") */\n      pop\n      swap1\n      pop\n        /* \"https://github.com/OpenZeppelin/openzeppelin-contracts/blob/master/contracts/utils/Address.sol\":2646:2653  success */\n      dup1\n        /* \"https://github.com/OpenZeppelin/openzeppelin-contracts/blob/master/contracts/utils/Address.sol\":2638:2716  require(success, \"Address: unable to send value, recipient may have reverted\") */\n      tag_140\n      jumpi\n      mload(0x40)\n      0x08c379a000000000000000000000000000000000000000000000000000000000\n      dup2\n      mstore\n      0x04\n      add\n      tag_141\n      swap1\n      tag_142\n      jump\t// in\n    tag_141:\n      mload(0x40)\n      dup1\n      swap2\n      sub\n      swap1\n      revert\n    tag_140:\n        /* \"https://github.com/OpenZeppelin/openzeppelin-contracts/blob/master/contracts/utils/Address.sol\":2482:2723  {... */\n      pop\n        /* \"https://github.com/OpenZeppelin/openzeppelin-contracts/blob/master/contracts/utils/Address.sol\":2411:2723  function sendValue(address payable recipient, uint256 amount) internal {... */\n      pop\n      pop\n      jump\t// out\n        /* \"https://github.com/OpenZeppelin/openzeppelin-contracts/blob/master/contracts/token/ERC20/utils/SafeERC20.sol\":757:962  function safeTransfer(... */\n    tag_104:\n        /* \"https://github.com/OpenZeppelin/openzeppelin-contracts/blob/master/contracts/token/ERC20/utils/SafeERC20.sol\":869:955  _callOptionalReturn(token, abi.encodeWithSelector(token.transfer.selector, to, value)) */\n      tag_144\n        /* \"https://github.com/OpenZeppelin/openzeppelin-contracts/blob/master/contracts/token/ERC20/utils/SafeERC20.sol\":889:894  token */\n      dup4\n        /* \"https://github.com/OpenZeppelin/openzeppelin-contracts/blob/master/contracts/token/ERC20/utils/SafeERC20.sol\":919:942  token.transfer.selector */\n      shl(0xe0, 0xa9059cbb)\n        /* \"https://github.com/OpenZeppelin/openzeppelin-contracts/blob/master/contracts/token/ERC20/utils/SafeERC20.sol\":944:946  to */\n      dup5\n        /* \"https://github.com/OpenZeppelin/openzeppelin-contracts/blob/master/contracts/token/ERC20/utils/SafeERC20.sol\":948:953  value */\n      dup5\n        /* \"https://github.com/OpenZeppelin/openzeppelin-contracts/blob/master/contracts/token/ERC20/utils/SafeERC20.sol\":896:954  abi.encodeWithSelector(token.transfer.selector, to, value) */\n      add(0x24, mload(0x40))\n      tag_145\n      swap3\n      swap2\n      swap1\n      tag_20\n      jump\t// in\n    tag_145:\n      mload(0x40)\n      0x20\n      dup2\n      dup4\n      sub\n      sub\n      dup2\n      mstore\n      swap1\n      0x40\n      mstore\n      swap1\n      not(0xffffffffffffffffffffffffffffffffffffffffffffffffffffffff)\n      and\n      0x20\n      dup3\n      add\n      dup1\n      mload\n      0xffffffffffffffffffffffffffffffffffffffffffffffffffffffff\n      dup4\n      dup2\n      dup4\n      and\n      or\n      dup4\n      mstore\n      pop\n      pop\n      pop\n      pop\n        /* \"https://github.com/OpenZeppelin/openzeppelin-contracts/blob/master/contracts/token/ERC20/utils/SafeERC20.sol\":869:888  _callOptionalReturn */\n      tag_146\n        /* \"https://github.com/OpenZeppelin/openzeppelin-contracts/blob/master/contracts/token/ERC20/utils/SafeERC20.sol\":869:955  _callOptionalReturn(token, abi.encodeWithSelector(token.transfer.selector, to, value)) */\n      jump\t// in\n    tag_144:\n        /* \"https://github.com/OpenZeppelin/openzeppelin-contracts/blob/master/contracts/token/ERC20/utils/SafeERC20.sol\":757:962  function safeTransfer(... */\n      pop\n      pop\n      pop\n      jump\t// out\n        /* \"https://github.com/OpenZeppelin/openzeppelin-contracts/blob/master/contracts/finance/PaymentSplitter.sol\":7678:7920  function _pendingPayment(... */\n    tag_117:\n        /* \"https://github.com/OpenZeppelin/openzeppelin-contracts/blob/master/contracts/finance/PaymentSplitter.sol\":7820:7827  uint256 */\n      0x00\n        /* \"https://github.com/OpenZeppelin/openzeppelin-contracts/blob/master/contracts/finance/PaymentSplitter.sol\":7898:7913  alreadyReleased */\n      dup2\n        /* \"https://github.com/OpenZeppelin/openzeppelin-contracts/blob/master/contracts/finance/PaymentSplitter.sol\":7883:7895  _totalShares */\n      sload(0x00)\n        /* \"https://github.com/OpenZeppelin/openzeppelin-contracts/blob/master/contracts/finance/PaymentSplitter.sol\":7863:7870  _shares */\n      0x02\n        /* \"https://github.com/OpenZeppelin/openzeppelin-contracts/blob/master/contracts/finance/PaymentSplitter.sol\":7863:7879  _shares[account] */\n      0x00\n        /* \"https://github.com/OpenZeppelin/openzeppelin-contracts/blob/master/contracts/finance/PaymentSplitter.sol\":7871:7878  account */\n      dup8\n        /* \"https://github.com/OpenZeppelin/openzeppelin-contracts/blob/master/contracts/finance/PaymentSplitter.sol\":7863:7879  _shares[account] */\n      0xffffffffffffffffffffffffffffffffffffffff\n      and\n      0xffffffffffffffffffffffffffffffffffffffff\n      and\n      dup2\n      mstore\n      0x20\n      add\n      swap1\n      dup2\n      mstore\n      0x20\n      add\n      0x00\n      keccak256\n      sload\n        /* \"https://github.com/OpenZeppelin/openzeppelin-contracts/blob/master/contracts/finance/PaymentSplitter.sol\":7847:7860  totalReceived */\n      dup6\n        /* \"https://github.com/OpenZeppelin/openzeppelin-contracts/blob/master/contracts/finance/PaymentSplitter.sol\":7847:7879  totalReceived * _shares[account] */\n      tag_148\n      swap2\n      swap1\n      tag_149\n      jump\t// in\n    tag_148:\n        /* \"https://github.com/OpenZeppelin/openzeppelin-contracts/blob/master/contracts/finance/PaymentSplitter.sol\":7846:7895  (totalReceived * _shares[account]) / _totalShares */\n      tag_150\n      swap2\n      swap1\n      tag_151\n      jump\t// in\n    tag_150:\n        /* \"https://github.com/OpenZeppelin/openzeppelin-contracts/blob/master/contracts/finance/PaymentSplitter.sol\":7846:7913  (totalReceived * _shares[account]) / _totalShares - alreadyReleased */\n      tag_152\n      swap2\n      swap1\n      tag_153\n      jump\t// in\n    tag_152:\n        /* \"https://github.com/OpenZeppelin/openzeppelin-contracts/blob/master/contracts/finance/PaymentSplitter.sol\":7839:7913  return (totalReceived * _shares[account]) / _totalShares - alreadyReleased */\n      swap1\n      pop\n        /* \"https://github.com/OpenZeppelin/openzeppelin-contracts/blob/master/contracts/finance/PaymentSplitter.sol\":7678:7920  function _pendingPayment(... */\n      swap4\n      swap3\n      pop\n      pop\n      pop\n      jump\t// out\n        /* \"https://github.com/OpenZeppelin/openzeppelin-contracts/blob/master/contracts/token/ERC20/utils/SafeERC20.sol\":3741:4447  function _callOptionalReturn(IERC20 token, bytes memory data) private {... */\n    tag_146:\n        /* \"https://github.com/OpenZeppelin/openzeppelin-contracts/blob/master/contracts/token/ERC20/utils/SafeERC20.sol\":4160:4183  bytes memory returndata */\n      0x00\n        /* \"https://github.com/OpenZeppelin/openzeppelin-contracts/blob/master/contracts/token/ERC20/utils/SafeERC20.sol\":4186:4255  address(token).functionCall(data, \"SafeERC20: low-level call failed\") */\n      tag_155\n        /* \"https://github.com/OpenZeppelin/openzeppelin-contracts/blob/master/contracts/token/ERC20/utils/SafeERC20.sol\":4214:4218  data */\n      dup3\n        /* \"https://github.com/OpenZeppelin/openzeppelin-contracts/blob/master/contracts/token/ERC20/utils/SafeERC20.sol\":4186:4255  address(token).functionCall(data, \"SafeERC20: low-level call failed\") */\n      mload(0x40)\n      dup1\n      0x40\n      add\n      0x40\n      mstore\n      dup1\n      0x20\n      dup2\n      mstore\n      0x20\n      add\n      0x5361666545524332303a206c6f772d6c6576656c2063616c6c206661696c6564\n      dup2\n      mstore\n      pop\n        /* \"https://github.com/OpenZeppelin/openzeppelin-contracts/blob/master/contracts/token/ERC20/utils/SafeERC20.sol\":4194:4199  token */\n      dup6\n        /* \"https://github.com/OpenZeppelin/openzeppelin-contracts/blob/master/contracts/token/ERC20/utils/SafeERC20.sol\":4186:4213  address(token).functionCall */\n      0xffffffffffffffffffffffffffffffffffffffff\n      and\n      tag_156\n      swap1\n        /* \"https://github.com/OpenZeppelin/openzeppelin-contracts/blob/master/contracts/token/ERC20/utils/SafeERC20.sol\":4186:4255  address(token).functionCall(data, \"SafeERC20: low-level call failed\") */\n      swap3\n      swap2\n      swap1\n      0xffffffff\n      and\n      jump\t// in\n    tag_155:\n        /* \"https://github.com/OpenZeppelin/openzeppelin-contracts/blob/master/contracts/token/ERC20/utils/SafeERC20.sol\":4160:4255  bytes memory returndata = address(token).functionCall(data, \"SafeERC20: low-level call failed\") */\n      swap1\n      pop\n        /* \"https://github.com/OpenZeppelin/openzeppelin-contracts/blob/master/contracts/token/ERC20/utils/SafeERC20.sol\":4289:4290  0 */\n      0x00\n        /* \"https://github.com/OpenZeppelin/openzeppelin-contracts/blob/master/contracts/token/ERC20/utils/SafeERC20.sol\":4269:4279  returndata */\n      dup2\n        /* \"https://github.com/OpenZeppelin/openzeppelin-contracts/blob/master/contracts/token/ERC20/utils/SafeERC20.sol\":4269:4286  returndata.length */\n      mload\n        /* \"https://github.com/OpenZeppelin/openzeppelin-contracts/blob/master/contracts/token/ERC20/utils/SafeERC20.sol\":4269:4290  returndata.length > 0 */\n      gt\n        /* \"https://github.com/OpenZeppelin/openzeppelin-contracts/blob/master/contracts/token/ERC20/utils/SafeERC20.sol\":4265:4441  if (returndata.length > 0) {... */\n      iszero\n      tag_157\n      jumpi\n        /* \"https://github.com/OpenZeppelin/openzeppelin-contracts/blob/master/contracts/token/ERC20/utils/SafeERC20.sol\":4364:4374  returndata */\n      dup1\n        /* \"https://github.com/OpenZeppelin/openzeppelin-contracts/blob/master/contracts/token/ERC20/utils/SafeERC20.sol\":4353:4383  abi.decode(returndata, (bool)) */\n      dup1\n      0x20\n      add\n      swap1\n      mload\n      dup2\n      add\n      swap1\n      tag_158\n      swap2\n      swap1\n      tag_159\n      jump\t// in\n    tag_158:\n        /* \"https://github.com/OpenZeppelin/openzeppelin-contracts/blob/master/contracts/token/ERC20/utils/SafeERC20.sol\":4345:4430  require(abi.decode(returndata, (bool)), \"SafeERC20: ERC20 operation did not succeed\") */\n      tag_160\n      jumpi\n      mload(0x40)\n      0x08c379a000000000000000000000000000000000000000000000000000000000\n      dup2\n      mstore\n      0x04\n      add\n      tag_161\n      swap1\n      tag_162\n      jump\t// in\n    tag_161:\n      mload(0x40)\n      dup1\n      swap2\n      sub\n      swap1\n      revert\n    tag_160:\n        /* \"https://github.com/OpenZeppelin/openzeppelin-contracts/blob/master/contracts/token/ERC20/utils/SafeERC20.sol\":4265:4441  if (returndata.length > 0) {... */\n    tag_157:\n        /* \"https://github.com/OpenZeppelin/openzeppelin-contracts/blob/master/contracts/token/ERC20/utils/SafeERC20.sol\":3811:4447  {... */\n      pop\n        /* \"https://github.com/OpenZeppelin/openzeppelin-contracts/blob/master/contracts/token/ERC20/utils/SafeERC20.sol\":3741:4447  function _callOptionalReturn(IERC20 token, bytes memory data) private {... */\n      pop\n      pop\n      jump\t// out\n        /* \"https://github.com/OpenZeppelin/openzeppelin-contracts/blob/master/contracts/utils/Address.sol\":3872:4095  function functionCall(... */\n    tag_156:\n        /* \"https://github.com/OpenZeppelin/openzeppelin-contracts/blob/master/contracts/utils/Address.sol\":4005:4017  bytes memory */\n      0x60\n        /* \"https://github.com/OpenZeppelin/openzeppelin-contracts/blob/master/contracts/utils/Address.sol\":4036:4088  functionCallWithValue(target, data, 0, errorMessage) */\n      tag_164\n        /* \"https://github.com/OpenZeppelin/openzeppelin-contracts/blob/master/contracts/utils/Address.sol\":4058:4064  target */\n      dup5\n        /* \"https://github.com/OpenZeppelin/openzeppelin-contracts/blob/master/contracts/utils/Address.sol\":4066:4070  data */\n      dup5\n        /* \"https://github.com/OpenZeppelin/openzeppelin-contracts/blob/master/contracts/utils/Address.sol\":4072:4073  0 */\n      0x00\n        /* \"https://github.com/OpenZeppelin/openzeppelin-contracts/blob/master/contracts/utils/Address.sol\":4075:4087  errorMessage */\n      dup6\n        /* \"https://github.com/OpenZeppelin/openzeppelin-contracts/blob/master/contracts/utils/Address.sol\":4036:4057  functionCallWithValue */\n      tag_165\n        /* \"https://github.com/OpenZeppelin/openzeppelin-contracts/blob/master/contracts/utils/Address.sol\":4036:4088  functionCallWithValue(target, data, 0, errorMessage) */\n      jump\t// in\n    tag_164:\n        /* \"https://github.com/OpenZeppelin/openzeppelin-contracts/blob/master/contracts/utils/Address.sol\":4029:4088  return functionCallWithValue(target, data, 0, errorMessage) */\n      swap1\n      pop\n        /* \"https://github.com/OpenZeppelin/openzeppelin-contracts/blob/master/contracts/utils/Address.sol\":3872:4095  function functionCall(... */\n      swap4\n      swap3\n      pop\n      pop\n      pop\n      jump\t// out\n        /* \"https://github.com/OpenZeppelin/openzeppelin-contracts/blob/master/contracts/utils/Address.sol\":4959:5405  function functionCallWithValue(... */\n    tag_165:\n        /* \"https://github.com/OpenZeppelin/openzeppelin-contracts/blob/master/contracts/utils/Address.sol\":5124:5136  bytes memory */\n      0x60\n        /* \"https://github.com/OpenZeppelin/openzeppelin-contracts/blob/master/contracts/utils/Address.sol\":5181:5186  value */\n      dup3\n        /* \"https://github.com/OpenZeppelin/openzeppelin-contracts/blob/master/contracts/utils/Address.sol\":5156:5177  address(this).balance */\n      selfbalance\n        /* \"https://github.com/OpenZeppelin/openzeppelin-contracts/blob/master/contracts/utils/Address.sol\":5156:5186  address(this).balance >= value */\n      lt\n      iszero\n        /* \"https://github.com/OpenZeppelin/openzeppelin-contracts/blob/master/contracts/utils/Address.sol\":5148:5229  require(address(this).balance >= value, \"Address: insufficient balance for call\") */\n      tag_167\n      jumpi\n      mload(0x40)\n      0x08c379a000000000000000000000000000000000000000000000000000000000\n      dup2\n      mstore\n      0x04\n      add\n      tag_168\n      swap1\n      tag_169\n      jump\t// in\n    tag_168:\n      mload(0x40)\n      dup1\n      swap2\n      sub\n      swap1\n      revert\n    tag_167:\n        /* \"https://github.com/OpenZeppelin/openzeppelin-contracts/blob/master/contracts/utils/Address.sol\":5240:5252  bool success */\n      0x00\n        /* \"https://github.com/OpenZeppelin/openzeppelin-contracts/blob/master/contracts/utils/Address.sol\":5254:5277  bytes memory returndata */\n      dup1\n        /* \"https://github.com/OpenZeppelin/openzeppelin-contracts/blob/master/contracts/utils/Address.sol\":5281:5287  target */\n      dup7\n        /* \"https://github.com/OpenZeppelin/openzeppelin-contracts/blob/master/contracts/utils/Address.sol\":5281:5292  target.call */\n      0xffffffffffffffffffffffffffffffffffffffff\n      and\n        /* \"https://github.com/OpenZeppelin/openzeppelin-contracts/blob/master/contracts/utils/Address.sol\":5300:5305  value */\n      dup6\n        /* \"https://github.com/OpenZeppelin/openzeppelin-contracts/blob/master/contracts/utils/Address.sol\":5307:5311  data */\n      dup8\n        /* \"https://github.com/OpenZeppelin/openzeppelin-contracts/blob/master/contracts/utils/Address.sol\":5281:5312  target.call{value: value}(data) */\n      mload(0x40)\n      tag_170\n      swap2\n      swap1\n      tag_171\n      jump\t// in\n    tag_170:\n      0x00\n      mload(0x40)\n      dup1\n      dup4\n      sub\n      dup2\n      dup6\n      dup8\n      gas\n      call\n      swap3\n      pop\n      pop\n      pop\n      returndatasize\n      dup1\n      0x00\n      dup2\n      eq\n      tag_174\n      jumpi\n      mload(0x40)\n      swap2\n      pop\n      and(add(returndatasize, 0x3f), not(0x1f))\n      dup3\n      add\n      0x40\n      mstore\n      returndatasize\n      dup3\n      mstore\n      returndatasize\n      0x00\n      0x20\n      dup5\n      add\n      returndatacopy\n      jump(tag_173)\n    tag_174:\n      0x60\n      swap2\n      pop\n    tag_173:\n      pop\n        /* \"https://github.com/OpenZeppelin/openzeppelin-contracts/blob/master/contracts/utils/Address.sol\":5239:5312  (bool success, bytes memory returndata) = target.call{value: value}(data) */\n      swap2\n      pop\n      swap2\n      pop\n        /* \"https://github.com/OpenZeppelin/openzeppelin-contracts/blob/master/contracts/utils/Address.sol\":5329:5398  verifyCallResultFromTarget(target, success, returndata, errorMessage) */\n      tag_175\n        /* \"https://github.com/OpenZeppelin/openzeppelin-contracts/blob/master/contracts/utils/Address.sol\":5356:5362  target */\n      dup8\n        /* \"https://github.com/OpenZeppelin/openzeppelin-contracts/blob/master/contracts/utils/Address.sol\":5364:5371  success */\n      dup4\n        /* \"https://github.com/OpenZeppelin/openzeppelin-contracts/blob/master/contracts/utils/Address.sol\":5373:5383  returndata */\n      dup4\n        /* \"https://github.com/OpenZeppelin/openzeppelin-contracts/blob/master/contracts/utils/Address.sol\":5385:5397  errorMessage */\n      dup8\n        /* \"https://github.com/OpenZeppelin/openzeppelin-contracts/blob/master/contracts/utils/Address.sol\":5329:5355  verifyCallResultFromTarget */\n      tag_176\n        /* \"https://github.com/OpenZeppelin/openzeppelin-contracts/blob/master/contracts/utils/Address.sol\":5329:5398  verifyCallResultFromTarget(target, success, returndata, errorMessage) */\n      jump\t// in\n    tag_175:\n        /* \"https://github.com/OpenZeppelin/openzeppelin-contracts/blob/master/contracts/utils/Address.sol\":5322:5398  return verifyCallResultFromTarget(target, success, returndata, errorMessage) */\n      swap3\n      pop\n      pop\n      pop\n        /* \"https://github.com/OpenZeppelin/openzeppelin-contracts/blob/master/contracts/utils/Address.sol\":4959:5405  function functionCallWithValue(... */\n      swap5\n      swap4\n      pop\n      pop\n      pop\n      pop\n      jump\t// out\n        /* \"https://github.com/OpenZeppelin/openzeppelin-contracts/blob/master/contracts/utils/Address.sol\":7465:8093  function verifyCallResultFromTarget(... */\n    tag_176:\n        /* \"https://github.com/OpenZeppelin/openzeppelin-contracts/blob/master/contracts/utils/Address.sol\":7645:7657  bytes memory */\n      0x60\n        /* \"https://github.com/OpenZeppelin/openzeppelin-contracts/blob/master/contracts/utils/Address.sol\":7673:7680  success */\n      dup4\n        /* \"https://github.com/OpenZeppelin/openzeppelin-contracts/blob/master/contracts/utils/Address.sol\":7669:8087  if (success) {... */\n      iszero\n      tag_178\n      jumpi\n        /* \"https://github.com/OpenZeppelin/openzeppelin-contracts/blob/master/contracts/utils/Address.sol\":7721:7722  0 */\n      0x00\n        /* \"https://github.com/OpenZeppelin/openzeppelin-contracts/blob/master/contracts/utils/Address.sol\":7700:7710  returndata */\n      dup4\n        /* \"https://github.com/OpenZeppelin/openzeppelin-contracts/blob/master/contracts/utils/Address.sol\":7700:7717  returndata.length */\n      mload\n        /* \"https://github.com/OpenZeppelin/openzeppelin-contracts/blob/master/contracts/utils/Address.sol\":7700:7722  returndata.length == 0 */\n      sub\n        /* \"https://github.com/OpenZeppelin/openzeppelin-contracts/blob/master/contracts/utils/Address.sol\":7696:7982  if (returndata.length == 0) {... */\n      tag_179\n      jumpi\n        /* \"https://github.com/OpenZeppelin/openzeppelin-contracts/blob/master/contracts/utils/Address.sol\":7915:7933  isContract(target) */\n      tag_180\n        /* \"https://github.com/OpenZeppelin/openzeppelin-contracts/blob/master/contracts/utils/Address.sol\":7926:7932  target */\n      dup6\n        /* \"https://github.com/OpenZeppelin/openzeppelin-contracts/blob/master/contracts/utils/Address.sol\":7915:7925  isContract */\n      tag_181\n        /* \"https://github.com/OpenZeppelin/openzeppelin-contracts/blob/master/contracts/utils/Address.sol\":7915:7933  isContract(target) */\n      jump\t// in\n    tag_180:\n        /* \"https://github.com/OpenZeppelin/openzeppelin-contracts/blob/master/contracts/utils/Address.sol\":7907:7967  require(isContract(target), \"Address: call to non-contract\") */\n      tag_182\n      jumpi\n      mload(0x40)\n      0x08c379a000000000000000000000000000000000000000000000000000000000\n      dup2\n      mstore\n      0x04\n      add\n      tag_183\n      swap1\n      tag_184\n      jump\t// in\n    tag_183:\n      mload(0x40)\n      dup1\n      swap2\n      sub\n      swap1\n      revert\n    tag_182:\n        /* \"https://github.com/OpenZeppelin/openzeppelin-contracts/blob/master/contracts/utils/Address.sol\":7696:7982  if (returndata.length == 0) {... */\n    tag_179:\n        /* \"https://github.com/OpenZeppelin/openzeppelin-contracts/blob/master/contracts/utils/Address.sol\":8002:8012  returndata */\n      dup3\n        /* \"https://github.com/OpenZeppelin/openzeppelin-contracts/blob/master/contracts/utils/Address.sol\":7995:8012  return returndata */\n      swap1\n      pop\n      jump(tag_177)\n        /* \"https://github.com/OpenZeppelin/openzeppelin-contracts/blob/master/contracts/utils/Address.sol\":7669:8087  if (success) {... */\n    tag_178:\n        /* \"https://github.com/OpenZeppelin/openzeppelin-contracts/blob/master/contracts/utils/Address.sol\":8043:8076  _revert(returndata, errorMessage) */\n      tag_186\n        /* \"https://github.com/OpenZeppelin/openzeppelin-contracts/blob/master/contracts/utils/Address.sol\":8051:8061  returndata */\n      dup4\n        /* \"https://github.com/OpenZeppelin/openzeppelin-contracts/blob/master/contracts/utils/Address.sol\":8063:8075  errorMessage */\n      dup4\n        /* \"https://github.com/OpenZeppelin/openzeppelin-contracts/blob/master/contracts/utils/Address.sol\":8043:8050  _revert */\n      tag_187\n        /* \"https://github.com/OpenZeppelin/openzeppelin-contracts/blob/master/contracts/utils/Address.sol\":8043:8076  _revert(returndata, errorMessage) */\n      jump\t// in\n    tag_186:\n        /* \"https://github.com/OpenZeppelin/openzeppelin-contracts/blob/master/contracts/utils/Address.sol\":7465:8093  function verifyCallResultFromTarget(... */\n    tag_177:\n      swap5\n      swap4\n      pop\n      pop\n      pop\n      pop\n      jump\t// out\n        /* \"https://github.com/OpenZeppelin/openzeppelin-contracts/blob/master/contracts/utils/Address.sol\":1175:1495  function isContract(address account) internal view returns (bool) {... */\n    tag_181:\n        /* \"https://github.com/OpenZeppelin/openzeppelin-contracts/blob/master/contracts/utils/Address.sol\":1235:1239  bool */\n      0x00\n        /* \"https://github.com/OpenZeppelin/openzeppelin-contracts/blob/master/contracts/utils/Address.sol\":1487:1488  0 */\n      dup1\n        /* \"https://github.com/OpenZeppelin/openzeppelin-contracts/blob/master/contracts/utils/Address.sol\":1465:1472  account */\n      dup3\n        /* \"https://github.com/OpenZeppelin/openzeppelin-contracts/blob/master/contracts/utils/Address.sol\":1465:1484  account.code.length */\n      0xffffffffffffffffffffffffffffffffffffffff\n      and\n      extcodesize\n        /* \"https://github.com/OpenZeppelin/openzeppelin-contracts/blob/master/contracts/utils/Address.sol\":1465:1488  account.code.length > 0 */\n      gt\n        /* \"https://github.com/OpenZeppelin/openzeppelin-contracts/blob/master/contracts/utils/Address.sol\":1458:1488  return account.code.length > 0 */\n      swap1\n      pop\n        /* \"https://github.com/OpenZeppelin/openzeppelin-contracts/blob/master/contracts/utils/Address.sol\":1175:1495  function isContract(address account) internal view returns (bool) {... */\n      swap2\n      swap1\n      pop\n      jump\t// out\n        /* \"https://github.com/OpenZeppelin/openzeppelin-contracts/blob/master/contracts/utils/Address.sol\":8615:9155  function _revert(bytes memory returndata, string memory errorMessage) private pure {... */\n    tag_187:\n        /* \"https://github.com/OpenZeppelin/openzeppelin-contracts/blob/master/contracts/utils/Address.sol\":8794:8795  0 */\n      0x00\n        /* \"https://github.com/OpenZeppelin/openzeppelin-contracts/blob/master/contracts/utils/Address.sol\":8774:8784  returndata */\n      dup3\n        /* \"https://github.com/OpenZeppelin/openzeppelin-contracts/blob/master/contracts/utils/Address.sol\":8774:8791  returndata.length */\n      mload\n        /* \"https://github.com/OpenZeppelin/openzeppelin-contracts/blob/master/contracts/utils/Address.sol\":8774:8795  returndata.length > 0 */\n      gt\n        /* \"https://github.com/OpenZeppelin/openzeppelin-contracts/blob/master/contracts/utils/Address.sol\":8770:9149  if (returndata.length > 0) {... */\n      iszero\n      tag_190\n      jumpi\n        /* \"https://github.com/OpenZeppelin/openzeppelin-contracts/blob/master/contracts/utils/Address.sol\":9002:9012  returndata */\n      dup2\n        /* \"https://github.com/OpenZeppelin/openzeppelin-contracts/blob/master/contracts/utils/Address.sol\":8996:9013  mload(returndata) */\n      mload\n        /* \"https://github.com/OpenZeppelin/openzeppelin-contracts/blob/master/contracts/utils/Address.sol\":9058:9073  returndata_size */\n      dup1\n        /* \"https://github.com/OpenZeppelin/openzeppelin-contracts/blob/master/contracts/utils/Address.sol\":9045:9055  returndata */\n      dup4\n        /* \"https://github.com/OpenZeppelin/openzeppelin-contracts/blob/master/contracts/utils/Address.sol\":9041:9043  32 */\n      0x20\n        /* \"https://github.com/OpenZeppelin/openzeppelin-contracts/blob/master/contracts/utils/Address.sol\":9037:9056  add(32, returndata) */\n      add\n        /* \"https://github.com/OpenZeppelin/openzeppelin-contracts/blob/master/contracts/utils/Address.sol\":9030:9074  revert(add(32, returndata), returndata_size) */\n      revert\n        /* \"https://github.com/OpenZeppelin/openzeppelin-contracts/blob/master/contracts/utils/Address.sol\":8770:9149  if (returndata.length > 0) {... */\n    tag_190:\n        /* \"https://github.com/OpenZeppelin/openzeppelin-contracts/blob/master/contracts/utils/Address.sol\":9125:9137  errorMessage */\n      dup1\n        /* \"https://github.com/OpenZeppelin/openzeppelin-contracts/blob/master/contracts/utils/Address.sol\":9118:9138  revert(errorMessage) */\n      mload(0x40)\n      0x08c379a000000000000000000000000000000000000000000000000000000000\n      dup2\n      mstore\n      0x04\n      add\n      tag_192\n      swap2\n      swap1\n      tag_193\n      jump\t// in\n    tag_192:\n      mload(0x40)\n      dup1\n      swap2\n      sub\n      swap1\n      revert\n        /* \"#utility.yul\":7:133   */\n    tag_194:\n        /* \"#utility.yul\":44:51   */\n      0x00\n        /* \"#utility.yul\":84:126   */\n      0xffffffffffffffffffffffffffffffffffffffff\n        /* \"#utility.yul\":77:82   */\n      dup3\n        /* \"#utility.yul\":73:127   */\n      and\n        /* \"#utility.yul\":62:127   */\n      swap1\n      pop\n        /* \"#utility.yul\":7:133   */\n      swap2\n      swap1\n      pop\n      jump\t// out\n        /* \"#utility.yul\":139:235   */\n    tag_195:\n        /* \"#utility.yul\":176:183   */\n      0x00\n        /* \"#utility.yul\":205:229   */\n      tag_250\n        /* \"#utility.yul\":223:228   */\n      dup3\n        /* \"#utility.yul\":205:229   */\n      tag_194\n      jump\t// in\n    tag_250:\n        /* \"#utility.yul\":194:229   */\n      swap1\n      pop\n        /* \"#utility.yul\":139:235   */\n      swap2\n      swap1\n      pop\n      jump\t// out\n        /* \"#utility.yul\":241:359   */\n    tag_196:\n        /* \"#utility.yul\":328:352   */\n      tag_252\n        /* \"#utility.yul\":346:351   */\n      dup2\n        /* \"#utility.yul\":328:352   */\n      tag_195\n      jump\t// in\n    tag_252:\n        /* \"#utility.yul\":323:326   */\n      dup3\n        /* \"#utility.yul\":316:353   */\n      mstore\n        /* \"#utility.yul\":241:359   */\n      pop\n      pop\n      jump\t// out\n        /* \"#utility.yul\":365:442   */\n    tag_197:\n        /* \"#utility.yul\":402:409   */\n      0x00\n        /* \"#utility.yul\":431:436   */\n      dup2\n        /* \"#utility.yul\":420:436   */\n      swap1\n      pop\n        /* \"#utility.yul\":365:442   */\n      swap2\n      swap1\n      pop\n      jump\t// out\n        /* \"#utility.yul\":448:566   */\n    tag_198:\n        /* \"#utility.yul\":535:559   */\n      tag_255\n        /* \"#utility.yul\":553:558   */\n      dup2\n        /* \"#utility.yul\":535:559   */\n      tag_197\n      jump\t// in\n    tag_255:\n        /* \"#utility.yul\":530:533   */\n      dup3\n        /* \"#utility.yul\":523:560   */\n      mstore\n        /* \"#utility.yul\":448:566   */\n      pop\n      pop\n      jump\t// out\n        /* \"#utility.yul\":572:904   */\n    tag_20:\n        /* \"#utility.yul\":693:697   */\n      0x00\n        /* \"#utility.yul\":731:733   */\n      0x40\n        /* \"#utility.yul\":720:729   */\n      dup3\n        /* \"#utility.yul\":716:734   */\n      add\n        /* \"#utility.yul\":708:734   */\n      swap1\n      pop\n        /* \"#utility.yul\":744:815   */\n      tag_257\n        /* \"#utility.yul\":812:813   */\n      0x00\n        /* \"#utility.yul\":801:810   */\n      dup4\n        /* \"#utility.yul\":797:814   */\n      add\n        /* \"#utility.yul\":788:794   */\n      dup6\n        /* \"#utility.yul\":744:815   */\n      tag_196\n      jump\t// in\n    tag_257:\n        /* \"#utility.yul\":825:897   */\n      tag_258\n        /* \"#utility.yul\":893:895   */\n      0x20\n        /* \"#utility.yul\":882:891   */\n      dup4\n        /* \"#utility.yul\":878:896   */\n      add\n        /* \"#utility.yul\":869:875   */\n      dup5\n        /* \"#utility.yul\":825:897   */\n      tag_198\n      jump\t// in\n    tag_258:\n        /* \"#utility.yul\":572:904   */\n      swap4\n      swap3\n      pop\n      pop\n      pop\n      jump\t// out\n        /* \"#utility.yul\":991:1108   */\n    tag_200:\n        /* \"#utility.yul\":1100:1101   */\n      0x00\n        /* \"#utility.yul\":1097:1098   */\n      dup1\n        /* \"#utility.yul\":1090:1102   */\n      revert\n        /* \"#utility.yul\":1237:1341   */\n    tag_202:\n        /* \"#utility.yul\":1282:1289   */\n      0x00\n        /* \"#utility.yul\":1311:1335   */\n      tag_263\n        /* \"#utility.yul\":1329:1334   */\n      dup3\n        /* \"#utility.yul\":1311:1335   */\n      tag_194\n      jump\t// in\n    tag_263:\n        /* \"#utility.yul\":1300:1335   */\n      swap1\n      pop\n        /* \"#utility.yul\":1237:1341   */\n      swap2\n      swap1\n      pop\n      jump\t// out\n        /* \"#utility.yul\":1347:1485   */\n    tag_203:\n        /* \"#utility.yul\":1428:1460   */\n      tag_265\n        /* \"#utility.yul\":1454:1459   */\n      dup2\n        /* \"#utility.yul\":1428:1460   */\n      tag_202\n      jump\t// in\n    tag_265:\n        /* \"#utility.yul\":1421:1426   */\n      dup2\n        /* \"#utility.yul\":1418:1461   */\n      eq\n        /* \"#utility.yul\":1408:1479   */\n      tag_266\n      jumpi\n        /* \"#utility.yul\":1475:1476   */\n      0x00\n        /* \"#utility.yul\":1472:1473   */\n      dup1\n        /* \"#utility.yul\":1465:1477   */\n      revert\n        /* \"#utility.yul\":1408:1479   */\n    tag_266:\n        /* \"#utility.yul\":1347:1485   */\n      pop\n      jump\t// out\n        /* \"#utility.yul\":1491:1646   */\n    tag_204:\n        /* \"#utility.yul\":1545:1550   */\n      0x00\n        /* \"#utility.yul\":1583:1589   */\n      dup2\n        /* \"#utility.yul\":1570:1590   */\n      calldataload\n        /* \"#utility.yul\":1561:1590   */\n      swap1\n      pop\n        /* \"#utility.yul\":1599:1640   */\n      tag_268\n        /* \"#utility.yul\":1634:1639   */\n      dup2\n        /* \"#utility.yul\":1599:1640   */\n      tag_203\n      jump\t// in\n    tag_268:\n        /* \"#utility.yul\":1491:1646   */\n      swap3\n      swap2\n      pop\n      pop\n      jump\t// out\n        /* \"#utility.yul\":1652:1997   */\n    tag_24:\n        /* \"#utility.yul\":1719:1725   */\n      0x00\n        /* \"#utility.yul\":1768:1770   */\n      0x20\n        /* \"#utility.yul\":1756:1765   */\n      dup3\n        /* \"#utility.yul\":1747:1754   */\n      dup5\n        /* \"#utility.yul\":1743:1766   */\n      sub\n        /* \"#utility.yul\":1739:1771   */\n      slt\n        /* \"#utility.yul\":1736:1855   */\n      iszero\n      tag_270\n      jumpi\n        /* \"#utility.yul\":1774:1853   */\n      tag_271\n      tag_200\n      jump\t// in\n    tag_271:\n        /* \"#utility.yul\":1736:1855   */\n    tag_270:\n        /* \"#utility.yul\":1894:1895   */\n      0x00\n        /* \"#utility.yul\":1919:1980   */\n      tag_272\n        /* \"#utility.yul\":1972:1979   */\n      dup5\n        /* \"#utility.yul\":1963:1969   */\n      dup3\n        /* \"#utility.yul\":1952:1961   */\n      dup6\n        /* \"#utility.yul\":1948:1970   */\n      add\n        /* \"#utility.yul\":1919:1980   */\n      tag_204\n      jump\t// in\n    tag_272:\n        /* \"#utility.yul\":1909:1980   */\n      swap2\n      pop\n        /* \"#utility.yul\":1865:1990   */\n      pop\n        /* \"#utility.yul\":1652:1997   */\n      swap3\n      swap2\n      pop\n      pop\n      jump\t// out\n        /* \"#utility.yul\":2003:2225   */\n    tag_30:\n        /* \"#utility.yul\":2096:2100   */\n      0x00\n        /* \"#utility.yul\":2134:2136   */\n      0x20\n        /* \"#utility.yul\":2123:2132   */\n      dup3\n        /* \"#utility.yul\":2119:2137   */\n      add\n        /* \"#utility.yul\":2111:2137   */\n      swap1\n      pop\n        /* \"#utility.yul\":2147:2218   */\n      tag_274\n        /* \"#utility.yul\":2215:2216   */\n      0x00\n        /* \"#utility.yul\":2204:2213   */\n      dup4\n        /* \"#utility.yul\":2200:2217   */\n      add\n        /* \"#utility.yul\":2191:2197   */\n      dup5\n        /* \"#utility.yul\":2147:2218   */\n      tag_198\n      jump\t// in\n    tag_274:\n        /* \"#utility.yul\":2003:2225   */\n      swap3\n      swap2\n      pop\n      pop\n      jump\t// out\n        /* \"#utility.yul\":2231:2341   */\n    tag_205:\n        /* \"#utility.yul\":2282:2289   */\n      0x00\n        /* \"#utility.yul\":2311:2335   */\n      tag_276\n        /* \"#utility.yul\":2329:2334   */\n      dup3\n        /* \"#utility.yul\":2311:2335   */\n      tag_195\n      jump\t// in\n    tag_276:\n        /* \"#utility.yul\":2300:2335   */\n      swap1\n      pop\n        /* \"#utility.yul\":2231:2341   */\n      swap2\n      swap1\n      pop\n      jump\t// out\n        /* \"#utility.yul\":2347:2497   */\n    tag_206:\n        /* \"#utility.yul\":2434:2472   */\n      tag_278\n        /* \"#utility.yul\":2466:2471   */\n      dup2\n        /* \"#utility.yul\":2434:2472   */\n      tag_205\n      jump\t// in\n    tag_278:\n        /* \"#utility.yul\":2427:2432   */\n      dup2\n        /* \"#utility.yul\":2424:2473   */\n      eq\n        /* \"#utility.yul\":2414:2491   */\n      tag_279\n      jumpi\n        /* \"#utility.yul\":2487:2488   */\n      0x00\n        /* \"#utility.yul\":2484:2485   */\n      dup1\n        /* \"#utility.yul\":2477:2489   */\n      revert\n        /* \"#utility.yul\":2414:2491   */\n    tag_279:\n        /* \"#utility.yul\":2347:2497   */\n      pop\n      jump\t// out\n        /* \"#utility.yul\":2503:2670   */\n    tag_207:\n        /* \"#utility.yul\":2563:2568   */\n      0x00\n        /* \"#utility.yul\":2601:2607   */\n      dup2\n        /* \"#utility.yul\":2588:2608   */\n      calldataload\n        /* \"#utility.yul\":2579:2608   */\n      swap1\n      pop\n        /* \"#utility.yul\":2617:2664   */\n      tag_281\n        /* \"#utility.yul\":2658:2663   */\n      dup2\n        /* \"#utility.yul\":2617:2664   */\n      tag_206\n      jump\t// in\n    tag_281:\n        /* \"#utility.yul\":2503:2670   */\n      swap3\n      swap2\n      pop\n      pop\n      jump\t// out\n        /* \"#utility.yul\":2676:2798   */\n    tag_208:\n        /* \"#utility.yul\":2749:2773   */\n      tag_283\n        /* \"#utility.yul\":2767:2772   */\n      dup2\n        /* \"#utility.yul\":2749:2773   */\n      tag_195\n      jump\t// in\n    tag_283:\n        /* \"#utility.yul\":2742:2747   */\n      dup2\n        /* \"#utility.yul\":2739:2774   */\n      eq\n        /* \"#utility.yul\":2729:2792   */\n      tag_284\n      jumpi\n        /* \"#utility.yul\":2788:2789   */\n      0x00\n        /* \"#utility.yul\":2785:2786   */\n      dup1\n        /* \"#utility.yul\":2778:2790   */\n      revert\n        /* \"#utility.yul\":2729:2792   */\n    tag_284:\n        /* \"#utility.yul\":2676:2798   */\n      pop\n      jump\t// out\n        /* \"#utility.yul\":2804:2943   */\n    tag_209:\n        /* \"#utility.yul\":2850:2855   */\n      0x00\n        /* \"#utility.yul\":2888:2894   */\n      dup2\n        /* \"#utility.yul\":2875:2895   */\n      calldataload\n        /* \"#utility.yul\":2866:2895   */\n      swap1\n      pop\n        /* \"#utility.yul\":2904:2937   */\n      tag_286\n        /* \"#utility.yul\":2931:2936   */\n      dup2\n        /* \"#utility.yul\":2904:2937   */\n      tag_208\n      jump\t// in\n    tag_286:\n        /* \"#utility.yul\":2804:2943   */\n      swap3\n      swap2\n      pop\n      pop\n      jump\t// out\n        /* \"#utility.yul\":2949:3451   */\n    tag_34:\n        /* \"#utility.yul\":3031:3037   */\n      0x00\n        /* \"#utility.yul\":3039:3045   */\n      dup1\n        /* \"#utility.yul\":3088:3090   */\n      0x40\n        /* \"#utility.yul\":3076:3085   */\n      dup4\n        /* \"#utility.yul\":3067:3074   */\n      dup6\n        /* \"#utility.yul\":3063:3086   */\n      sub\n        /* \"#utility.yul\":3059:3091   */\n      slt\n        /* \"#utility.yul\":3056:3175   */\n      iszero\n      tag_288\n      jumpi\n        /* \"#utility.yul\":3094:3173   */\n      tag_289\n      tag_200\n      jump\t// in\n    tag_289:\n        /* \"#utility.yul\":3056:3175   */\n    tag_288:\n        /* \"#utility.yul\":3214:3215   */\n      0x00\n        /* \"#utility.yul\":3239:3306   */\n      tag_290\n        /* \"#utility.yul\":3298:3305   */\n      dup6\n        /* \"#utility.yul\":3289:3295   */\n      dup3\n        /* \"#utility.yul\":3278:3287   */\n      dup7\n        /* \"#utility.yul\":3274:3296   */\n      add\n        /* \"#utility.yul\":3239:3306   */\n      tag_207\n      jump\t// in\n    tag_290:\n        /* \"#utility.yul\":3229:3306   */\n      swap3\n      pop\n        /* \"#utility.yul\":3185:3316   */\n      pop\n        /* \"#utility.yul\":3355:3357   */\n      0x20\n        /* \"#utility.yul\":3381:3434   */\n      tag_291\n        /* \"#utility.yul\":3426:3433   */\n      dup6\n        /* \"#utility.yul\":3417:3423   */\n      dup3\n        /* \"#utility.yul\":3406:3415   */\n      dup7\n        /* \"#utility.yul\":3402:3424   */\n      add\n        /* \"#utility.yul\":3381:3434   */\n      tag_209\n      jump\t// in\n    tag_291:\n        /* \"#utility.yul\":3371:3434   */\n      swap2\n      pop\n        /* \"#utility.yul\":3326:3444   */\n      pop\n        /* \"#utility.yul\":2949:3451   */\n      swap3\n      pop\n      swap3\n      swap1\n      pop\n      jump\t// out\n        /* \"#utility.yul\":3457:3579   */\n    tag_210:\n        /* \"#utility.yul\":3530:3554   */\n      tag_293\n        /* \"#utility.yul\":3548:3553   */\n      dup2\n        /* \"#utility.yul\":3530:3554   */\n      tag_197\n      jump\t// in\n    tag_293:\n        /* \"#utility.yul\":3523:3528   */\n      dup2\n        /* \"#utility.yul\":3520:3555   */\n      eq\n        /* \"#utility.yul\":3510:3573   */\n      tag_294\n      jumpi\n        /* \"#utility.yul\":3569:3570   */\n      0x00\n        /* \"#utility.yul\":3566:3567   */\n      dup1\n        /* \"#utility.yul\":3559:3571   */\n      revert\n        /* \"#utility.yul\":3510:3573   */\n    tag_294:\n        /* \"#utility.yul\":3457:3579   */\n      pop\n      jump\t// out\n        /* \"#utility.yul\":3585:3724   */\n    tag_211:\n        /* \"#utility.yul\":3631:3636   */\n      0x00\n        /* \"#utility.yul\":3669:3675   */\n      dup2\n        /* \"#utility.yul\":3656:3676   */\n      calldataload\n        /* \"#utility.yul\":3647:3676   */\n      swap1\n      pop\n        /* \"#utility.yul\":3685:3718   */\n      tag_296\n        /* \"#utility.yul\":3712:3717   */\n      dup2\n        /* \"#utility.yul\":3685:3718   */\n      tag_210\n      jump\t// in\n    tag_296:\n        /* \"#utility.yul\":3585:3724   */\n      swap3\n      swap2\n      pop\n      pop\n      jump\t// out\n        /* \"#utility.yul\":3730:4059   */\n    tag_44:\n        /* \"#utility.yul\":3789:3795   */\n      0x00\n        /* \"#utility.yul\":3838:3840   */\n      0x20\n        /* \"#utility.yul\":3826:3835   */\n      dup3\n        /* \"#utility.yul\":3817:3824   */\n      dup5\n        /* \"#utility.yul\":3813:3836   */\n      sub\n        /* \"#utility.yul\":3809:3841   */\n      slt\n        /* \"#utility.yul\":3806:3925   */\n      iszero\n      tag_298\n      jumpi\n        /* \"#utility.yul\":3844:3923   */\n      tag_299\n      tag_200\n      jump\t// in\n    tag_299:\n        /* \"#utility.yul\":3806:3925   */\n    tag_298:\n        /* \"#utility.yul\":3964:3965   */\n      0x00\n        /* \"#utility.yul\":3989:4042   */\n      tag_300\n        /* \"#utility.yul\":4034:4041   */\n      dup5\n        /* \"#utility.yul\":4025:4031   */\n      dup3\n        /* \"#utility.yul\":4014:4023   */\n      dup6\n        /* \"#utility.yul\":4010:4032   */\n      add\n        /* \"#utility.yul\":3989:4042   */\n      tag_211\n      jump\t// in\n    tag_300:\n        /* \"#utility.yul\":3979:4042   */\n      swap2\n      pop\n        /* \"#utility.yul\":3935:4052   */\n      pop\n        /* \"#utility.yul\":3730:4059   */\n      swap3\n      swap2\n      pop\n      pop\n      jump\t// out\n        /* \"#utility.yul\":4065:4287   */\n    tag_47:\n        /* \"#utility.yul\":4158:4162   */\n      0x00\n        /* \"#utility.yul\":4196:4198   */\n      0x20\n        /* \"#utility.yul\":4185:4194   */\n      dup3\n        /* \"#utility.yul\":4181:4199   */\n      add\n        /* \"#utility.yul\":4173:4199   */\n      swap1\n      pop\n        /* \"#utility.yul\":4209:4280   */\n      tag_302\n        /* \"#utility.yul\":4277:4278   */\n      0x00\n        /* \"#utility.yul\":4266:4275   */\n      dup4\n        /* \"#utility.yul\":4262:4279   */\n      add\n        /* \"#utility.yul\":4253:4259   */\n      dup5\n        /* \"#utility.yul\":4209:4280   */\n      tag_196\n      jump\t// in\n    tag_302:\n        /* \"#utility.yul\":4065:4287   */\n      swap3\n      swap2\n      pop\n      pop\n      jump\t// out\n        /* \"#utility.yul\":4293:4622   */\n    tag_51:\n        /* \"#utility.yul\":4352:4358   */\n      0x00\n        /* \"#utility.yul\":4401:4403   */\n      0x20\n        /* \"#utility.yul\":4389:4398   */\n      dup3\n        /* \"#utility.yul\":4380:4387   */\n      dup5\n        /* \"#utility.yul\":4376:4399   */\n      sub\n        /* \"#utility.yul\":4372:4404   */\n      slt\n        /* \"#utility.yul\":4369:4488   */\n      iszero\n      tag_304\n      jumpi\n        /* \"#utility.yul\":4407:4486   */\n      tag_305\n      tag_200\n      jump\t// in\n    tag_305:\n        /* \"#utility.yul\":4369:4488   */\n    tag_304:\n        /* \"#utility.yul\":4527:4528   */\n      0x00\n        /* \"#utility.yul\":4552:4605   */\n      tag_306\n        /* \"#utility.yul\":4597:4604   */\n      dup5\n        /* \"#utility.yul\":4588:4594   */\n      dup3\n        /* \"#utility.yul\":4577:4586   */\n      dup6\n        /* \"#utility.yul\":4573:4595   */\n      add\n        /* \"#utility.yul\":4552:4605   */\n      tag_209\n      jump\t// in\n    tag_306:\n        /* \"#utility.yul\":4542:4605   */\n      swap2\n      pop\n        /* \"#utility.yul\":4498:4615   */\n      pop\n        /* \"#utility.yul\":4293:4622   */\n      swap3\n      swap2\n      pop\n      pop\n      jump\t// out\n        /* \"#utility.yul\":4628:4985   */\n    tag_72:\n        /* \"#utility.yul\":4701:4707   */\n      0x00\n        /* \"#utility.yul\":4750:4752   */\n      0x20\n        /* \"#utility.yul\":4738:4747   */\n      dup3\n        /* \"#utility.yul\":4729:4736   */\n      dup5\n        /* \"#utility.yul\":4725:4748   */\n      sub\n        /* \"#utility.yul\":4721:4753   */\n      slt\n        /* \"#utility.yul\":4718:4837   */\n      iszero\n      tag_308\n      jumpi\n        /* \"#utility.yul\":4756:4835   */\n      tag_309\n      tag_200\n      jump\t// in\n    tag_309:\n        /* \"#utility.yul\":4718:4837   */\n    tag_308:\n        /* \"#utility.yul\":4876:4877   */\n      0x00\n        /* \"#utility.yul\":4901:4968   */\n      tag_310\n        /* \"#utility.yul\":4960:4967   */\n      dup5\n        /* \"#utility.yul\":4951:4957   */\n      dup3\n        /* \"#utility.yul\":4940:4949   */\n      dup6\n        /* \"#utility.yul\":4936:4958   */\n      add\n        /* \"#utility.yul\":4901:4968   */\n      tag_207\n      jump\t// in\n    tag_310:\n        /* \"#utility.yul\":4891:4968   */\n      swap2\n      pop\n        /* \"#utility.yul\":4847:4978   */\n      pop\n        /* \"#utility.yul\":4628:4985   */\n      swap3\n      swap2\n      pop\n      pop\n      jump\t// out\n        /* \"#utility.yul\":4991:5160   */\n    tag_212:\n        /* \"#utility.yul\":5075:5086   */\n      0x00\n        /* \"#utility.yul\":5109:5115   */\n      dup3\n        /* \"#utility.yul\":5104:5107   */\n      dup3\n        /* \"#utility.yul\":5097:5116   */\n      mstore\n        /* \"#utility.yul\":5149:5153   */\n      0x20\n        /* \"#utility.yul\":5144:5147   */\n      dup3\n        /* \"#utility.yul\":5140:5154   */\n      add\n        /* \"#utility.yul\":5125:5154   */\n      swap1\n      pop\n        /* \"#utility.yul\":4991:5160   */\n      swap3\n      swap2\n      pop\n      pop\n      jump\t// out\n        /* \"#utility.yul\":5166:5391   */\n    tag_213:\n        /* \"#utility.yul\":5306:5340   */\n      0x5061796d656e7453706c69747465723a206163636f756e7420686173206e6f20\n        /* \"#utility.yul\":5302:5303   */\n      0x00\n        /* \"#utility.yul\":5294:5300   */\n      dup3\n        /* \"#utility.yul\":5290:5304   */\n      add\n        /* \"#utility.yul\":5283:5341   */\n      mstore\n        /* \"#utility.yul\":5375:5383   */\n      0x7368617265730000000000000000000000000000000000000000000000000000\n        /* \"#utility.yul\":5370:5372   */\n      0x20\n        /* \"#utility.yul\":5362:5368   */\n      dup3\n        /* \"#utility.yul\":5358:5373   */\n      add\n        /* \"#utility.yul\":5351:5384   */\n      mstore\n        /* \"#utility.yul\":5166:5391   */\n      pop\n      jump\t// out\n        /* \"#utility.yul\":5397:5763   */\n    tag_214:\n        /* \"#utility.yul\":5539:5542   */\n      0x00\n        /* \"#utility.yul\":5560:5627   */\n      tag_314\n        /* \"#utility.yul\":5624:5626   */\n      0x26\n        /* \"#utility.yul\":5619:5622   */\n      dup4\n        /* \"#utility.yul\":5560:5627   */\n      tag_212\n      jump\t// in\n    tag_314:\n        /* \"#utility.yul\":5553:5627   */\n      swap2\n      pop\n        /* \"#utility.yul\":5636:5729   */\n      tag_315\n        /* \"#utility.yul\":5725:5728   */\n      dup3\n        /* \"#utility.yul\":5636:5729   */\n      tag_213\n      jump\t// in\n    tag_315:\n        /* \"#utility.yul\":5754:5756   */\n      0x40\n        /* \"#utility.yul\":5749:5752   */\n      dup3\n        /* \"#utility.yul\":5745:5757   */\n      add\n        /* \"#utility.yul\":5738:5757   */\n      swap1\n      pop\n        /* \"#utility.yul\":5397:5763   */\n      swap2\n      swap1\n      pop\n      jump\t// out\n        /* \"#utility.yul\":5769:6188   */\n    tag_83:\n        /* \"#utility.yul\":5935:5939   */\n      0x00\n        /* \"#utility.yul\":5973:5975   */\n      0x20\n        /* \"#utility.yul\":5962:5971   */\n      dup3\n        /* \"#utility.yul\":5958:5976   */\n      add\n        /* \"#utility.yul\":5950:5976   */\n      swap1\n      pop\n        /* \"#utility.yul\":6022:6031   */\n      dup2\n        /* \"#utility.yul\":6016:6020   */\n      dup2\n        /* \"#utility.yul\":6012:6032   */\n      sub\n        /* \"#utility.yul\":6008:6009   */\n      0x00\n        /* \"#utility.yul\":5997:6006   */\n      dup4\n        /* \"#utility.yul\":5993:6010   */\n      add\n        /* \"#utility.yul\":5986:6033   */\n      mstore\n        /* \"#utility.yul\":6050:6181   */\n      tag_317\n        /* \"#utility.yul\":6176:6180   */\n      dup2\n        /* \"#utility.yul\":6050:6181   */\n      tag_214\n      jump\t// in\n    tag_317:\n        /* \"#utility.yul\":6042:6181   */\n      swap1\n      pop\n        /* \"#utility.yul\":5769:6188   */\n      swap2\n      swap1\n      pop\n      jump\t// out\n        /* \"#utility.yul\":6194:6424   */\n    tag_215:\n        /* \"#utility.yul\":6334:6368   */\n      0x5061796d656e7453706c69747465723a206163636f756e74206973206e6f7420\n        /* \"#utility.yul\":6330:6331   */\n      0x00\n        /* \"#utility.yul\":6322:6328   */\n      dup3\n        /* \"#utility.yul\":6318:6332   */\n      add\n        /* \"#utility.yul\":6311:6369   */\n      mstore\n        /* \"#utility.yul\":6403:6416   */\n      0x647565207061796d656e74000000000000000000000000000000000000000000\n        /* \"#utility.yul\":6398:6400   */\n      0x20\n        /* \"#utility.yul\":6390:6396   */\n      dup3\n        /* \"#utility.yul\":6386:6401   */\n      add\n        /* \"#utility.yul\":6379:6417   */\n      mstore\n        /* \"#utility.yul\":6194:6424   */\n      pop\n      jump\t// out\n        /* \"#utility.yul\":6430:6796   */\n    tag_216:\n        /* \"#utility.yul\":6572:6575   */\n      0x00\n        /* \"#utility.yul\":6593:6660   */\n      tag_320\n        /* \"#utility.yul\":6657:6659   */\n      0x2b\n        /* \"#utility.yul\":6652:6655   */\n      dup4\n        /* \"#utility.yul\":6593:6660   */\n      tag_212\n      jump\t// in\n    tag_320:\n        /* \"#utility.yul\":6586:6660   */\n      swap2\n      pop\n        /* \"#utility.yul\":6669:6762   */\n      tag_321\n        /* \"#utility.yul\":6758:6761   */\n      dup3\n        /* \"#utility.yul\":6669:6762   */\n      tag_215\n      jump\t// in\n    tag_321:\n        /* \"#utility.yul\":6787:6789   */\n      0x40\n        /* \"#utility.yul\":6782:6785   */\n      dup3\n        /* \"#utility.yul\":6778:6790   */\n      add\n        /* \"#utility.yul\":6771:6790   */\n      swap1\n      pop\n        /* \"#utility.yul\":6430:6796   */\n      swap2\n      swap1\n      pop\n      jump\t// out\n        /* \"#utility.yul\":6802:7221   */\n    tag_87:\n        /* \"#utility.yul\":6968:6972   */\n      0x00\n        /* \"#utility.yul\":7006:7008   */\n      0x20\n        /* \"#utility.yul\":6995:7004   */\n      dup3\n        /* \"#utility.yul\":6991:7009   */\n      add\n        /* \"#utility.yul\":6983:7009   */\n      swap1\n      pop\n        /* \"#utility.yul\":7055:7064   */\n      dup2\n        /* \"#utility.yul\":7049:7053   */\n      dup2\n        /* \"#utility.yul\":7045:7065   */\n      sub\n        /* \"#utility.yul\":7041:7042   */\n      0x00\n        /* \"#utility.yul\":7030:7039   */\n      dup4\n        /* \"#utility.yul\":7026:7043   */\n      add\n        /* \"#utility.yul\":7019:7066   */\n      mstore\n        /* \"#utility.yul\":7083:7214   */\n      tag_323\n        /* \"#utility.yul\":7209:7213   */\n      dup2\n        /* \"#utility.yul\":7083:7214   */\n      tag_216\n      jump\t// in\n    tag_323:\n        /* \"#utility.yul\":7075:7214   */\n      swap1\n      pop\n        /* \"#utility.yul\":6802:7221   */\n      swap2\n      swap1\n      pop\n      jump\t// out\n        /* \"#utility.yul\":7227:7407   */\n    tag_217:\n        /* \"#utility.yul\":7275:7352   */\n      0x4e487b7100000000000000000000000000000000000000000000000000000000\n        /* \"#utility.yul\":7272:7273   */\n      0x00\n        /* \"#utility.yul\":7265:7353   */\n      mstore\n        /* \"#utility.yul\":7372:7376   */\n      0x11\n        /* \"#utility.yul\":7369:7370   */\n      0x04\n        /* \"#utility.yul\":7362:7377   */\n      mstore\n        /* \"#utility.yul\":7396:7400   */\n      0x24\n        /* \"#utility.yul\":7393:7394   */\n      0x00\n        /* \"#utility.yul\":7386:7401   */\n      revert\n        /* \"#utility.yul\":7413:7718   */\n    tag_89:\n        /* \"#utility.yul\":7453:7456   */\n      0x00\n        /* \"#utility.yul\":7472:7492   */\n      tag_326\n        /* \"#utility.yul\":7490:7491   */\n      dup3\n        /* \"#utility.yul\":7472:7492   */\n      tag_197\n      jump\t// in\n    tag_326:\n        /* \"#utility.yul\":7467:7492   */\n      swap2\n      pop\n        /* \"#utility.yul\":7506:7526   */\n      tag_327\n        /* \"#utility.yul\":7524:7525   */\n      dup4\n        /* \"#utility.yul\":7506:7526   */\n      tag_197\n      jump\t// in\n    tag_327:\n        /* \"#utility.yul\":7501:7526   */\n      swap3\n      pop\n        /* \"#utility.yul\":7660:7661   */\n      dup3\n        /* \"#utility.yul\":7592:7658   */\n      0xffffffffffffffffffffffffffffffffffffffffffffffffffffffffffffffff\n        /* \"#utility.yul\":7588:7662   */\n      sub\n        /* \"#utility.yul\":7585:7586   */\n      dup3\n        /* \"#utility.yul\":7582:7663   */\n      gt\n        /* \"#utility.yul\":7579:7686   */\n      iszero\n      tag_328\n      jumpi\n        /* \"#utility.yul\":7666:7684   */\n      tag_329\n      tag_217\n      jump\t// in\n    tag_329:\n        /* \"#utility.yul\":7579:7686   */\n    tag_328:\n        /* \"#utility.yul\":7710:7711   */\n      dup3\n        /* \"#utility.yul\":7707:7708   */\n      dup3\n        /* \"#utility.yul\":7703:7712   */\n      add\n        /* \"#utility.yul\":7696:7712   */\n      swap1\n      pop\n        /* \"#utility.yul\":7413:7718   */\n      swap3\n      swap2\n      pop\n      pop\n      jump\t// out\n        /* \"#utility.yul\":7724:7784   */\n    tag_218:\n        /* \"#utility.yul\":7752:7755   */\n      0x00\n        /* \"#utility.yul\":7773:7778   */\n      dup2\n        /* \"#utility.yul\":7766:7778   */\n      swap1\n      pop\n        /* \"#utility.yul\":7724:7784   */\n      swap2\n      swap1\n      pop\n      jump\t// out\n        /* \"#utility.yul\":7790:7932   */\n    tag_219:\n        /* \"#utility.yul\":7840:7849   */\n      0x00\n        /* \"#utility.yul\":7873:7926   */\n      tag_332\n        /* \"#utility.yul\":7891:7925   */\n      tag_333\n        /* \"#utility.yul\":7900:7924   */\n      tag_334\n        /* \"#utility.yul\":7918:7923   */\n      dup5\n        /* \"#utility.yul\":7900:7924   */\n      tag_194\n      jump\t// in\n    tag_334:\n        /* \"#utility.yul\":7891:7925   */\n      tag_218\n      jump\t// in\n    tag_333:\n        /* \"#utility.yul\":7873:7926   */\n      tag_194\n      jump\t// in\n    tag_332:\n        /* \"#utility.yul\":7860:7926   */\n      swap1\n      pop\n        /* \"#utility.yul\":7790:7932   */\n      swap2\n      swap1\n      pop\n      jump\t// out\n        /* \"#utility.yul\":7938:8064   */\n    tag_220:\n        /* \"#utility.yul\":7988:7997   */\n      0x00\n        /* \"#utility.yul\":8021:8058   */\n      tag_336\n        /* \"#utility.yul\":8052:8057   */\n      dup3\n        /* \"#utility.yul\":8021:8058   */\n      tag_219\n      jump\t// in\n    tag_336:\n        /* \"#utility.yul\":8008:8058   */\n      swap1\n      pop\n        /* \"#utility.yul\":7938:8064   */\n      swap2\n      swap1\n      pop\n      jump\t// out\n        /* \"#utility.yul\":8070:8204   */\n    tag_221:\n        /* \"#utility.yul\":8128:8137   */\n      0x00\n        /* \"#utility.yul\":8161:8198   */\n      tag_338\n        /* \"#utility.yul\":8192:8197   */\n      dup3\n        /* \"#utility.yul\":8161:8198   */\n      tag_220\n      jump\t// in\n    tag_338:\n        /* \"#utility.yul\":8148:8198   */\n      swap1\n      pop\n        /* \"#utility.yul\":8070:8204   */\n      swap2\n      swap1\n      pop\n      jump\t// out\n        /* \"#utility.yul\":8210:8357   */\n    tag_222:\n        /* \"#utility.yul\":8305:8350   */\n      tag_340\n        /* \"#utility.yul\":8344:8349   */\n      dup2\n        /* \"#utility.yul\":8305:8350   */\n      tag_221\n      jump\t// in\n    tag_340:\n        /* \"#utility.yul\":8300:8303   */\n      dup3\n        /* \"#utility.yul\":8293:8351   */\n      mstore\n        /* \"#utility.yul\":8210:8357   */\n      pop\n      pop\n      jump\t// out\n        /* \"#utility.yul\":8363:8711   */\n    tag_93:\n        /* \"#utility.yul\":8492:8496   */\n      0x00\n        /* \"#utility.yul\":8530:8532   */\n      0x40\n        /* \"#utility.yul\":8519:8528   */\n      dup3\n        /* \"#utility.yul\":8515:8533   */\n      add\n        /* \"#utility.yul\":8507:8533   */\n      swap1\n      pop\n        /* \"#utility.yul\":8543:8622   */\n      tag_342\n        /* \"#utility.yul\":8619:8620   */\n      0x00\n        /* \"#utility.yul\":8608:8617   */\n      dup4\n        /* \"#utility.yul\":8604:8621   */\n      add\n        /* \"#utility.yul\":8595:8601   */\n      dup6\n        /* \"#utility.yul\":8543:8622   */\n      tag_222\n      jump\t// in\n    tag_342:\n        /* \"#utility.yul\":8632:8704   */\n      tag_343\n        /* \"#utility.yul\":8700:8702   */\n      0x20\n        /* \"#utility.yul\":8689:8698   */\n      dup4\n        /* \"#utility.yul\":8685:8703   */\n      add\n        /* \"#utility.yul\":8676:8682   */\n      dup5\n        /* \"#utility.yul\":8632:8704   */\n      tag_198\n      jump\t// in\n    tag_343:\n        /* \"#utility.yul\":8363:8711   */\n      swap4\n      swap3\n      pop\n      pop\n      pop\n      jump\t// out\n        /* \"#utility.yul\":8717:8897   */\n    tag_109:\n        /* \"#utility.yul\":8765:8842   */\n      0x4e487b7100000000000000000000000000000000000000000000000000000000\n        /* \"#utility.yul\":8762:8763   */\n      0x00\n        /* \"#utility.yul\":8755:8843   */\n      mstore\n        /* \"#utility.yul\":8862:8866   */\n      0x32\n        /* \"#utility.yul\":8859:8860   */\n      0x04\n        /* \"#utility.yul\":8852:8867   */\n      mstore\n        /* \"#utility.yul\":8886:8890   */\n      0x24\n        /* \"#utility.yul\":8883:8884   */\n      0x00\n        /* \"#utility.yul\":8876:8891   */\n      revert\n        /* \"#utility.yul\":8903:9046   */\n    tag_223:\n        /* \"#utility.yul\":8960:8965   */\n      0x00\n        /* \"#utility.yul\":8991:8997   */\n      dup2\n        /* \"#utility.yul\":8985:8998   */\n      mload\n        /* \"#utility.yul\":8976:8998   */\n      swap1\n      pop\n        /* \"#utility.yul\":9007:9040   */\n      tag_346\n        /* \"#utility.yul\":9034:9039   */\n      dup2\n        /* \"#utility.yul\":9007:9040   */\n      tag_210\n      jump\t// in\n    tag_346:\n        /* \"#utility.yul\":8903:9046   */\n      swap3\n      swap2\n      pop\n      pop\n      jump\t// out\n        /* \"#utility.yul\":9052:9403   */\n    tag_124:\n        /* \"#utility.yul\":9122:9128   */\n      0x00\n        /* \"#utility.yul\":9171:9173   */\n      0x20\n        /* \"#utility.yul\":9159:9168   */\n      dup3\n        /* \"#utility.yul\":9150:9157   */\n      dup5\n        /* \"#utility.yul\":9146:9169   */\n      sub\n        /* \"#utility.yul\":9142:9174   */\n      slt\n        /* \"#utility.yul\":9139:9258   */\n      iszero\n      tag_348\n      jumpi\n        /* \"#utility.yul\":9177:9256   */\n      tag_349\n      tag_200\n      jump\t// in\n    tag_349:\n        /* \"#utility.yul\":9139:9258   */\n    tag_348:\n        /* \"#utility.yul\":9297:9298   */\n      0x00\n        /* \"#utility.yul\":9322:9386   */\n      tag_350\n        /* \"#utility.yul\":9378:9385   */\n      dup5\n        /* \"#utility.yul\":9369:9375   */\n      dup3\n        /* \"#utility.yul\":9358:9367   */\n      dup6\n        /* \"#utility.yul\":9354:9376   */\n      add\n        /* \"#utility.yul\":9322:9386   */\n      tag_223\n      jump\t// in\n    tag_350:\n        /* \"#utility.yul\":9312:9386   */\n      swap2\n      pop\n        /* \"#utility.yul\":9268:9396   */\n      pop\n        /* \"#utility.yul\":9052:9403   */\n      swap3\n      swap2\n      pop\n      pop\n      jump\t// out\n        /* \"#utility.yul\":9409:9588   */\n    tag_224:\n        /* \"#utility.yul\":9549:9580   */\n      0x416464726573733a20696e73756666696369656e742062616c616e6365000000\n        /* \"#utility.yul\":9545:9546   */\n      0x00\n        /* \"#utility.yul\":9537:9543   */\n      dup3\n        /* \"#utility.yul\":9533:9547   */\n      add\n        /* \"#utility.yul\":9526:9581   */\n      mstore\n        /* \"#utility.yul\":9409:9588   */\n      pop\n      jump\t// out\n        /* \"#utility.yul\":9594:9960   */\n    tag_225:\n        /* \"#utility.yul\":9736:9739   */\n      0x00\n        /* \"#utility.yul\":9757:9824   */\n      tag_353\n        /* \"#utility.yul\":9821:9823   */\n      0x1d\n        /* \"#utility.yul\":9816:9819   */\n      dup4\n        /* \"#utility.yul\":9757:9824   */\n      tag_212\n      jump\t// in\n    tag_353:\n        /* \"#utility.yul\":9750:9824   */\n      swap2\n      pop\n        /* \"#utility.yul\":9833:9926   */\n      tag_354\n        /* \"#utility.yul\":9922:9925   */\n      dup3\n        /* \"#utility.yul\":9833:9926   */\n      tag_224\n      jump\t// in\n    tag_354:\n        /* \"#utility.yul\":9951:9953   */\n      0x20\n        /* \"#utility.yul\":9946:9949   */\n      dup3\n        /* \"#utility.yul\":9942:9954   */\n      add\n        /* \"#utility.yul\":9935:9954   */\n      swap1\n      pop\n        /* \"#utility.yul\":9594:9960   */\n      swap2\n      swap1\n      pop\n      jump\t// out\n        /* \"#utility.yul\":9966:10385   */\n    tag_134:\n        /* \"#utility.yul\":10132:10136   */\n      0x00\n        /* \"#utility.yul\":10170:10172   */\n      0x20\n        /* \"#utility.yul\":10159:10168   */\n      dup3\n        /* \"#utility.yul\":10155:10173   */\n      add\n        /* \"#utility.yul\":10147:10173   */\n      swap1\n      pop\n        /* \"#utility.yul\":10219:10228   */\n      dup2\n        /* \"#utility.yul\":10213:10217   */\n      dup2\n        /* \"#utility.yul\":10209:10229   */\n      sub\n        /* \"#utility.yul\":10205:10206   */\n      0x00\n        /* \"#utility.yul\":10194:10203   */\n      dup4\n        /* \"#utility.yul\":10190:10207   */\n      add\n        /* \"#utility.yul\":10183:10230   */\n      mstore\n        /* \"#utility.yul\":10247:10378   */\n      tag_356\n        /* \"#utility.yul\":10373:10377   */\n      dup2\n        /* \"#utility.yul\":10247:10378   */\n      tag_225\n      jump\t// in\n    tag_356:\n        /* \"#utility.yul\":10239:10378   */\n      swap1\n      pop\n        /* \"#utility.yul\":9966:10385   */\n      swap2\n      swap1\n      pop\n      jump\t// out\n        /* \"#utility.yul\":10391:10538   */\n    tag_226:\n        /* \"#utility.yul\":10492:10503   */\n      0x00\n        /* \"#utility.yul\":10529:10532   */\n      dup2\n        /* \"#utility.yul\":10514:10532   */\n      swap1\n      pop\n        /* \"#utility.yul\":10391:10538   */\n      swap3\n      swap2\n      pop\n      pop\n      jump\t// out\n        /* \"#utility.yul\":10544:10658   */\n    tag_227:\n      pop\n      jump\t// out\n        /* \"#utility.yul\":10664:11062   */\n    tag_228:\n        /* \"#utility.yul\":10823:10826   */\n      0x00\n        /* \"#utility.yul\":10844:10927   */\n      tag_360\n        /* \"#utility.yul\":10925:10926   */\n      0x00\n        /* \"#utility.yul\":10920:10923   */\n      dup4\n        /* \"#utility.yul\":10844:10927   */\n      tag_226\n      jump\t// in\n    tag_360:\n        /* \"#utility.yul\":10837:10927   */\n      swap2\n      pop\n        /* \"#utility.yul\":10936:11029   */\n      tag_361\n        /* \"#utility.yul\":11025:11028   */\n      dup3\n        /* \"#utility.yul\":10936:11029   */\n      tag_227\n      jump\t// in\n    tag_361:\n        /* \"#utility.yul\":11054:11055   */\n      0x00\n        /* \"#utility.yul\":11049:11052   */\n      dup3\n        /* \"#utility.yul\":11045:11056   */\n      add\n        /* \"#utility.yul\":11038:11056   */\n      swap1\n      pop\n        /* \"#utility.yul\":10664:11062   */\n      swap2\n      swap1\n      pop\n      jump\t// out\n        /* \"#utility.yul\":11068:11447   */\n    tag_136:\n        /* \"#utility.yul\":11252:11255   */\n      0x00\n        /* \"#utility.yul\":11274:11421   */\n      tag_363\n        /* \"#utility.yul\":11417:11420   */\n      dup3\n        /* \"#utility.yul\":11274:11421   */\n      tag_228\n      jump\t// in\n    tag_363:\n        /* \"#utility.yul\":11267:11421   */\n      swap2\n      pop\n        /* \"#utility.yul\":11438:11441   */\n      dup2\n        /* \"#utility.yul\":11431:11441   */\n      swap1\n      pop\n        /* \"#utility.yul\":11068:11447   */\n      swap2\n      swap1\n      pop\n      jump\t// out\n        /* \"#utility.yul\":11453:11698   */\n    tag_229:\n        /* \"#utility.yul\":11593:11627   */\n      0x416464726573733a20756e61626c6520746f2073656e642076616c75652c2072\n        /* \"#utility.yul\":11589:11590   */\n      0x00\n        /* \"#utility.yul\":11581:11587   */\n      dup3\n        /* \"#utility.yul\":11577:11591   */\n      add\n        /* \"#utility.yul\":11570:11628   */\n      mstore\n        /* \"#utility.yul\":11662:11690   */\n      0x6563697069656e74206d61792068617665207265766572746564000000000000\n        /* \"#utility.yul\":11657:11659   */\n      0x20\n        /* \"#utility.yul\":11649:11655   */\n      dup3\n        /* \"#utility.yul\":11645:11660   */\n      add\n        /* \"#utility.yul\":11638:11691   */\n      mstore\n        /* \"#utility.yul\":11453:11698   */\n      pop\n      jump\t// out\n        /* \"#utility.yul\":11704:12070   */\n    tag_230:\n        /* \"#utility.yul\":11846:11849   */\n      0x00\n        /* \"#utility.yul\":11867:11934   */\n      tag_366\n        /* \"#utility.yul\":11931:11933   */\n      0x3a\n        /* \"#utility.yul\":11926:11929   */\n      dup4\n        /* \"#utility.yul\":11867:11934   */\n      tag_212\n      jump\t// in\n    tag_366:\n        /* \"#utility.yul\":11860:11934   */\n      swap2\n      pop\n        /* \"#utility.yul\":11943:12036   */\n      tag_367\n        /* \"#utility.yul\":12032:12035   */\n      dup3\n        /* \"#utility.yul\":11943:12036   */\n      tag_229\n      jump\t// in\n    tag_367:\n        /* \"#utility.yul\":12061:12063   */\n      0x40\n        /* \"#utility.yul\":12056:12059   */\n      dup3\n        /* \"#utility.yul\":12052:12064   */\n      add\n        /* \"#utility.yul\":12045:12064   */\n      swap1\n      pop\n        /* \"#utility.yul\":11704:12070   */\n      swap2\n      swap1\n      pop\n      jump\t// out\n        /* \"#utility.yul\":12076:12495   */\n    tag_142:\n        /* \"#utility.yul\":12242:12246   */\n      0x00\n        /* \"#utility.yul\":12280:12282   */\n      0x20\n        /* \"#utility.yul\":12269:12278   */\n      dup3\n        /* \"#utility.yul\":12265:12283   */\n      add\n        /* \"#utility.yul\":12257:12283   */\n      swap1\n      pop\n        /* \"#utility.yul\":12329:12338   */\n      dup2\n        /* \"#utility.yul\":12323:12327   */\n      dup2\n        /* \"#utility.yul\":12319:12339   */\n      sub\n        /* \"#utility.yul\":12315:12316   */\n      0x00\n        /* \"#utility.yul\":12304:12313   */\n      dup4\n        /* \"#utility.yul\":12300:12317   */\n      add\n        /* \"#utility.yul\":12293:12340   */\n      mstore\n        /* \"#utility.yul\":12357:12488   */\n      tag_369\n        /* \"#utility.yul\":12483:12487   */\n      dup2\n        /* \"#utility.yul\":12357:12488   */\n      tag_230\n      jump\t// in\n    tag_369:\n        /* \"#utility.yul\":12349:12488   */\n      swap1\n      pop\n        /* \"#utility.yul\":12076:12495   */\n      swap2\n      swap1\n      pop\n      jump\t// out\n        /* \"#utility.yul\":12501:12849   */\n    tag_149:\n        /* \"#utility.yul\":12541:12548   */\n      0x00\n        /* \"#utility.yul\":12564:12584   */\n      tag_371\n        /* \"#utility.yul\":12582:12583   */\n      dup3\n        /* \"#utility.yul\":12564:12584   */\n      tag_197\n      jump\t// in\n    tag_371:\n        /* \"#utility.yul\":12559:12584   */\n      swap2\n      pop\n        /* \"#utility.yul\":12598:12618   */\n      tag_372\n        /* \"#utility.yul\":12616:12617   */\n      dup4\n        /* \"#utility.yul\":12598:12618   */\n      tag_197\n      jump\t// in\n    tag_372:\n        /* \"#utility.yul\":12593:12618   */\n      swap3\n      pop\n        /* \"#utility.yul\":12786:12787   */\n      dup2\n        /* \"#utility.yul\":12718:12784   */\n      0xffffffffffffffffffffffffffffffffffffffffffffffffffffffffffffffff\n        /* \"#utility.yul\":12714:12788   */\n      div\n        /* \"#utility.yul\":12711:12712   */\n      dup4\n        /* \"#utility.yul\":12708:12789   */\n      gt\n        /* \"#utility.yul\":12703:12704   */\n      dup3\n        /* \"#utility.yul\":12696:12705   */\n      iszero\n        /* \"#utility.yul\":12689:12706   */\n      iszero\n        /* \"#utility.yul\":12685:12790   */\n      and\n        /* \"#utility.yul\":12682:12813   */\n      iszero\n      tag_373\n      jumpi\n        /* \"#utility.yul\":12793:12811   */\n      tag_374\n      tag_217\n      jump\t// in\n    tag_374:\n        /* \"#utility.yul\":12682:12813   */\n    tag_373:\n        /* \"#utility.yul\":12841:12842   */\n      dup3\n        /* \"#utility.yul\":12838:12839   */\n      dup3\n        /* \"#utility.yul\":12834:12843   */\n      mul\n        /* \"#utility.yul\":12823:12843   */\n      swap1\n      pop\n        /* \"#utility.yul\":12501:12849   */\n      swap3\n      swap2\n      pop\n      pop\n      jump\t// out\n        /* \"#utility.yul\":12855:13035   */\n    tag_231:\n        /* \"#utility.yul\":12903:12980   */\n      0x4e487b7100000000000000000000000000000000000000000000000000000000\n        /* \"#utility.yul\":12900:12901   */\n      0x00\n        /* \"#utility.yul\":12893:12981   */\n      mstore\n        /* \"#utility.yul\":13000:13004   */\n      0x12\n        /* \"#utility.yul\":12997:12998   */\n      0x04\n        /* \"#utility.yul\":12990:13005   */\n      mstore\n        /* \"#utility.yul\":13024:13028   */\n      0x24\n        /* \"#utility.yul\":13021:13022   */\n      0x00\n        /* \"#utility.yul\":13014:13029   */\n      revert\n        /* \"#utility.yul\":13041:13226   */\n    tag_151:\n        /* \"#utility.yul\":13081:13082   */\n      0x00\n        /* \"#utility.yul\":13098:13118   */\n      tag_377\n        /* \"#utility.yul\":13116:13117   */\n      dup3\n        /* \"#utility.yul\":13098:13118   */\n      tag_197\n      jump\t// in\n    tag_377:\n        /* \"#utility.yul\":13093:13118   */\n      swap2\n      pop\n        /* \"#utility.yul\":13132:13152   */\n      tag_378\n        /* \"#utility.yul\":13150:13151   */\n      dup4\n        /* \"#utility.yul\":13132:13152   */\n      tag_197\n      jump\t// in\n    tag_378:\n        /* \"#utility.yul\":13127:13152   */\n      swap3\n      pop\n        /* \"#utility.yul\":13171:13172   */\n      dup3\n        /* \"#utility.yul\":13161:13196   */\n      tag_379\n      jumpi\n        /* \"#utility.yul\":13176:13194   */\n      tag_380\n      tag_231\n      jump\t// in\n    tag_380:\n        /* \"#utility.yul\":13161:13196   */\n    tag_379:\n        /* \"#utility.yul\":13218:13219   */\n      dup3\n        /* \"#utility.yul\":13215:13216   */\n      dup3\n        /* \"#utility.yul\":13211:13220   */\n      div\n        /* \"#utility.yul\":13206:13220   */\n      swap1\n      pop\n        /* \"#utility.yul\":13041:13226   */\n      swap3\n      swap2\n      pop\n      pop\n      jump\t// out\n        /* \"#utility.yul\":13232:13423   */\n    tag_153:\n        /* \"#utility.yul\":13272:13276   */\n      0x00\n        /* \"#utility.yul\":13292:13312   */\n      tag_382\n        /* \"#utility.yul\":13310:13311   */\n      dup3\n        /* \"#utility.yul\":13292:13312   */\n      tag_197\n      jump\t// in\n    tag_382:\n        /* \"#utility.yul\":13287:13312   */\n      swap2\n      pop\n        /* \"#utility.yul\":13326:13346   */\n      tag_383\n        /* \"#utility.yul\":13344:13345   */\n      dup4\n        /* \"#utility.yul\":13326:13346   */\n      tag_197\n      jump\t// in\n    tag_383:\n        /* \"#utility.yul\":13321:13346   */\n      swap3\n      pop\n        /* \"#utility.yul\":13365:13366   */\n      dup3\n        /* \"#utility.yul\":13362:13363   */\n      dup3\n        /* \"#utility.yul\":13359:13367   */\n      lt\n        /* \"#utility.yul\":13356:13390   */\n      iszero\n      tag_384\n      jumpi\n        /* \"#utility.yul\":13370:13388   */\n      tag_385\n      tag_217\n      jump\t// in\n    tag_385:\n        /* \"#utility.yul\":13356:13390   */\n    tag_384:\n        /* \"#utility.yul\":13415:13416   */\n      dup3\n        /* \"#utility.yul\":13412:13413   */\n      dup3\n        /* \"#utility.yul\":13408:13417   */\n      sub\n        /* \"#utility.yul\":13400:13417   */\n      swap1\n      pop\n        /* \"#utility.yul\":13232:13423   */\n      swap3\n      swap2\n      pop\n      pop\n      jump\t// out\n        /* \"#utility.yul\":13429:13519   */\n    tag_232:\n        /* \"#utility.yul\":13463:13470   */\n      0x00\n        /* \"#utility.yul\":13506:13511   */\n      dup2\n        /* \"#utility.yul\":13499:13512   */\n      iszero\n        /* \"#utility.yul\":13492:13513   */\n      iszero\n        /* \"#utility.yul\":13481:13513   */\n      swap1\n      pop\n        /* \"#utility.yul\":13429:13519   */\n      swap2\n      swap1\n      pop\n      jump\t// out\n        /* \"#utility.yul\":13525:13641   */\n    tag_233:\n        /* \"#utility.yul\":13595:13616   */\n      tag_388\n        /* \"#utility.yul\":13610:13615   */\n      dup2\n        /* \"#utility.yul\":13595:13616   */\n      tag_232\n      jump\t// in\n    tag_388:\n        /* \"#utility.yul\":13588:13593   */\n      dup2\n        /* \"#utility.yul\":13585:13617   */\n      eq\n        /* \"#utility.yul\":13575:13635   */\n      tag_389\n      jumpi\n        /* \"#utility.yul\":13631:13632   */\n      0x00\n        /* \"#utility.yul\":13628:13629   */\n      dup1\n        /* \"#utility.yul\":13621:13633   */\n      revert\n        /* \"#utility.yul\":13575:13635   */\n    tag_389:\n        /* \"#utility.yul\":13525:13641   */\n      pop\n      jump\t// out\n        /* \"#utility.yul\":13647:13784   */\n    tag_234:\n        /* \"#utility.yul\":13701:13706   */\n      0x00\n        /* \"#utility.yul\":13732:13738   */\n      dup2\n        /* \"#utility.yul\":13726:13739   */\n      mload\n        /* \"#utility.yul\":13717:13739   */\n      swap1\n      pop\n        /* \"#utility.yul\":13748:13778   */\n      tag_391\n        /* \"#utility.yul\":13772:13777   */\n      dup2\n        /* \"#utility.yul\":13748:13778   */\n      tag_233\n      jump\t// in\n    tag_391:\n        /* \"#utility.yul\":13647:13784   */\n      swap3\n      swap2\n      pop\n      pop\n      jump\t// out\n        /* \"#utility.yul\":13790:14135   */\n    tag_159:\n        /* \"#utility.yul\":13857:13863   */\n      0x00\n        /* \"#utility.yul\":13906:13908   */\n      0x20\n        /* \"#utility.yul\":13894:13903   */\n      dup3\n        /* \"#utility.yul\":13885:13892   */\n      dup5\n        /* \"#utility.yul\":13881:13904   */\n      sub\n        /* \"#utility.yul\":13877:13909   */\n      slt\n        /* \"#utility.yul\":13874:13993   */\n      iszero\n      tag_393\n      jumpi\n        /* \"#utility.yul\":13912:13991   */\n      tag_394\n      tag_200\n      jump\t// in\n    tag_394:\n        /* \"#utility.yul\":13874:13993   */\n    tag_393:\n        /* \"#utility.yul\":14032:14033   */\n      0x00\n        /* \"#utility.yul\":14057:14118   */\n      tag_395\n        /* \"#utility.yul\":14110:14117   */\n      dup5\n        /* \"#utility.yul\":14101:14107   */\n      dup3\n        /* \"#utility.yul\":14090:14099   */\n      dup6\n        /* \"#utility.yul\":14086:14108   */\n      add\n        /* \"#utility.yul\":14057:14118   */\n      tag_234\n      jump\t// in\n    tag_395:\n        /* \"#utility.yul\":14047:14118   */\n      swap2\n      pop\n        /* \"#utility.yul\":14003:14128   */\n      pop\n        /* \"#utility.yul\":13790:14135   */\n      swap3\n      swap2\n      pop\n      pop\n      jump\t// out\n        /* \"#utility.yul\":14141:14370   */\n    tag_235:\n        /* \"#utility.yul\":14281:14315   */\n      0x5361666545524332303a204552433230206f7065726174696f6e20646964206e\n        /* \"#utility.yul\":14277:14278   */\n      0x00\n        /* \"#utility.yul\":14269:14275   */\n      dup3\n        /* \"#utility.yul\":14265:14279   */\n      add\n        /* \"#utility.yul\":14258:14316   */\n      mstore\n        /* \"#utility.yul\":14350:14362   */\n      0x6f74207375636365656400000000000000000000000000000000000000000000\n        /* \"#utility.yul\":14345:14347   */\n      0x20\n        /* \"#utility.yul\":14337:14343   */\n      dup3\n        /* \"#utility.yul\":14333:14348   */\n      add\n        /* \"#utility.yul\":14326:14363   */\n      mstore\n        /* \"#utility.yul\":14141:14370   */\n      pop\n      jump\t// out\n        /* \"#utility.yul\":14376:14742   */\n    tag_236:\n        /* \"#utility.yul\":14518:14521   */\n      0x00\n        /* \"#utility.yul\":14539:14606   */\n      tag_398\n        /* \"#utility.yul\":14603:14605   */\n      0x2a\n        /* \"#utility.yul\":14598:14601   */\n      dup4\n        /* \"#utility.yul\":14539:14606   */\n      tag_212\n      jump\t// in\n    tag_398:\n        /* \"#utility.yul\":14532:14606   */\n      swap2\n      pop\n        /* \"#utility.yul\":14615:14708   */\n      tag_399\n        /* \"#utility.yul\":14704:14707   */\n      dup3\n        /* \"#utility.yul\":14615:14708   */\n      tag_235\n      jump\t// in\n    tag_399:\n        /* \"#utility.yul\":14733:14735   */\n      0x40\n        /* \"#utility.yul\":14728:14731   */\n      dup3\n        /* \"#utility.yul\":14724:14736   */\n      add\n        /* \"#utility.yul\":14717:14736   */\n      swap1\n      pop\n        /* \"#utility.yul\":14376:14742   */\n      swap2\n      swap1\n      pop\n      jump\t// out\n        /* \"#utility.yul\":14748:15167   */\n    tag_162:\n        /* \"#utility.yul\":14914:14918   */\n      0x00\n        /* \"#utility.yul\":14952:14954   */\n      0x20\n        /* \"#utility.yul\":14941:14950   */\n      dup3\n        /* \"#utility.yul\":14937:14955   */\n      add\n        /* \"#utility.yul\":14929:14955   */\n      swap1\n      pop\n        /* \"#utility.yul\":15001:15010   */\n      dup2\n        /* \"#utility.yul\":14995:14999   */\n      dup2\n        /* \"#utility.yul\":14991:15011   */\n      sub\n        /* \"#utility.yul\":14987:14988   */\n      0x00\n        /* \"#utility.yul\":14976:14985   */\n      dup4\n        /* \"#utility.yul\":14972:14989   */\n      add\n        /* \"#utility.yul\":14965:15012   */\n      mstore\n        /* \"#utility.yul\":15029:15160   */\n      tag_401\n        /* \"#utility.yul\":15155:15159   */\n      dup2\n        /* \"#utility.yul\":15029:15160   */\n      tag_236\n      jump\t// in\n    tag_401:\n        /* \"#utility.yul\":15021:15160   */\n      swap1\n      pop\n        /* \"#utility.yul\":14748:15167   */\n      swap2\n      swap1\n      pop\n      jump\t// out\n        /* \"#utility.yul\":15173:15398   */\n    tag_237:\n        /* \"#utility.yul\":15313:15347   */\n      0x416464726573733a20696e73756666696369656e742062616c616e636520666f\n        /* \"#utility.yul\":15309:15310   */\n      0x00\n        /* \"#utility.yul\":15301:15307   */\n      dup3\n        /* \"#utility.yul\":15297:15311   */\n      add\n        /* \"#utility.yul\":15290:15348   */\n      mstore\n        /* \"#utility.yul\":15382:15390   */\n      0x722063616c6c0000000000000000000000000000000000000000000000000000\n        /* \"#utility.yul\":15377:15379   */\n      0x20\n        /* \"#utility.yul\":15369:15375   */\n      dup3\n        /* \"#utility.yul\":15365:15380   */\n      add\n        /* \"#utility.yul\":15358:15391   */\n      mstore\n        /* \"#utility.yul\":15173:15398   */\n      pop\n      jump\t// out\n        /* \"#utility.yul\":15404:15770   */\n    tag_238:\n        /* \"#utility.yul\":15546:15549   */\n      0x00\n        /* \"#utility.yul\":15567:15634   */\n      tag_404\n        /* \"#utility.yul\":15631:15633   */\n      0x26\n        /* \"#utility.yul\":15626:15629   */\n      dup4\n        /* \"#utility.yul\":15567:15634   */\n      tag_212\n      jump\t// in\n    tag_404:\n        /* \"#utility.yul\":15560:15634   */\n      swap2\n      pop\n        /* \"#utility.yul\":15643:15736   */\n      tag_405\n        /* \"#utility.yul\":15732:15735   */\n      dup3\n        /* \"#utility.yul\":15643:15736   */\n      tag_237\n      jump\t// in\n    tag_405:\n        /* \"#utility.yul\":15761:15763   */\n      0x40\n        /* \"#utility.yul\":15756:15759   */\n      dup3\n        /* \"#utility.yul\":15752:15764   */\n      add\n        /* \"#utility.yul\":15745:15764   */\n      swap1\n      pop\n        /* \"#utility.yul\":15404:15770   */\n      swap2\n      swap1\n      pop\n      jump\t// out\n        /* \"#utility.yul\":15776:16195   */\n    tag_169:\n        /* \"#utility.yul\":15942:15946   */\n      0x00\n        /* \"#utility.yul\":15980:15982   */\n      0x20\n        /* \"#utility.yul\":15969:15978   */\n      dup3\n        /* \"#utility.yul\":15965:15983   */\n      add\n        /* \"#utility.yul\":15957:15983   */\n      swap1\n      pop\n        /* \"#utility.yul\":16029:16038   */\n      dup2\n        /* \"#utility.yul\":16023:16027   */\n      dup2\n        /* \"#utility.yul\":16019:16039   */\n      sub\n        /* \"#utility.yul\":16015:16016   */\n      0x00\n        /* \"#utility.yul\":16004:16013   */\n      dup4\n        /* \"#utility.yul\":16000:16017   */\n      add\n        /* \"#utility.yul\":15993:16040   */\n      mstore\n        /* \"#utility.yul\":16057:16188   */\n      tag_407\n        /* \"#utility.yul\":16183:16187   */\n      dup2\n        /* \"#utility.yul\":16057:16188   */\n      tag_238\n      jump\t// in\n    tag_407:\n        /* \"#utility.yul\":16049:16188   */\n      swap1\n      pop\n        /* \"#utility.yul\":15776:16195   */\n      swap2\n      swap1\n      pop\n      jump\t// out\n        /* \"#utility.yul\":16201:16299   */\n    tag_239:\n        /* \"#utility.yul\":16252:16258   */\n      0x00\n        /* \"#utility.yul\":16286:16291   */\n      dup2\n        /* \"#utility.yul\":16280:16292   */\n      mload\n        /* \"#utility.yul\":16270:16292   */\n      swap1\n      pop\n        /* \"#utility.yul\":16201:16299   */\n      swap2\n      swap1\n      pop\n      jump\t// out\n        /* \"#utility.yul\":16305:16612   */\n    tag_240:\n        /* \"#utility.yul\":16373:16374   */\n      0x00\n        /* \"#utility.yul\":16383:16496   */\n    tag_410:\n        /* \"#utility.yul\":16397:16403   */\n      dup4\n        /* \"#utility.yul\":16394:16395   */\n      dup2\n        /* \"#utility.yul\":16391:16404   */\n      lt\n        /* \"#utility.yul\":16383:16496   */\n      iszero\n      tag_412\n      jumpi\n        /* \"#utility.yul\":16482:16483   */\n      dup1\n        /* \"#utility.yul\":16477:16480   */\n      dup3\n        /* \"#utility.yul\":16473:16484   */\n      add\n        /* \"#utility.yul\":16467:16485   */\n      mload\n        /* \"#utility.yul\":16463:16464   */\n      dup2\n        /* \"#utility.yul\":16458:16461   */\n      dup5\n        /* \"#utility.yul\":16454:16465   */\n      add\n        /* \"#utility.yul\":16447:16486   */\n      mstore\n        /* \"#utility.yul\":16419:16421   */\n      0x20\n        /* \"#utility.yul\":16416:16417   */\n      dup2\n        /* \"#utility.yul\":16412:16422   */\n      add\n        /* \"#utility.yul\":16407:16422   */\n      swap1\n      pop\n        /* \"#utility.yul\":16383:16496   */\n      jump(tag_410)\n    tag_412:\n        /* \"#utility.yul\":16514:16520   */\n      dup4\n        /* \"#utility.yul\":16511:16512   */\n      dup2\n        /* \"#utility.yul\":16508:16521   */\n      gt\n        /* \"#utility.yul\":16505:16606   */\n      iszero\n      tag_413\n      jumpi\n        /* \"#utility.yul\":16594:16595   */\n      0x00\n        /* \"#utility.yul\":16585:16591   */\n      dup5\n        /* \"#utility.yul\":16580:16583   */\n      dup5\n        /* \"#utility.yul\":16576:16592   */\n      add\n        /* \"#utility.yul\":16569:16596   */\n      mstore\n        /* \"#utility.yul\":16505:16606   */\n    tag_413:\n        /* \"#utility.yul\":16354:16612   */\n      pop\n        /* \"#utility.yul\":16305:16612   */\n      pop\n      pop\n      pop\n      jump\t// out\n        /* \"#utility.yul\":16618:16991   */\n    tag_241:\n        /* \"#utility.yul\":16722:16725   */\n      0x00\n        /* \"#utility.yul\":16750:16788   */\n      tag_415\n        /* \"#utility.yul\":16782:16787   */\n      dup3\n        /* \"#utility.yul\":16750:16788   */\n      tag_239\n      jump\t// in\n    tag_415:\n        /* \"#utility.yul\":16804:16892   */\n      tag_416\n        /* \"#utility.yul\":16885:16891   */\n      dup2\n        /* \"#utility.yul\":16880:16883   */\n      dup6\n        /* \"#utility.yul\":16804:16892   */\n      tag_226\n      jump\t// in\n    tag_416:\n        /* \"#utility.yul\":16797:16892   */\n      swap4\n      pop\n        /* \"#utility.yul\":16901:16953   */\n      tag_417\n        /* \"#utility.yul\":16946:16952   */\n      dup2\n        /* \"#utility.yul\":16941:16944   */\n      dup6\n        /* \"#utility.yul\":16934:16938   */\n      0x20\n        /* \"#utility.yul\":16927:16932   */\n      dup7\n        /* \"#utility.yul\":16923:16939   */\n      add\n        /* \"#utility.yul\":16901:16953   */\n      tag_240\n      jump\t// in\n    tag_417:\n        /* \"#utility.yul\":16978:16984   */\n      dup1\n        /* \"#utility.yul\":16973:16976   */\n      dup5\n        /* \"#utility.yul\":16969:16985   */\n      add\n        /* \"#utility.yul\":16962:16985   */\n      swap2\n      pop\n        /* \"#utility.yul\":16726:16991   */\n      pop\n        /* \"#utility.yul\":16618:16991   */\n      swap3\n      swap2\n      pop\n      pop\n      jump\t// out\n        /* \"#utility.yul\":16997:17268   */\n    tag_171:\n        /* \"#utility.yul\":17127:17130   */\n      0x00\n        /* \"#utility.yul\":17149:17242   */\n      tag_419\n        /* \"#utility.yul\":17238:17241   */\n      dup3\n        /* \"#utility.yul\":17229:17235   */\n      dup5\n        /* \"#utility.yul\":17149:17242   */\n      tag_241\n      jump\t// in\n    tag_419:\n        /* \"#utility.yul\":17142:17242   */\n      swap2\n      pop\n        /* \"#utility.yul\":17259:17262   */\n      dup2\n        /* \"#utility.yul\":17252:17262   */\n      swap1\n      pop\n        /* \"#utility.yul\":16997:17268   */\n      swap3\n      swap2\n      pop\n      pop\n      jump\t// out\n        /* \"#utility.yul\":17274:17453   */\n    tag_242:\n        /* \"#utility.yul\":17414:17445   */\n      0x416464726573733a2063616c6c20746f206e6f6e2d636f6e7472616374000000\n        /* \"#utility.yul\":17410:17411   */\n      0x00\n        /* \"#utility.yul\":17402:17408   */\n      dup3\n        /* \"#utility.yul\":17398:17412   */\n      add\n        /* \"#utility.yul\":17391:17446   */\n      mstore\n        /* \"#utility.yul\":17274:17453   */\n      pop\n      jump\t// out\n        /* \"#utility.yul\":17459:17825   */\n    tag_243:\n        /* \"#utility.yul\":17601:17604   */\n      0x00\n        /* \"#utility.yul\":17622:17689   */\n      tag_422\n        /* \"#utility.yul\":17686:17688   */\n      0x1d\n        /* \"#utility.yul\":17681:17684   */\n      dup4\n        /* \"#utility.yul\":17622:17689   */\n      tag_212\n      jump\t// in\n    tag_422:\n        /* \"#utility.yul\":17615:17689   */\n      swap2\n      pop\n        /* \"#utility.yul\":17698:17791   */\n      tag_423\n        /* \"#utility.yul\":17787:17790   */\n      dup3\n        /* \"#utility.yul\":17698:17791   */\n      tag_242\n      jump\t// in\n    tag_423:\n        /* \"#utility.yul\":17816:17818   */\n      0x20\n        /* \"#utility.yul\":17811:17814   */\n      dup3\n        /* \"#utility.yul\":17807:17819   */\n      add\n        /* \"#utility.yul\":17800:17819   */\n      swap1\n      pop\n        /* \"#utility.yul\":17459:17825   */\n      swap2\n      swap1\n      pop\n      jump\t// out\n        /* \"#utility.yul\":17831:18250   */\n    tag_184:\n        /* \"#utility.yul\":17997:18001   */\n      0x00\n        /* \"#utility.yul\":18035:18037   */\n      0x20\n        /* \"#utility.yul\":18024:18033   */\n      dup3\n        /* \"#utility.yul\":18020:18038   */\n      add\n        /* \"#utility.yul\":18012:18038   */\n      swap1\n      pop\n        /* \"#utility.yul\":18084:18093   */\n      dup2\n        /* \"#utility.yul\":18078:18082   */\n      dup2\n        /* \"#utility.yul\":18074:18094   */\n      sub\n        /* \"#utility.yul\":18070:18071   */\n      0x00\n        /* \"#utility.yul\":18059:18068   */\n      dup4\n        /* \"#utility.yul\":18055:18072   */\n      add\n        /* \"#utility.yul\":18048:18095   */\n      mstore\n        /* \"#utility.yul\":18112:18243   */\n      tag_425\n        /* \"#utility.yul\":18238:18242   */\n      dup2\n        /* \"#utility.yul\":18112:18243   */\n      tag_243\n      jump\t// in\n    tag_425:\n        /* \"#utility.yul\":18104:18243   */\n      swap1\n      pop\n        /* \"#utility.yul\":17831:18250   */\n      swap2\n      swap1\n      pop\n      jump\t// out\n        /* \"#utility.yul\":18256:18355   */\n    tag_244:\n        /* \"#utility.yul\":18308:18314   */\n      0x00\n        /* \"#utility.yul\":18342:18347   */\n      dup2\n        /* \"#utility.yul\":18336:18348   */\n      mload\n        /* \"#utility.yul\":18326:18348   */\n      swap1\n      pop\n        /* \"#utility.yul\":18256:18355   */\n      swap2\n      swap1\n      pop\n      jump\t// out\n        /* \"#utility.yul\":18361:18463   */\n    tag_245:\n        /* \"#utility.yul\":18402:18408   */\n      0x00\n        /* \"#utility.yul\":18453:18455   */\n      0x1f\n        /* \"#utility.yul\":18449:18456   */\n      not\n        /* \"#utility.yul\":18444:18446   */\n      0x1f\n        /* \"#utility.yul\":18437:18442   */\n      dup4\n        /* \"#utility.yul\":18433:18447   */\n      add\n        /* \"#utility.yul\":18429:18457   */\n      and\n        /* \"#utility.yul\":18419:18457   */\n      swap1\n      pop\n        /* \"#utility.yul\":18361:18463   */\n      swap2\n      swap1\n      pop\n      jump\t// out\n        /* \"#utility.yul\":18469:18833   */\n    tag_246:\n        /* \"#utility.yul\":18557:18560   */\n      0x00\n        /* \"#utility.yul\":18585:18624   */\n      tag_429\n        /* \"#utility.yul\":18618:18623   */\n      dup3\n        /* \"#utility.yul\":18585:18624   */\n      tag_244\n      jump\t// in\n    tag_429:\n        /* \"#utility.yul\":18640:18711   */\n      tag_430\n        /* \"#utility.yul\":18704:18710   */\n      dup2\n        /* \"#utility.yul\":18699:18702   */\n      dup6\n        /* \"#utility.yul\":18640:18711   */\n      tag_212\n      jump\t// in\n    tag_430:\n        /* \"#utility.yul\":18633:18711   */\n      swap4\n      pop\n        /* \"#utility.yul\":18720:18772   */\n      tag_431\n        /* \"#utility.yul\":18765:18771   */\n      dup2\n        /* \"#utility.yul\":18760:18763   */\n      dup6\n        /* \"#utility.yul\":18753:18757   */\n      0x20\n        /* \"#utility.yul\":18746:18751   */\n      dup7\n        /* \"#utility.yul\":18742:18758   */\n      add\n        /* \"#utility.yul\":18720:18772   */\n      tag_240\n      jump\t// in\n    tag_431:\n        /* \"#utility.yul\":18797:18826   */\n      tag_432\n        /* \"#utility.yul\":18819:18825   */\n      dup2\n        /* \"#utility.yul\":18797:18826   */\n      tag_245\n      jump\t// in\n    tag_432:\n        /* \"#utility.yul\":18792:18795   */\n      dup5\n        /* \"#utility.yul\":18788:18827   */\n      add\n        /* \"#utility.yul\":18781:18827   */\n      swap2\n      pop\n        /* \"#utility.yul\":18561:18833   */\n      pop\n        /* \"#utility.yul\":18469:18833   */\n      swap3\n      swap2\n      pop\n      pop\n      jump\t// out\n        /* \"#utility.yul\":18839:19152   */\n    tag_193:\n        /* \"#utility.yul\":18952:18956   */\n      0x00\n        /* \"#utility.yul\":18990:18992   */\n      0x20\n        /* \"#utility.yul\":18979:18988   */\n      dup3\n        /* \"#utility.yul\":18975:18993   */\n      add\n        /* \"#utility.yul\":18967:18993   */\n      swap1\n      pop\n        /* \"#utility.yul\":19039:19048   */\n      dup2\n        /* \"#utility.yul\":19033:19037   */\n      dup2\n        /* \"#utility.yul\":19029:19049   */\n      sub\n        /* \"#utility.yul\":19025:19026   */\n      0x00\n        /* \"#utility.yul\":19014:19023   */\n      dup4\n        /* \"#utility.yul\":19010:19027   */\n      add\n        /* \"#utility.yul\":19003:19050   */\n      mstore\n        /* \"#utility.yul\":19067:19145   */\n      tag_434\n        /* \"#utility.yul\":19140:19144   */\n      dup2\n        /* \"#utility.yul\":19131:19137   */\n      dup5\n        /* \"#utility.yul\":19067:19145   */\n      tag_246\n      jump\t// in\n    tag_434:\n        /* \"#utility.yul\":19059:19145   */\n      swap1\n      pop\n        /* \"#utility.yul\":18839:19152   */\n      swap3\n      swap2\n      pop\n      pop\n      jump\t// out\n\n    auxdata: 0xa2646970667358221220932f6436dcd87c4fbd3d266fd052a93e5cac2e5b66883653f220105faf72174464736f6c634300080f0033\n}\n",
				"bytecode": {
					"linkReferences": {},
					"object": "60806040526040516200239738038062002397833981810160405281019062000029919062000667565b805182511462000070576040517f08c379a0000000000000000000000000000000000000000000000000000000008152600401620000679062000773565b60405180910390fd5b6000825111620000b7576040517f08c379a0000000000000000000000000000000000000000000000000000000008152600401620000ae90620007e5565b60405180910390fd5b60005b8251811015620001265762000110838281518110620000de57620000dd62000807565b5b6020026020010151838381518110620000fc57620000fb62000807565b5b60200260200101516200012f60201b60201c565b80806200011d9062000865565b915050620000ba565b50505062000b00565b600073ffffffffffffffffffffffffffffffffffffffff168273ffffffffffffffffffffffffffffffffffffffff1603620001a1576040517f08c379a0000000000000000000000000000000000000000000000000000000008152600401620001989062000928565b60405180910390fd5b60008111620001e7576040517f08c379a0000000000000000000000000000000000000000000000000000000008152600401620001de906200099a565b60405180910390fd5b6000600260008473ffffffffffffffffffffffffffffffffffffffff1673ffffffffffffffffffffffffffffffffffffffff16815260200190815260200160002054146200026c576040517f08c379a0000000000000000000000000000000000000000000000000000000008152600401620002639062000a32565b60405180910390fd5b6004829080600181540180825580915050600190039060005260206000200160009091909190916101000a81548173ffffffffffffffffffffffffffffffffffffffff021916908373ffffffffffffffffffffffffffffffffffffffff16021790555080600260008473ffffffffffffffffffffffffffffffffffffffff1673ffffffffffffffffffffffffffffffffffffffff168152602001908152602001600020819055508060005462000323919062000a54565b6000819055507f40c340f65e17194d14ddddb073d3c9f888e3cb52b5aae0c6c7706b4fbc905fac82826040516200035c92919062000ad3565b60405180910390a15050565b6000604051905090565b600080fd5b600080fd5b600080fd5b6000601f19601f8301169050919050565b7f4e487b7100000000000000000000000000000000000000000000000000000000600052604160045260246000fd5b620003cc8262000381565b810181811067ffffffffffffffff82111715620003ee57620003ed62000392565b5b80604052505050565b60006200040362000368565b9050620004118282620003c1565b919050565b600067ffffffffffffffff82111562000434576200043362000392565b5b602082029050602081019050919050565b600080fd5b600073ffffffffffffffffffffffffffffffffffffffff82169050919050565b600062000477826200044a565b9050919050565b62000489816200046a565b81146200049557600080fd5b50565b600081519050620004a9816200047e565b92915050565b6000620004c6620004c08462000416565b620003f7565b90508083825260208201905060208402830185811115620004ec57620004eb62000445565b5b835b8181101562000519578062000504888262000498565b845260208401935050602081019050620004ee565b5050509392505050565b600082601f8301126200053b576200053a6200037c565b5b81516200054d848260208601620004af565b91505092915050565b600067ffffffffffffffff82111562000574576200057362000392565b5b602082029050602081019050919050565b6000819050919050565b6200059a8162000585565b8114620005a657600080fd5b50565b600081519050620005ba816200058f565b92915050565b6000620005d7620005d18462000556565b620003f7565b90508083825260208201905060208402830185811115620005fd57620005fc62000445565b5b835b818110156200062a5780620006158882620005a9565b845260208401935050602081019050620005ff565b5050509392505050565b600082601f8301126200064c576200064b6200037c565b5b81516200065e848260208601620005c0565b91505092915050565b6000806040838503121562000681576200068062000372565b5b600083015167ffffffffffffffff811115620006a257620006a162000377565b5b620006b08582860162000523565b925050602083015167ffffffffffffffff811115620006d457620006d362000377565b5b620006e28582860162000634565b9150509250929050565b600082825260208201905092915050565b7f5061796d656e7453706c69747465723a2070617965657320616e64207368617260008201527f6573206c656e677468206d69736d617463680000000000000000000000000000602082015250565b60006200075b603283620006ec565b91506200076882620006fd565b604082019050919050565b600060208201905081810360008301526200078e816200074c565b9050919050565b7f5061796d656e7453706c69747465723a206e6f20706179656573000000000000600082015250565b6000620007cd601a83620006ec565b9150620007da8262000795565b602082019050919050565b600060208201905081810360008301526200080081620007be565b9050919050565b7f4e487b7100000000000000000000000000000000000000000000000000000000600052603260045260246000fd5b7f4e487b7100000000000000000000000000000000000000000000000000000000600052601160045260246000fd5b6000620008728262000585565b91507fffffffffffffffffffffffffffffffffffffffffffffffffffffffffffffffff8203620008a757620008a662000836565b5b600182019050919050565b7f5061796d656e7453706c69747465723a206163636f756e74206973207468652060008201527f7a65726f20616464726573730000000000000000000000000000000000000000602082015250565b600062000910602c83620006ec565b91506200091d82620008b2565b604082019050919050565b60006020820190508181036000830152620009438162000901565b9050919050565b7f5061796d656e7453706c69747465723a20736861726573206172652030000000600082015250565b600062000982601d83620006ec565b91506200098f826200094a565b602082019050919050565b60006020820190508181036000830152620009b58162000973565b9050919050565b7f5061796d656e7453706c69747465723a206163636f756e7420616c726561647960008201527f2068617320736861726573000000000000000000000000000000000000000000602082015250565b600062000a1a602b83620006ec565b915062000a2782620009bc565b604082019050919050565b6000602082019050818103600083015262000a4d8162000a0b565b9050919050565b600062000a618262000585565b915062000a6e8362000585565b9250827fffffffffffffffffffffffffffffffffffffffffffffffffffffffffffffffff0382111562000aa65762000aa562000836565b5b828201905092915050565b62000abc816200046a565b82525050565b62000acd8162000585565b82525050565b600060408201905062000aea600083018562000ab1565b62000af9602083018462000ac2565b9392505050565b6118878062000b106000396000f3fe6080604052600436106100a05760003560e01c80639852595c116100645780639852595c146101e3578063a3f8eace14610220578063c45ac0501461025d578063ce7c2ac21461029a578063d79779b2146102d7578063e33b7de314610314576100e7565b806319165587146100ec5780633a98ef3914610115578063406072a91461014057806348b750441461017d5780638b83209b146101a6576100e7565b366100e7577f6ef95f06320e7a25a04a175ca677b7052bdd97131872c2192525a629f51be7706100ce61033f565b346040516100dd929190610e4e565b60405180910390a1005b600080fd5b3480156100f857600080fd5b50610113600480360381019061010e9190610eba565b610347565b005b34801561012157600080fd5b5061012a6104c6565b6040516101379190610ee7565b60405180910390f35b34801561014c57600080fd5b5061016760048036038101906101629190610f6c565b6104cf565b6040516101749190610ee7565b60405180910390f35b34801561018957600080fd5b506101a4600480360381019061019f9190610f6c565b610556565b005b3480156101b257600080fd5b506101cd60048036038101906101c89190610fd8565b610769565b6040516101da9190611005565b60405180910390f35b3480156101ef57600080fd5b5061020a60048036038101906102059190611020565b6107b1565b6040516102179190610ee7565b60405180910390f35b34801561022c57600080fd5b5061024760048036038101906102429190611020565b6107fa565b6040516102549190610ee7565b60405180910390f35b34801561026957600080fd5b50610284600480360381019061027f9190610f6c565b61082d565b6040516102919190610ee7565b60405180910390f35b3480156102a657600080fd5b506102c160048036038101906102bc9190611020565b6108dc565b6040516102ce9190610ee7565b60405180910390f35b3480156102e357600080fd5b506102fe60048036038101906102f9919061104d565b610925565b60405161030b9190610ee7565b60405180910390f35b34801561032057600080fd5b5061032961096e565b6040516103369190610ee7565b60405180910390f35b600033905090565b6000600260008373ffffffffffffffffffffffffffffffffffffffff1673ffffffffffffffffffffffffffffffffffffffff16815260200190815260200160002054116103c9576040517f08c379a00000000000000000000000000000000000000000000000000000000081526004016103c0906110fd565b60405180910390fd5b60006103d4826107fa565b905060008103610419576040517f08c379a00000000000000000000000000000000000000000000000000000000081526004016104109061118f565b60405180910390fd5b806001600082825461042b91906111de565b9250508190555080600360008473ffffffffffffffffffffffffffffffffffffffff1673ffffffffffffffffffffffffffffffffffffffff168152602001908152602001600020600082825401925050819055506104898282610978565b7fdf20fd1e76bc69d672e4814fafb2c449bba3a5369d8359adf9e05e6fde87b05682826040516104ba929190611293565b60405180910390a15050565b60008054905090565b6000600660008473ffffffffffffffffffffffffffffffffffffffff1673ffffffffffffffffffffffffffffffffffffffff16815260200190815260200160002060008373ffffffffffffffffffffffffffffffffffffffff1673ffffffffffffffffffffffffffffffffffffffff16815260200190815260200160002054905092915050565b6000600260008373ffffffffffffffffffffffffffffffffffffffff1673ffffffffffffffffffffffffffffffffffffffff16815260200190815260200160002054116105d8576040517f08c379a00000000000000000000000000000000000000000000000000000000081526004016105cf906110fd565b60405180910390fd5b60006105e4838361082d565b905060008103610629576040517f08c379a00000000000000000000000000000000000000000000000000000000081526004016106209061118f565b60405180910390fd5b80600560008573ffffffffffffffffffffffffffffffffffffffff1673ffffffffffffffffffffffffffffffffffffffff168152602001908152602001600020600082825461067891906111de565b9250508190555080600660008573ffffffffffffffffffffffffffffffffffffffff1673ffffffffffffffffffffffffffffffffffffffff16815260200190815260200160002060008473ffffffffffffffffffffffffffffffffffffffff1673ffffffffffffffffffffffffffffffffffffffff16815260200190815260200160002060008282540192505081905550610714838383610a6c565b8273ffffffffffffffffffffffffffffffffffffffff167f3be5b7a71e84ed12875d241991c70855ac5817d847039e17a9d895c1ceb0f18a838360405161075c929190610e4e565b60405180910390a2505050565b60006004828154811061077f5761077e6112bc565b5b9060005260206000200160009054906101000a900473ffffffffffffffffffffffffffffffffffffffff169050919050565b6000600360008373ffffffffffffffffffffffffffffffffffffffff1673ffffffffffffffffffffffffffffffffffffffff168152602001908152602001600020549050919050565b60008061080561096e565b4761081091906111de565b90506108258382610820866107b1565b610af2565b915050919050565b60008061083984610925565b8473ffffffffffffffffffffffffffffffffffffffff166370a08231306040518263ffffffff1660e01b81526004016108729190611005565b602060405180830381865afa15801561088f573d6000803e3d6000fd5b505050506040513d601f19601f820116820180604052508101906108b39190611300565b6108bd91906111de565b90506108d383826108ce87876104cf565b610af2565b91505092915050565b6000600260008373ffffffffffffffffffffffffffffffffffffffff1673ffffffffffffffffffffffffffffffffffffffff168152602001908152602001600020549050919050565b6000600560008373ffffffffffffffffffffffffffffffffffffffff1673ffffffffffffffffffffffffffffffffffffffff168152602001908152602001600020549050919050565b6000600154905090565b804710156109bb576040517f08c379a00000000000000000000000000000000000000000000000000000000081526004016109b290611379565b60405180910390fd5b60008273ffffffffffffffffffffffffffffffffffffffff16826040516109e1906113ca565b60006040518083038185875af1925050503d8060008114610a1e576040519150601f19603f3d011682016040523d82523d6000602084013e610a23565b606091505b5050905080610a67576040517f08c379a0000000000000000000000000000000000000000000000000000000008152600401610a5e90611451565b60405180910390fd5b505050565b610aed8363a9059cbb60e01b8484604051602401610a8b929190610e4e565b604051602081830303815290604052907bffffffffffffffffffffffffffffffffffffffffffffffffffffffff19166020820180517bffffffffffffffffffffffffffffffffffffffffffffffffffffffff8381831617835250505050610b60565b505050565b600081600054600260008773ffffffffffffffffffffffffffffffffffffffff1673ffffffffffffffffffffffffffffffffffffffff1681526020019081526020016000205485610b439190611471565b610b4d91906114fa565b610b57919061152b565b90509392505050565b6000610bc2826040518060400160405280602081526020017f5361666545524332303a206c6f772d6c6576656c2063616c6c206661696c65648152508573ffffffffffffffffffffffffffffffffffffffff16610c279092919063ffffffff16565b9050600081511115610c225780806020019051810190610be29190611597565b610c21576040517f08c379a0000000000000000000000000000000000000000000000000000000008152600401610c1890611636565b60405180910390fd5b5b505050565b6060610c368484600085610c3f565b90509392505050565b606082471015610c84576040517f08c379a0000000000000000000000000000000000000000000000000000000008152600401610c7b906116c8565b60405180910390fd5b6000808673ffffffffffffffffffffffffffffffffffffffff168587604051610cad9190611757565b60006040518083038185875af1925050503d8060008114610cea576040519150601f19603f3d011682016040523d82523d6000602084013e610cef565b606091505b5091509150610d0087838387610d0c565b92505050949350505050565b60608315610d6e576000835103610d6657610d2685610d81565b610d65576040517f08c379a0000000000000000000000000000000000000000000000000000000008152600401610d5c906117ba565b60405180910390fd5b5b829050610d79565b610d788383610da4565b5b949350505050565b6000808273ffffffffffffffffffffffffffffffffffffffff163b119050919050565b600082511115610db75781518083602001fd5b806040517f08c379a0000000000000000000000000000000000000000000000000000000008152600401610deb919061182f565b60405180910390fd5b600073ffffffffffffffffffffffffffffffffffffffff82169050919050565b6000610e1f82610df4565b9050919050565b610e2f81610e14565b82525050565b6000819050919050565b610e4881610e35565b82525050565b6000604082019050610e636000830185610e26565b610e706020830184610e3f565b9392505050565b600080fd5b6000610e8782610df4565b9050919050565b610e9781610e7c565b8114610ea257600080fd5b50565b600081359050610eb481610e8e565b92915050565b600060208284031215610ed057610ecf610e77565b5b6000610ede84828501610ea5565b91505092915050565b6000602082019050610efc6000830184610e3f565b92915050565b6000610f0d82610e14565b9050919050565b610f1d81610f02565b8114610f2857600080fd5b50565b600081359050610f3a81610f14565b92915050565b610f4981610e14565b8114610f5457600080fd5b50565b600081359050610f6681610f40565b92915050565b60008060408385031215610f8357610f82610e77565b5b6000610f9185828601610f2b565b9250506020610fa285828601610f57565b9150509250929050565b610fb581610e35565b8114610fc057600080fd5b50565b600081359050610fd281610fac565b92915050565b600060208284031215610fee57610fed610e77565b5b6000610ffc84828501610fc3565b91505092915050565b600060208201905061101a6000830184610e26565b92915050565b60006020828403121561103657611035610e77565b5b600061104484828501610f57565b91505092915050565b60006020828403121561106357611062610e77565b5b600061107184828501610f2b565b91505092915050565b600082825260208201905092915050565b7f5061796d656e7453706c69747465723a206163636f756e7420686173206e6f2060008201527f7368617265730000000000000000000000000000000000000000000000000000602082015250565b60006110e760268361107a565b91506110f28261108b565b604082019050919050565b60006020820190508181036000830152611116816110da565b9050919050565b7f5061796d656e7453706c69747465723a206163636f756e74206973206e6f742060008201527f647565207061796d656e74000000000000000000000000000000000000000000602082015250565b6000611179602b8361107a565b91506111848261111d565b604082019050919050565b600060208201905081810360008301526111a88161116c565b9050919050565b7f4e487b7100000000000000000000000000000000000000000000000000000000600052601160045260246000fd5b60006111e982610e35565b91506111f483610e35565b9250827fffffffffffffffffffffffffffffffffffffffffffffffffffffffffffffffff03821115611229576112286111af565b5b828201905092915050565b6000819050919050565b600061125961125461124f84610df4565b611234565b610df4565b9050919050565b600061126b8261123e565b9050919050565b600061127d82611260565b9050919050565b61128d81611272565b82525050565b60006040820190506112a86000830185611284565b6112b56020830184610e3f565b9392505050565b7f4e487b7100000000000000000000000000000000000000000000000000000000600052603260045260246000fd5b6000815190506112fa81610fac565b92915050565b60006020828403121561131657611315610e77565b5b6000611324848285016112eb565b91505092915050565b7f416464726573733a20696e73756666696369656e742062616c616e6365000000600082015250565b6000611363601d8361107a565b915061136e8261132d565b602082019050919050565b6000602082019050818103600083015261139281611356565b9050919050565b600081905092915050565b50565b60006113b4600083611399565b91506113bf826113a4565b600082019050919050565b60006113d5826113a7565b9150819050919050565b7f416464726573733a20756e61626c6520746f2073656e642076616c75652c207260008201527f6563697069656e74206d61792068617665207265766572746564000000000000602082015250565b600061143b603a8361107a565b9150611446826113df565b604082019050919050565b6000602082019050818103600083015261146a8161142e565b9050919050565b600061147c82610e35565b915061148783610e35565b9250817fffffffffffffffffffffffffffffffffffffffffffffffffffffffffffffffff04831182151516156114c0576114bf6111af565b5b828202905092915050565b7f4e487b7100000000000000000000000000000000000000000000000000000000600052601260045260246000fd5b600061150582610e35565b915061151083610e35565b9250826115205761151f6114cb565b5b828204905092915050565b600061153682610e35565b915061154183610e35565b925082821015611554576115536111af565b5b828203905092915050565b60008115159050919050565b6115748161155f565b811461157f57600080fd5b50565b6000815190506115918161156b565b92915050565b6000602082840312156115ad576115ac610e77565b5b60006115bb84828501611582565b91505092915050565b7f5361666545524332303a204552433230206f7065726174696f6e20646964206e60008201527f6f74207375636365656400000000000000000000000000000000000000000000602082015250565b6000611620602a8361107a565b915061162b826115c4565b604082019050919050565b6000602082019050818103600083015261164f81611613565b9050919050565b7f416464726573733a20696e73756666696369656e742062616c616e636520666f60008201527f722063616c6c0000000000000000000000000000000000000000000000000000602082015250565b60006116b260268361107a565b91506116bd82611656565b604082019050919050565b600060208201905081810360008301526116e1816116a5565b9050919050565b600081519050919050565b60005b838110156117115780820151818401526020810190506116f6565b83811115611720576000848401525b50505050565b6000611731826116e8565b61173b8185611399565b935061174b8185602086016116f3565b80840191505092915050565b60006117638284611726565b915081905092915050565b7f416464726573733a2063616c6c20746f206e6f6e2d636f6e7472616374000000600082015250565b60006117a4601d8361107a565b91506117af8261176e565b602082019050919050565b600060208201905081810360008301526117d381611797565b9050919050565b600081519050919050565b6000601f19601f8301169050919050565b6000611801826117da565b61180b818561107a565b935061181b8185602086016116f3565b611824816117e5565b840191505092915050565b6000602082019050818103600083015261184981846117f6565b90509291505056fea2646970667358221220932f6436dcd87c4fbd3d266fd052a93e5cac2e5b66883653f220105faf72174464736f6c634300080f0033",
					"opcodes": "PUSH1 0x80 PUSH1 0x40 MSTORE PUSH1 0x40 MLOAD PUSH3 0x2397 CODESIZE SUB DUP1 PUSH3 0x2397 DUP4 CODECOPY DUP2 DUP2 ADD PUSH1 0x40 MSTORE DUP2 ADD SWAP1 PUSH3 0x29 SWAP2 SWAP1 PUSH3 0x667 JUMP JUMPDEST DUP1 MLOAD DUP3 MLOAD EQ PUSH3 0x70 JUMPI PUSH1 0x40 MLOAD PUSH32 0x8C379A000000000000000000000000000000000000000000000000000000000 DUP2 MSTORE PUSH1 0x4 ADD PUSH3 0x67 SWAP1 PUSH3 0x773 JUMP JUMPDEST PUSH1 0x40 MLOAD DUP1 SWAP2 SUB SWAP1 REVERT JUMPDEST PUSH1 0x0 DUP3 MLOAD GT PUSH3 0xB7 JUMPI PUSH1 0x40 MLOAD PUSH32 0x8C379A000000000000000000000000000000000000000000000000000000000 DUP2 MSTORE PUSH1 0x4 ADD PUSH3 0xAE SWAP1 PUSH3 0x7E5 JUMP JUMPDEST PUSH1 0x40 MLOAD DUP1 SWAP2 SUB SWAP1 REVERT JUMPDEST PUSH1 0x0 JUMPDEST DUP3 MLOAD DUP2 LT ISZERO PUSH3 0x126 JUMPI PUSH3 0x110 DUP4 DUP3 DUP2 MLOAD DUP2 LT PUSH3 0xDE JUMPI PUSH3 0xDD PUSH3 0x807 JUMP JUMPDEST JUMPDEST PUSH1 0x20 MUL PUSH1 0x20 ADD ADD MLOAD DUP4 DUP4 DUP2 MLOAD DUP2 LT PUSH3 0xFC JUMPI PUSH3 0xFB PUSH3 0x807 JUMP JUMPDEST JUMPDEST PUSH1 0x20 MUL PUSH1 0x20 ADD ADD MLOAD PUSH3 0x12F PUSH1 0x20 SHL PUSH1 0x20 SHR JUMP JUMPDEST DUP1 DUP1 PUSH3 0x11D SWAP1 PUSH3 0x865 JUMP JUMPDEST SWAP2 POP POP PUSH3 0xBA JUMP JUMPDEST POP POP POP PUSH3 0xB00 JUMP JUMPDEST PUSH1 0x0 PUSH20 0xFFFFFFFFFFFFFFFFFFFFFFFFFFFFFFFFFFFFFFFF AND DUP3 PUSH20 0xFFFFFFFFFFFFFFFFFFFFFFFFFFFFFFFFFFFFFFFF AND SUB PUSH3 0x1A1 JUMPI PUSH1 0x40 MLOAD PUSH32 0x8C379A000000000000000000000000000000000000000000000000000000000 DUP2 MSTORE PUSH1 0x4 ADD PUSH3 0x198 SWAP1 PUSH3 0x928 JUMP JUMPDEST PUSH1 0x40 MLOAD DUP1 SWAP2 SUB SWAP1 REVERT JUMPDEST PUSH1 0x0 DUP2 GT PUSH3 0x1E7 JUMPI PUSH1 0x40 MLOAD PUSH32 0x8C379A000000000000000000000000000000000000000000000000000000000 DUP2 MSTORE PUSH1 0x4 ADD PUSH3 0x1DE SWAP1 PUSH3 0x99A JUMP JUMPDEST PUSH1 0x40 MLOAD DUP1 SWAP2 SUB SWAP1 REVERT JUMPDEST PUSH1 0x0 PUSH1 0x2 PUSH1 0x0 DUP5 PUSH20 0xFFFFFFFFFFFFFFFFFFFFFFFFFFFFFFFFFFFFFFFF AND PUSH20 0xFFFFFFFFFFFFFFFFFFFFFFFFFFFFFFFFFFFFFFFF AND DUP2 MSTORE PUSH1 0x20 ADD SWAP1 DUP2 MSTORE PUSH1 0x20 ADD PUSH1 0x0 KECCAK256 SLOAD EQ PUSH3 0x26C JUMPI PUSH1 0x40 MLOAD PUSH32 0x8C379A000000000000000000000000000000000000000000000000000000000 DUP2 MSTORE PUSH1 0x4 ADD PUSH3 0x263 SWAP1 PUSH3 0xA32 JUMP JUMPDEST PUSH1 0x40 MLOAD DUP1 SWAP2 SUB SWAP1 REVERT JUMPDEST PUSH1 0x4 DUP3 SWAP1 DUP1 PUSH1 0x1 DUP2 SLOAD ADD DUP1 DUP3 SSTORE DUP1 SWAP2 POP POP PUSH1 0x1 SWAP1 SUB SWAP1 PUSH1 0x0 MSTORE PUSH1 0x20 PUSH1 0x0 KECCAK256 ADD PUSH1 0x0 SWAP1 SWAP2 SWAP1 SWAP2 SWAP1 SWAP2 PUSH2 0x100 EXP DUP2 SLOAD DUP2 PUSH20 0xFFFFFFFFFFFFFFFFFFFFFFFFFFFFFFFFFFFFFFFF MUL NOT AND SWAP1 DUP4 PUSH20 0xFFFFFFFFFFFFFFFFFFFFFFFFFFFFFFFFFFFFFFFF AND MUL OR SWAP1 SSTORE POP DUP1 PUSH1 0x2 PUSH1 0x0 DUP5 PUSH20 0xFFFFFFFFFFFFFFFFFFFFFFFFFFFFFFFFFFFFFFFF AND PUSH20 0xFFFFFFFFFFFFFFFFFFFFFFFFFFFFFFFFFFFFFFFF AND DUP2 MSTORE PUSH1 0x20 ADD SWAP1 DUP2 MSTORE PUSH1 0x20 ADD PUSH1 0x0 KECCAK256 DUP2 SWAP1 SSTORE POP DUP1 PUSH1 0x0 SLOAD PUSH3 0x323 SWAP2 SWAP1 PUSH3 0xA54 JUMP JUMPDEST PUSH1 0x0 DUP2 SWAP1 SSTORE POP PUSH32 0x40C340F65E17194D14DDDDB073D3C9F888E3CB52B5AAE0C6C7706B4FBC905FAC DUP3 DUP3 PUSH1 0x40 MLOAD PUSH3 0x35C SWAP3 SWAP2 SWAP1 PUSH3 0xAD3 JUMP JUMPDEST PUSH1 0x40 MLOAD DUP1 SWAP2 SUB SWAP1 LOG1 POP POP JUMP JUMPDEST PUSH1 0x0 PUSH1 0x40 MLOAD SWAP1 POP SWAP1 JUMP JUMPDEST PUSH1 0x0 DUP1 REVERT JUMPDEST PUSH1 0x0 DUP1 REVERT JUMPDEST PUSH1 0x0 DUP1 REVERT JUMPDEST PUSH1 0x0 PUSH1 0x1F NOT PUSH1 0x1F DUP4 ADD AND SWAP1 POP SWAP2 SWAP1 POP JUMP JUMPDEST PUSH32 0x4E487B7100000000000000000000000000000000000000000000000000000000 PUSH1 0x0 MSTORE PUSH1 0x41 PUSH1 0x4 MSTORE PUSH1 0x24 PUSH1 0x0 REVERT JUMPDEST PUSH3 0x3CC DUP3 PUSH3 0x381 JUMP JUMPDEST DUP2 ADD DUP2 DUP2 LT PUSH8 0xFFFFFFFFFFFFFFFF DUP3 GT OR ISZERO PUSH3 0x3EE JUMPI PUSH3 0x3ED PUSH3 0x392 JUMP JUMPDEST JUMPDEST DUP1 PUSH1 0x40 MSTORE POP POP POP JUMP JUMPDEST PUSH1 0x0 PUSH3 0x403 PUSH3 0x368 JUMP JUMPDEST SWAP1 POP PUSH3 0x411 DUP3 DUP3 PUSH3 0x3C1 JUMP JUMPDEST SWAP2 SWAP1 POP JUMP JUMPDEST PUSH1 0x0 PUSH8 0xFFFFFFFFFFFFFFFF DUP3 GT ISZERO PUSH3 0x434 JUMPI PUSH3 0x433 PUSH3 0x392 JUMP JUMPDEST JUMPDEST PUSH1 0x20 DUP3 MUL SWAP1 POP PUSH1 0x20 DUP2 ADD SWAP1 POP SWAP2 SWAP1 POP JUMP JUMPDEST PUSH1 0x0 DUP1 REVERT JUMPDEST PUSH1 0x0 PUSH20 0xFFFFFFFFFFFFFFFFFFFFFFFFFFFFFFFFFFFFFFFF DUP3 AND SWAP1 POP SWAP2 SWAP1 POP JUMP JUMPDEST PUSH1 0x0 PUSH3 0x477 DUP3 PUSH3 0x44A JUMP JUMPDEST SWAP1 POP SWAP2 SWAP1 POP JUMP JUMPDEST PUSH3 0x489 DUP2 PUSH3 0x46A JUMP JUMPDEST DUP2 EQ PUSH3 0x495 JUMPI PUSH1 0x0 DUP1 REVERT JUMPDEST POP JUMP JUMPDEST PUSH1 0x0 DUP2 MLOAD SWAP1 POP PUSH3 0x4A9 DUP2 PUSH3 0x47E JUMP JUMPDEST SWAP3 SWAP2 POP POP JUMP JUMPDEST PUSH1 0x0 PUSH3 0x4C6 PUSH3 0x4C0 DUP5 PUSH3 0x416 JUMP JUMPDEST PUSH3 0x3F7 JUMP JUMPDEST SWAP1 POP DUP1 DUP4 DUP3 MSTORE PUSH1 0x20 DUP3 ADD SWAP1 POP PUSH1 0x20 DUP5 MUL DUP4 ADD DUP6 DUP2 GT ISZERO PUSH3 0x4EC JUMPI PUSH3 0x4EB PUSH3 0x445 JUMP JUMPDEST JUMPDEST DUP4 JUMPDEST DUP2 DUP2 LT ISZERO PUSH3 0x519 JUMPI DUP1 PUSH3 0x504 DUP9 DUP3 PUSH3 0x498 JUMP JUMPDEST DUP5 MSTORE PUSH1 0x20 DUP5 ADD SWAP4 POP POP PUSH1 0x20 DUP2 ADD SWAP1 POP PUSH3 0x4EE JUMP JUMPDEST POP POP POP SWAP4 SWAP3 POP POP POP JUMP JUMPDEST PUSH1 0x0 DUP3 PUSH1 0x1F DUP4 ADD SLT PUSH3 0x53B JUMPI PUSH3 0x53A PUSH3 0x37C JUMP JUMPDEST JUMPDEST DUP2 MLOAD PUSH3 0x54D DUP5 DUP3 PUSH1 0x20 DUP7 ADD PUSH3 0x4AF JUMP JUMPDEST SWAP2 POP POP SWAP3 SWAP2 POP POP JUMP JUMPDEST PUSH1 0x0 PUSH8 0xFFFFFFFFFFFFFFFF DUP3 GT ISZERO PUSH3 0x574 JUMPI PUSH3 0x573 PUSH3 0x392 JUMP JUMPDEST JUMPDEST PUSH1 0x20 DUP3 MUL SWAP1 POP PUSH1 0x20 DUP2 ADD SWAP1 POP SWAP2 SWAP1 POP JUMP JUMPDEST PUSH1 0x0 DUP2 SWAP1 POP SWAP2 SWAP1 POP JUMP JUMPDEST PUSH3 0x59A DUP2 PUSH3 0x585 JUMP JUMPDEST DUP2 EQ PUSH3 0x5A6 JUMPI PUSH1 0x0 DUP1 REVERT JUMPDEST POP JUMP JUMPDEST PUSH1 0x0 DUP2 MLOAD SWAP1 POP PUSH3 0x5BA DUP2 PUSH3 0x58F JUMP JUMPDEST SWAP3 SWAP2 POP POP JUMP JUMPDEST PUSH1 0x0 PUSH3 0x5D7 PUSH3 0x5D1 DUP5 PUSH3 0x556 JUMP JUMPDEST PUSH3 0x3F7 JUMP JUMPDEST SWAP1 POP DUP1 DUP4 DUP3 MSTORE PUSH1 0x20 DUP3 ADD SWAP1 POP PUSH1 0x20 DUP5 MUL DUP4 ADD DUP6 DUP2 GT ISZERO PUSH3 0x5FD JUMPI PUSH3 0x5FC PUSH3 0x445 JUMP JUMPDEST JUMPDEST DUP4 JUMPDEST DUP2 DUP2 LT ISZERO PUSH3 0x62A JUMPI DUP1 PUSH3 0x615 DUP9 DUP3 PUSH3 0x5A9 JUMP JUMPDEST DUP5 MSTORE PUSH1 0x20 DUP5 ADD SWAP4 POP POP PUSH1 0x20 DUP2 ADD SWAP1 POP PUSH3 0x5FF JUMP JUMPDEST POP POP POP SWAP4 SWAP3 POP POP POP JUMP JUMPDEST PUSH1 0x0 DUP3 PUSH1 0x1F DUP4 ADD SLT PUSH3 0x64C JUMPI PUSH3 0x64B PUSH3 0x37C JUMP JUMPDEST JUMPDEST DUP2 MLOAD PUSH3 0x65E DUP5 DUP3 PUSH1 0x20 DUP7 ADD PUSH3 0x5C0 JUMP JUMPDEST SWAP2 POP POP SWAP3 SWAP2 POP POP JUMP JUMPDEST PUSH1 0x0 DUP1 PUSH1 0x40 DUP4 DUP6 SUB SLT ISZERO PUSH3 0x681 JUMPI PUSH3 0x680 PUSH3 0x372 JUMP JUMPDEST JUMPDEST PUSH1 0x0 DUP4 ADD MLOAD PUSH8 0xFFFFFFFFFFFFFFFF DUP2 GT ISZERO PUSH3 0x6A2 JUMPI PUSH3 0x6A1 PUSH3 0x377 JUMP JUMPDEST JUMPDEST PUSH3 0x6B0 DUP6 DUP3 DUP7 ADD PUSH3 0x523 JUMP JUMPDEST SWAP3 POP POP PUSH1 0x20 DUP4 ADD MLOAD PUSH8 0xFFFFFFFFFFFFFFFF DUP2 GT ISZERO PUSH3 0x6D4 JUMPI PUSH3 0x6D3 PUSH3 0x377 JUMP JUMPDEST JUMPDEST PUSH3 0x6E2 DUP6 DUP3 DUP7 ADD PUSH3 0x634 JUMP JUMPDEST SWAP2 POP POP SWAP3 POP SWAP3 SWAP1 POP JUMP JUMPDEST PUSH1 0x0 DUP3 DUP3 MSTORE PUSH1 0x20 DUP3 ADD SWAP1 POP SWAP3 SWAP2 POP POP JUMP JUMPDEST PUSH32 0x5061796D656E7453706C69747465723A2070617965657320616E642073686172 PUSH1 0x0 DUP3 ADD MSTORE PUSH32 0x6573206C656E677468206D69736D617463680000000000000000000000000000 PUSH1 0x20 DUP3 ADD MSTORE POP JUMP JUMPDEST PUSH1 0x0 PUSH3 0x75B PUSH1 0x32 DUP4 PUSH3 0x6EC JUMP JUMPDEST SWAP2 POP PUSH3 0x768 DUP3 PUSH3 0x6FD JUMP JUMPDEST PUSH1 0x40 DUP3 ADD SWAP1 POP SWAP2 SWAP1 POP JUMP JUMPDEST PUSH1 0x0 PUSH1 0x20 DUP3 ADD SWAP1 POP DUP2 DUP2 SUB PUSH1 0x0 DUP4 ADD MSTORE PUSH3 0x78E DUP2 PUSH3 0x74C JUMP JUMPDEST SWAP1 POP SWAP2 SWAP1 POP JUMP JUMPDEST PUSH32 0x5061796D656E7453706C69747465723A206E6F20706179656573000000000000 PUSH1 0x0 DUP3 ADD MSTORE POP JUMP JUMPDEST PUSH1 0x0 PUSH3 0x7CD PUSH1 0x1A DUP4 PUSH3 0x6EC JUMP JUMPDEST SWAP2 POP PUSH3 0x7DA DUP3 PUSH3 0x795 JUMP JUMPDEST PUSH1 0x20 DUP3 ADD SWAP1 POP SWAP2 SWAP1 POP JUMP JUMPDEST PUSH1 0x0 PUSH1 0x20 DUP3 ADD SWAP1 POP DUP2 DUP2 SUB PUSH1 0x0 DUP4 ADD MSTORE PUSH3 0x800 DUP2 PUSH3 0x7BE JUMP JUMPDEST SWAP1 POP SWAP2 SWAP1 POP JUMP JUMPDEST PUSH32 0x4E487B7100000000000000000000000000000000000000000000000000000000 PUSH1 0x0 MSTORE PUSH1 0x32 PUSH1 0x4 MSTORE PUSH1 0x24 PUSH1 0x0 REVERT JUMPDEST PUSH32 0x4E487B7100000000000000000000000000000000000000000000000000000000 PUSH1 0x0 MSTORE PUSH1 0x11 PUSH1 0x4 MSTORE PUSH1 0x24 PUSH1 0x0 REVERT JUMPDEST PUSH1 0x0 PUSH3 0x872 DUP3 PUSH3 0x585 JUMP JUMPDEST SWAP2 POP PUSH32 0xFFFFFFFFFFFFFFFFFFFFFFFFFFFFFFFFFFFFFFFFFFFFFFFFFFFFFFFFFFFFFFFF DUP3 SUB PUSH3 0x8A7 JUMPI PUSH3 0x8A6 PUSH3 0x836 JUMP JUMPDEST JUMPDEST PUSH1 0x1 DUP3 ADD SWAP1 POP SWAP2 SWAP1 POP JUMP JUMPDEST PUSH32 0x5061796D656E7453706C69747465723A206163636F756E742069732074686520 PUSH1 0x0 DUP3 ADD MSTORE PUSH32 0x7A65726F20616464726573730000000000000000000000000000000000000000 PUSH1 0x20 DUP3 ADD MSTORE POP JUMP JUMPDEST PUSH1 0x0 PUSH3 0x910 PUSH1 0x2C DUP4 PUSH3 0x6EC JUMP JUMPDEST SWAP2 POP PUSH3 0x91D DUP3 PUSH3 0x8B2 JUMP JUMPDEST PUSH1 0x40 DUP3 ADD SWAP1 POP SWAP2 SWAP1 POP JUMP JUMPDEST PUSH1 0x0 PUSH1 0x20 DUP3 ADD SWAP1 POP DUP2 DUP2 SUB PUSH1 0x0 DUP4 ADD MSTORE PUSH3 0x943 DUP2 PUSH3 0x901 JUMP JUMPDEST SWAP1 POP SWAP2 SWAP1 POP JUMP JUMPDEST PUSH32 0x5061796D656E7453706C69747465723A20736861726573206172652030000000 PUSH1 0x0 DUP3 ADD MSTORE POP JUMP JUMPDEST PUSH1 0x0 PUSH3 0x982 PUSH1 0x1D DUP4 PUSH3 0x6EC JUMP JUMPDEST SWAP2 POP PUSH3 0x98F DUP3 PUSH3 0x94A JUMP JUMPDEST PUSH1 0x20 DUP3 ADD SWAP1 POP SWAP2 SWAP1 POP JUMP JUMPDEST PUSH1 0x0 PUSH1 0x20 DUP3 ADD SWAP1 POP DUP2 DUP2 SUB PUSH1 0x0 DUP4 ADD MSTORE PUSH3 0x9B5 DUP2 PUSH3 0x973 JUMP JUMPDEST SWAP1 POP SWAP2 SWAP1 POP JUMP JUMPDEST PUSH32 0x5061796D656E7453706C69747465723A206163636F756E7420616C7265616479 PUSH1 0x0 DUP3 ADD MSTORE PUSH32 0x2068617320736861726573000000000000000000000000000000000000000000 PUSH1 0x20 DUP3 ADD MSTORE POP JUMP JUMPDEST PUSH1 0x0 PUSH3 0xA1A PUSH1 0x2B DUP4 PUSH3 0x6EC JUMP JUMPDEST SWAP2 POP PUSH3 0xA27 DUP3 PUSH3 0x9BC JUMP JUMPDEST PUSH1 0x40 DUP3 ADD SWAP1 POP SWAP2 SWAP1 POP JUMP JUMPDEST PUSH1 0x0 PUSH1 0x20 DUP3 ADD SWAP1 POP DUP2 DUP2 SUB PUSH1 0x0 DUP4 ADD MSTORE PUSH3 0xA4D DUP2 PUSH3 0xA0B JUMP JUMPDEST SWAP1 POP SWAP2 SWAP1 POP JUMP JUMPDEST PUSH1 0x0 PUSH3 0xA61 DUP3 PUSH3 0x585 JUMP JUMPDEST SWAP2 POP PUSH3 0xA6E DUP4 PUSH3 0x585 JUMP JUMPDEST SWAP3 POP DUP3 PUSH32 0xFFFFFFFFFFFFFFFFFFFFFFFFFFFFFFFFFFFFFFFFFFFFFFFFFFFFFFFFFFFFFFFF SUB DUP3 GT ISZERO PUSH3 0xAA6 JUMPI PUSH3 0xAA5 PUSH3 0x836 JUMP JUMPDEST JUMPDEST DUP3 DUP3 ADD SWAP1 POP SWAP3 SWAP2 POP POP JUMP JUMPDEST PUSH3 0xABC DUP2 PUSH3 0x46A JUMP JUMPDEST DUP3 MSTORE POP POP JUMP JUMPDEST PUSH3 0xACD DUP2 PUSH3 0x585 JUMP JUMPDEST DUP3 MSTORE POP POP JUMP JUMPDEST PUSH1 0x0 PUSH1 0x40 DUP3 ADD SWAP1 POP PUSH3 0xAEA PUSH1 0x0 DUP4 ADD DUP6 PUSH3 0xAB1 JUMP JUMPDEST PUSH3 0xAF9 PUSH1 0x20 DUP4 ADD DUP5 PUSH3 0xAC2 JUMP JUMPDEST SWAP4 SWAP3 POP POP POP JUMP JUMPDEST PUSH2 0x1887 DUP1 PUSH3 0xB10 PUSH1 0x0 CODECOPY PUSH1 0x0 RETURN INVALID PUSH1 0x80 PUSH1 0x40 MSTORE PUSH1 0x4 CALLDATASIZE LT PUSH2 0xA0 JUMPI PUSH1 0x0 CALLDATALOAD PUSH1 0xE0 SHR DUP1 PUSH4 0x9852595C GT PUSH2 0x64 JUMPI DUP1 PUSH4 0x9852595C EQ PUSH2 0x1E3 JUMPI DUP1 PUSH4 0xA3F8EACE EQ PUSH2 0x220 JUMPI DUP1 PUSH4 0xC45AC050 EQ PUSH2 0x25D JUMPI DUP1 PUSH4 0xCE7C2AC2 EQ PUSH2 0x29A JUMPI DUP1 PUSH4 0xD79779B2 EQ PUSH2 0x2D7 JUMPI DUP1 PUSH4 0xE33B7DE3 EQ PUSH2 0x314 JUMPI PUSH2 0xE7 JUMP JUMPDEST DUP1 PUSH4 0x19165587 EQ PUSH2 0xEC JUMPI DUP1 PUSH4 0x3A98EF39 EQ PUSH2 0x115 JUMPI DUP1 PUSH4 0x406072A9 EQ PUSH2 0x140 JUMPI DUP1 PUSH4 0x48B75044 EQ PUSH2 0x17D JUMPI DUP1 PUSH4 0x8B83209B EQ PUSH2 0x1A6 JUMPI PUSH2 0xE7 JUMP JUMPDEST CALLDATASIZE PUSH2 0xE7 JUMPI PUSH32 0x6EF95F06320E7A25A04A175CA677B7052BDD97131872C2192525A629F51BE770 PUSH2 0xCE PUSH2 0x33F JUMP JUMPDEST CALLVALUE PUSH1 0x40 MLOAD PUSH2 0xDD SWAP3 SWAP2 SWAP1 PUSH2 0xE4E JUMP JUMPDEST PUSH1 0x40 MLOAD DUP1 SWAP2 SUB SWAP1 LOG1 STOP JUMPDEST PUSH1 0x0 DUP1 REVERT JUMPDEST CALLVALUE DUP1 ISZERO PUSH2 0xF8 JUMPI PUSH1 0x0 DUP1 REVERT JUMPDEST POP PUSH2 0x113 PUSH1 0x4 DUP1 CALLDATASIZE SUB DUP2 ADD SWAP1 PUSH2 0x10E SWAP2 SWAP1 PUSH2 0xEBA JUMP JUMPDEST PUSH2 0x347 JUMP JUMPDEST STOP JUMPDEST CALLVALUE DUP1 ISZERO PUSH2 0x121 JUMPI PUSH1 0x0 DUP1 REVERT JUMPDEST POP PUSH2 0x12A PUSH2 0x4C6 JUMP JUMPDEST PUSH1 0x40 MLOAD PUSH2 0x137 SWAP2 SWAP1 PUSH2 0xEE7 JUMP JUMPDEST PUSH1 0x40 MLOAD DUP1 SWAP2 SUB SWAP1 RETURN JUMPDEST CALLVALUE DUP1 ISZERO PUSH2 0x14C JUMPI PUSH1 0x0 DUP1 REVERT JUMPDEST POP PUSH2 0x167 PUSH1 0x4 DUP1 CALLDATASIZE SUB DUP2 ADD SWAP1 PUSH2 0x162 SWAP2 SWAP1 PUSH2 0xF6C JUMP JUMPDEST PUSH2 0x4CF JUMP JUMPDEST PUSH1 0x40 MLOAD PUSH2 0x174 SWAP2 SWAP1 PUSH2 0xEE7 JUMP JUMPDEST PUSH1 0x40 MLOAD DUP1 SWAP2 SUB SWAP1 RETURN JUMPDEST CALLVALUE DUP1 ISZERO PUSH2 0x189 JUMPI PUSH1 0x0 DUP1 REVERT JUMPDEST POP PUSH2 0x1A4 PUSH1 0x4 DUP1 CALLDATASIZE SUB DUP2 ADD SWAP1 PUSH2 0x19F SWAP2 SWAP1 PUSH2 0xF6C JUMP JUMPDEST PUSH2 0x556 JUMP JUMPDEST STOP JUMPDEST CALLVALUE DUP1 ISZERO PUSH2 0x1B2 JUMPI PUSH1 0x0 DUP1 REVERT JUMPDEST POP PUSH2 0x1CD PUSH1 0x4 DUP1 CALLDATASIZE SUB DUP2 ADD SWAP1 PUSH2 0x1C8 SWAP2 SWAP1 PUSH2 0xFD8 JUMP JUMPDEST PUSH2 0x769 JUMP JUMPDEST PUSH1 0x40 MLOAD PUSH2 0x1DA SWAP2 SWAP1 PUSH2 0x1005 JUMP JUMPDEST PUSH1 0x40 MLOAD DUP1 SWAP2 SUB SWAP1 RETURN JUMPDEST CALLVALUE DUP1 ISZERO PUSH2 0x1EF JUMPI PUSH1 0x0 DUP1 REVERT JUMPDEST POP PUSH2 0x20A PUSH1 0x4 DUP1 CALLDATASIZE SUB DUP2 ADD SWAP1 PUSH2 0x205 SWAP2 SWAP1 PUSH2 0x1020 JUMP JUMPDEST PUSH2 0x7B1 JUMP JUMPDEST PUSH1 0x40 MLOAD PUSH2 0x217 SWAP2 SWAP1 PUSH2 0xEE7 JUMP JUMPDEST PUSH1 0x40 MLOAD DUP1 SWAP2 SUB SWAP1 RETURN JUMPDEST CALLVALUE DUP1 ISZERO PUSH2 0x22C JUMPI PUSH1 0x0 DUP1 REVERT JUMPDEST POP PUSH2 0x247 PUSH1 0x4 DUP1 CALLDATASIZE SUB DUP2 ADD SWAP1 PUSH2 0x242 SWAP2 SWAP1 PUSH2 0x1020 JUMP JUMPDEST PUSH2 0x7FA JUMP JUMPDEST PUSH1 0x40 MLOAD PUSH2 0x254 SWAP2 SWAP1 PUSH2 0xEE7 JUMP JUMPDEST PUSH1 0x40 MLOAD DUP1 SWAP2 SUB SWAP1 RETURN JUMPDEST CALLVALUE DUP1 ISZERO PUSH2 0x269 JUMPI PUSH1 0x0 DUP1 REVERT JUMPDEST POP PUSH2 0x284 PUSH1 0x4 DUP1 CALLDATASIZE SUB DUP2 ADD SWAP1 PUSH2 0x27F SWAP2 SWAP1 PUSH2 0xF6C JUMP JUMPDEST PUSH2 0x82D JUMP JUMPDEST PUSH1 0x40 MLOAD PUSH2 0x291 SWAP2 SWAP1 PUSH2 0xEE7 JUMP JUMPDEST PUSH1 0x40 MLOAD DUP1 SWAP2 SUB SWAP1 RETURN JUMPDEST CALLVALUE DUP1 ISZERO PUSH2 0x2A6 JUMPI PUSH1 0x0 DUP1 REVERT JUMPDEST POP PUSH2 0x2C1 PUSH1 0x4 DUP1 CALLDATASIZE SUB DUP2 ADD SWAP1 PUSH2 0x2BC SWAP2 SWAP1 PUSH2 0x1020 JUMP JUMPDEST PUSH2 0x8DC JUMP JUMPDEST PUSH1 0x40 MLOAD PUSH2 0x2CE SWAP2 SWAP1 PUSH2 0xEE7 JUMP JUMPDEST PUSH1 0x40 MLOAD DUP1 SWAP2 SUB SWAP1 RETURN JUMPDEST CALLVALUE DUP1 ISZERO PUSH2 0x2E3 JUMPI PUSH1 0x0 DUP1 REVERT JUMPDEST POP PUSH2 0x2FE PUSH1 0x4 DUP1 CALLDATASIZE SUB DUP2 ADD SWAP1 PUSH2 0x2F9 SWAP2 SWAP1 PUSH2 0x104D JUMP JUMPDEST PUSH2 0x925 JUMP JUMPDEST PUSH1 0x40 MLOAD PUSH2 0x30B SWAP2 SWAP1 PUSH2 0xEE7 JUMP JUMPDEST PUSH1 0x40 MLOAD DUP1 SWAP2 SUB SWAP1 RETURN JUMPDEST CALLVALUE DUP1 ISZERO PUSH2 0x320 JUMPI PUSH1 0x0 DUP1 REVERT JUMPDEST POP PUSH2 0x329 PUSH2 0x96E JUMP JUMPDEST PUSH1 0x40 MLOAD PUSH2 0x336 SWAP2 SWAP1 PUSH2 0xEE7 JUMP JUMPDEST PUSH1 0x40 MLOAD DUP1 SWAP2 SUB SWAP1 RETURN JUMPDEST PUSH1 0x0 CALLER SWAP1 POP SWAP1 JUMP JUMPDEST PUSH1 0x0 PUSH1 0x2 PUSH1 0x0 DUP4 PUSH20 0xFFFFFFFFFFFFFFFFFFFFFFFFFFFFFFFFFFFFFFFF AND PUSH20 0xFFFFFFFFFFFFFFFFFFFFFFFFFFFFFFFFFFFFFFFF AND DUP2 MSTORE PUSH1 0x20 ADD SWAP1 DUP2 MSTORE PUSH1 0x20 ADD PUSH1 0x0 KECCAK256 SLOAD GT PUSH2 0x3C9 JUMPI PUSH1 0x40 MLOAD PUSH32 0x8C379A000000000000000000000000000000000000000000000000000000000 DUP2 MSTORE PUSH1 0x4 ADD PUSH2 0x3C0 SWAP1 PUSH2 0x10FD JUMP JUMPDEST PUSH1 0x40 MLOAD DUP1 SWAP2 SUB SWAP1 REVERT JUMPDEST PUSH1 0x0 PUSH2 0x3D4 DUP3 PUSH2 0x7FA JUMP JUMPDEST SWAP1 POP PUSH1 0x0 DUP2 SUB PUSH2 0x419 JUMPI PUSH1 0x40 MLOAD PUSH32 0x8C379A000000000000000000000000000000000000000000000000000000000 DUP2 MSTORE PUSH1 0x4 ADD PUSH2 0x410 SWAP1 PUSH2 0x118F JUMP JUMPDEST PUSH1 0x40 MLOAD DUP1 SWAP2 SUB SWAP1 REVERT JUMPDEST DUP1 PUSH1 0x1 PUSH1 0x0 DUP3 DUP3 SLOAD PUSH2 0x42B SWAP2 SWAP1 PUSH2 0x11DE JUMP JUMPDEST SWAP3 POP POP DUP2 SWAP1 SSTORE POP DUP1 PUSH1 0x3 PUSH1 0x0 DUP5 PUSH20 0xFFFFFFFFFFFFFFFFFFFFFFFFFFFFFFFFFFFFFFFF AND PUSH20 0xFFFFFFFFFFFFFFFFFFFFFFFFFFFFFFFFFFFFFFFF AND DUP2 MSTORE PUSH1 0x20 ADD SWAP1 DUP2 MSTORE PUSH1 0x20 ADD PUSH1 0x0 KECCAK256 PUSH1 0x0 DUP3 DUP3 SLOAD ADD SWAP3 POP POP DUP2 SWAP1 SSTORE POP PUSH2 0x489 DUP3 DUP3 PUSH2 0x978 JUMP JUMPDEST PUSH32 0xDF20FD1E76BC69D672E4814FAFB2C449BBA3A5369D8359ADF9E05E6FDE87B056 DUP3 DUP3 PUSH1 0x40 MLOAD PUSH2 0x4BA SWAP3 SWAP2 SWAP1 PUSH2 0x1293 JUMP JUMPDEST PUSH1 0x40 MLOAD DUP1 SWAP2 SUB SWAP1 LOG1 POP POP JUMP JUMPDEST PUSH1 0x0 DUP1 SLOAD SWAP1 POP SWAP1 JUMP JUMPDEST PUSH1 0x0 PUSH1 0x6 PUSH1 0x0 DUP5 PUSH20 0xFFFFFFFFFFFFFFFFFFFFFFFFFFFFFFFFFFFFFFFF AND PUSH20 0xFFFFFFFFFFFFFFFFFFFFFFFFFFFFFFFFFFFFFFFF AND DUP2 MSTORE PUSH1 0x20 ADD SWAP1 DUP2 MSTORE PUSH1 0x20 ADD PUSH1 0x0 KECCAK256 PUSH1 0x0 DUP4 PUSH20 0xFFFFFFFFFFFFFFFFFFFFFFFFFFFFFFFFFFFFFFFF AND PUSH20 0xFFFFFFFFFFFFFFFFFFFFFFFFFFFFFFFFFFFFFFFF AND DUP2 MSTORE PUSH1 0x20 ADD SWAP1 DUP2 MSTORE PUSH1 0x20 ADD PUSH1 0x0 KECCAK256 SLOAD SWAP1 POP SWAP3 SWAP2 POP POP JUMP JUMPDEST PUSH1 0x0 PUSH1 0x2 PUSH1 0x0 DUP4 PUSH20 0xFFFFFFFFFFFFFFFFFFFFFFFFFFFFFFFFFFFFFFFF AND PUSH20 0xFFFFFFFFFFFFFFFFFFFFFFFFFFFFFFFFFFFFFFFF AND DUP2 MSTORE PUSH1 0x20 ADD SWAP1 DUP2 MSTORE PUSH1 0x20 ADD PUSH1 0x0 KECCAK256 SLOAD GT PUSH2 0x5D8 JUMPI PUSH1 0x40 MLOAD PUSH32 0x8C379A000000000000000000000000000000000000000000000000000000000 DUP2 MSTORE PUSH1 0x4 ADD PUSH2 0x5CF SWAP1 PUSH2 0x10FD JUMP JUMPDEST PUSH1 0x40 MLOAD DUP1 SWAP2 SUB SWAP1 REVERT JUMPDEST PUSH1 0x0 PUSH2 0x5E4 DUP4 DUP4 PUSH2 0x82D JUMP JUMPDEST SWAP1 POP PUSH1 0x0 DUP2 SUB PUSH2 0x629 JUMPI PUSH1 0x40 MLOAD PUSH32 0x8C379A000000000000000000000000000000000000000000000000000000000 DUP2 MSTORE PUSH1 0x4 ADD PUSH2 0x620 SWAP1 PUSH2 0x118F JUMP JUMPDEST PUSH1 0x40 MLOAD DUP1 SWAP2 SUB SWAP1 REVERT JUMPDEST DUP1 PUSH1 0x5 PUSH1 0x0 DUP6 PUSH20 0xFFFFFFFFFFFFFFFFFFFFFFFFFFFFFFFFFFFFFFFF AND PUSH20 0xFFFFFFFFFFFFFFFFFFFFFFFFFFFFFFFFFFFFFFFF AND DUP2 MSTORE PUSH1 0x20 ADD SWAP1 DUP2 MSTORE PUSH1 0x20 ADD PUSH1 0x0 KECCAK256 PUSH1 0x0 DUP3 DUP3 SLOAD PUSH2 0x678 SWAP2 SWAP1 PUSH2 0x11DE JUMP JUMPDEST SWAP3 POP POP DUP2 SWAP1 SSTORE POP DUP1 PUSH1 0x6 PUSH1 0x0 DUP6 PUSH20 0xFFFFFFFFFFFFFFFFFFFFFFFFFFFFFFFFFFFFFFFF AND PUSH20 0xFFFFFFFFFFFFFFFFFFFFFFFFFFFFFFFFFFFFFFFF AND DUP2 MSTORE PUSH1 0x20 ADD SWAP1 DUP2 MSTORE PUSH1 0x20 ADD PUSH1 0x0 KECCAK256 PUSH1 0x0 DUP5 PUSH20 0xFFFFFFFFFFFFFFFFFFFFFFFFFFFFFFFFFFFFFFFF AND PUSH20 0xFFFFFFFFFFFFFFFFFFFFFFFFFFFFFFFFFFFFFFFF AND DUP2 MSTORE PUSH1 0x20 ADD SWAP1 DUP2 MSTORE PUSH1 0x20 ADD PUSH1 0x0 KECCAK256 PUSH1 0x0 DUP3 DUP3 SLOAD ADD SWAP3 POP POP DUP2 SWAP1 SSTORE POP PUSH2 0x714 DUP4 DUP4 DUP4 PUSH2 0xA6C JUMP JUMPDEST DUP3 PUSH20 0xFFFFFFFFFFFFFFFFFFFFFFFFFFFFFFFFFFFFFFFF AND PUSH32 0x3BE5B7A71E84ED12875D241991C70855AC5817D847039E17A9D895C1CEB0F18A DUP4 DUP4 PUSH1 0x40 MLOAD PUSH2 0x75C SWAP3 SWAP2 SWAP1 PUSH2 0xE4E JUMP JUMPDEST PUSH1 0x40 MLOAD DUP1 SWAP2 SUB SWAP1 LOG2 POP POP POP JUMP JUMPDEST PUSH1 0x0 PUSH1 0x4 DUP3 DUP2 SLOAD DUP2 LT PUSH2 0x77F JUMPI PUSH2 0x77E PUSH2 0x12BC JUMP JUMPDEST JUMPDEST SWAP1 PUSH1 0x0 MSTORE PUSH1 0x20 PUSH1 0x0 KECCAK256 ADD PUSH1 0x0 SWAP1 SLOAD SWAP1 PUSH2 0x100 EXP SWAP1 DIV PUSH20 0xFFFFFFFFFFFFFFFFFFFFFFFFFFFFFFFFFFFFFFFF AND SWAP1 POP SWAP2 SWAP1 POP JUMP JUMPDEST PUSH1 0x0 PUSH1 0x3 PUSH1 0x0 DUP4 PUSH20 0xFFFFFFFFFFFFFFFFFFFFFFFFFFFFFFFFFFFFFFFF AND PUSH20 0xFFFFFFFFFFFFFFFFFFFFFFFFFFFFFFFFFFFFFFFF AND DUP2 MSTORE PUSH1 0x20 ADD SWAP1 DUP2 MSTORE PUSH1 0x20 ADD PUSH1 0x0 KECCAK256 SLOAD SWAP1 POP SWAP2 SWAP1 POP JUMP JUMPDEST PUSH1 0x0 DUP1 PUSH2 0x805 PUSH2 0x96E JUMP JUMPDEST SELFBALANCE PUSH2 0x810 SWAP2 SWAP1 PUSH2 0x11DE JUMP JUMPDEST SWAP1 POP PUSH2 0x825 DUP4 DUP3 PUSH2 0x820 DUP7 PUSH2 0x7B1 JUMP JUMPDEST PUSH2 0xAF2 JUMP JUMPDEST SWAP2 POP POP SWAP2 SWAP1 POP JUMP JUMPDEST PUSH1 0x0 DUP1 PUSH2 0x839 DUP5 PUSH2 0x925 JUMP JUMPDEST DUP5 PUSH20 0xFFFFFFFFFFFFFFFFFFFFFFFFFFFFFFFFFFFFFFFF AND PUSH4 0x70A08231 ADDRESS PUSH1 0x40 MLOAD DUP3 PUSH4 0xFFFFFFFF AND PUSH1 0xE0 SHL DUP2 MSTORE PUSH1 0x4 ADD PUSH2 0x872 SWAP2 SWAP1 PUSH2 0x1005 JUMP JUMPDEST PUSH1 0x20 PUSH1 0x40 MLOAD DUP1 DUP4 SUB DUP2 DUP7 GAS STATICCALL ISZERO DUP1 ISZERO PUSH2 0x88F JUMPI RETURNDATASIZE PUSH1 0x0 DUP1 RETURNDATACOPY RETURNDATASIZE PUSH1 0x0 REVERT JUMPDEST POP POP POP POP PUSH1 0x40 MLOAD RETURNDATASIZE PUSH1 0x1F NOT PUSH1 0x1F DUP3 ADD AND DUP3 ADD DUP1 PUSH1 0x40 MSTORE POP DUP2 ADD SWAP1 PUSH2 0x8B3 SWAP2 SWAP1 PUSH2 0x1300 JUMP JUMPDEST PUSH2 0x8BD SWAP2 SWAP1 PUSH2 0x11DE JUMP JUMPDEST SWAP1 POP PUSH2 0x8D3 DUP4 DUP3 PUSH2 0x8CE DUP8 DUP8 PUSH2 0x4CF JUMP JUMPDEST PUSH2 0xAF2 JUMP JUMPDEST SWAP2 POP POP SWAP3 SWAP2 POP POP JUMP JUMPDEST PUSH1 0x0 PUSH1 0x2 PUSH1 0x0 DUP4 PUSH20 0xFFFFFFFFFFFFFFFFFFFFFFFFFFFFFFFFFFFFFFFF AND PUSH20 0xFFFFFFFFFFFFFFFFFFFFFFFFFFFFFFFFFFFFFFFF AND DUP2 MSTORE PUSH1 0x20 ADD SWAP1 DUP2 MSTORE PUSH1 0x20 ADD PUSH1 0x0 KECCAK256 SLOAD SWAP1 POP SWAP2 SWAP1 POP JUMP JUMPDEST PUSH1 0x0 PUSH1 0x5 PUSH1 0x0 DUP4 PUSH20 0xFFFFFFFFFFFFFFFFFFFFFFFFFFFFFFFFFFFFFFFF AND PUSH20 0xFFFFFFFFFFFFFFFFFFFFFFFFFFFFFFFFFFFFFFFF AND DUP2 MSTORE PUSH1 0x20 ADD SWAP1 DUP2 MSTORE PUSH1 0x20 ADD PUSH1 0x0 KECCAK256 SLOAD SWAP1 POP SWAP2 SWAP1 POP JUMP JUMPDEST PUSH1 0x0 PUSH1 0x1 SLOAD SWAP1 POP SWAP1 JUMP JUMPDEST DUP1 SELFBALANCE LT ISZERO PUSH2 0x9BB JUMPI PUSH1 0x40 MLOAD PUSH32 0x8C379A000000000000000000000000000000000000000000000000000000000 DUP2 MSTORE PUSH1 0x4 ADD PUSH2 0x9B2 SWAP1 PUSH2 0x1379 JUMP JUMPDEST PUSH1 0x40 MLOAD DUP1 SWAP2 SUB SWAP1 REVERT JUMPDEST PUSH1 0x0 DUP3 PUSH20 0xFFFFFFFFFFFFFFFFFFFFFFFFFFFFFFFFFFFFFFFF AND DUP3 PUSH1 0x40 MLOAD PUSH2 0x9E1 SWAP1 PUSH2 0x13CA JUMP JUMPDEST PUSH1 0x0 PUSH1 0x40 MLOAD DUP1 DUP4 SUB DUP2 DUP6 DUP8 GAS CALL SWAP3 POP POP POP RETURNDATASIZE DUP1 PUSH1 0x0 DUP2 EQ PUSH2 0xA1E JUMPI PUSH1 0x40 MLOAD SWAP2 POP PUSH1 0x1F NOT PUSH1 0x3F RETURNDATASIZE ADD AND DUP3 ADD PUSH1 0x40 MSTORE RETURNDATASIZE DUP3 MSTORE RETURNDATASIZE PUSH1 0x0 PUSH1 0x20 DUP5 ADD RETURNDATACOPY PUSH2 0xA23 JUMP JUMPDEST PUSH1 0x60 SWAP2 POP JUMPDEST POP POP SWAP1 POP DUP1 PUSH2 0xA67 JUMPI PUSH1 0x40 MLOAD PUSH32 0x8C379A000000000000000000000000000000000000000000000000000000000 DUP2 MSTORE PUSH1 0x4 ADD PUSH2 0xA5E SWAP1 PUSH2 0x1451 JUMP JUMPDEST PUSH1 0x40 MLOAD DUP1 SWAP2 SUB SWAP1 REVERT JUMPDEST POP POP POP JUMP JUMPDEST PUSH2 0xAED DUP4 PUSH4 0xA9059CBB PUSH1 0xE0 SHL DUP5 DUP5 PUSH1 0x40 MLOAD PUSH1 0x24 ADD PUSH2 0xA8B SWAP3 SWAP2 SWAP1 PUSH2 0xE4E JUMP JUMPDEST PUSH1 0x40 MLOAD PUSH1 0x20 DUP2 DUP4 SUB SUB DUP2 MSTORE SWAP1 PUSH1 0x40 MSTORE SWAP1 PUSH28 0xFFFFFFFFFFFFFFFFFFFFFFFFFFFFFFFFFFFFFFFFFFFFFFFFFFFFFFFF NOT AND PUSH1 0x20 DUP3 ADD DUP1 MLOAD PUSH28 0xFFFFFFFFFFFFFFFFFFFFFFFFFFFFFFFFFFFFFFFFFFFFFFFFFFFFFFFF DUP4 DUP2 DUP4 AND OR DUP4 MSTORE POP POP POP POP PUSH2 0xB60 JUMP JUMPDEST POP POP POP JUMP JUMPDEST PUSH1 0x0 DUP2 PUSH1 0x0 SLOAD PUSH1 0x2 PUSH1 0x0 DUP8 PUSH20 0xFFFFFFFFFFFFFFFFFFFFFFFFFFFFFFFFFFFFFFFF AND PUSH20 0xFFFFFFFFFFFFFFFFFFFFFFFFFFFFFFFFFFFFFFFF AND DUP2 MSTORE PUSH1 0x20 ADD SWAP1 DUP2 MSTORE PUSH1 0x20 ADD PUSH1 0x0 KECCAK256 SLOAD DUP6 PUSH2 0xB43 SWAP2 SWAP1 PUSH2 0x1471 JUMP JUMPDEST PUSH2 0xB4D SWAP2 SWAP1 PUSH2 0x14FA JUMP JUMPDEST PUSH2 0xB57 SWAP2 SWAP1 PUSH2 0x152B JUMP JUMPDEST SWAP1 POP SWAP4 SWAP3 POP POP POP JUMP JUMPDEST PUSH1 0x0 PUSH2 0xBC2 DUP3 PUSH1 0x40 MLOAD DUP1 PUSH1 0x40 ADD PUSH1 0x40 MSTORE DUP1 PUSH1 0x20 DUP2 MSTORE PUSH1 0x20 ADD PUSH32 0x5361666545524332303A206C6F772D6C6576656C2063616C6C206661696C6564 DUP2 MSTORE POP DUP6 PUSH20 0xFFFFFFFFFFFFFFFFFFFFFFFFFFFFFFFFFFFFFFFF AND PUSH2 0xC27 SWAP1 SWAP3 SWAP2 SWAP1 PUSH4 0xFFFFFFFF AND JUMP JUMPDEST SWAP1 POP PUSH1 0x0 DUP2 MLOAD GT ISZERO PUSH2 0xC22 JUMPI DUP1 DUP1 PUSH1 0x20 ADD SWAP1 MLOAD DUP2 ADD SWAP1 PUSH2 0xBE2 SWAP2 SWAP1 PUSH2 0x1597 JUMP JUMPDEST PUSH2 0xC21 JUMPI PUSH1 0x40 MLOAD PUSH32 0x8C379A000000000000000000000000000000000000000000000000000000000 DUP2 MSTORE PUSH1 0x4 ADD PUSH2 0xC18 SWAP1 PUSH2 0x1636 JUMP JUMPDEST PUSH1 0x40 MLOAD DUP1 SWAP2 SUB SWAP1 REVERT JUMPDEST JUMPDEST POP POP POP JUMP JUMPDEST PUSH1 0x60 PUSH2 0xC36 DUP5 DUP5 PUSH1 0x0 DUP6 PUSH2 0xC3F JUMP JUMPDEST SWAP1 POP SWAP4 SWAP3 POP POP POP JUMP JUMPDEST PUSH1 0x60 DUP3 SELFBALANCE LT ISZERO PUSH2 0xC84 JUMPI PUSH1 0x40 MLOAD PUSH32 0x8C379A000000000000000000000000000000000000000000000000000000000 DUP2 MSTORE PUSH1 0x4 ADD PUSH2 0xC7B SWAP1 PUSH2 0x16C8 JUMP JUMPDEST PUSH1 0x40 MLOAD DUP1 SWAP2 SUB SWAP1 REVERT JUMPDEST PUSH1 0x0 DUP1 DUP7 PUSH20 0xFFFFFFFFFFFFFFFFFFFFFFFFFFFFFFFFFFFFFFFF AND DUP6 DUP8 PUSH1 0x40 MLOAD PUSH2 0xCAD SWAP2 SWAP1 PUSH2 0x1757 JUMP JUMPDEST PUSH1 0x0 PUSH1 0x40 MLOAD DUP1 DUP4 SUB DUP2 DUP6 DUP8 GAS CALL SWAP3 POP POP POP RETURNDATASIZE DUP1 PUSH1 0x0 DUP2 EQ PUSH2 0xCEA JUMPI PUSH1 0x40 MLOAD SWAP2 POP PUSH1 0x1F NOT PUSH1 0x3F RETURNDATASIZE ADD AND DUP3 ADD PUSH1 0x40 MSTORE RETURNDATASIZE DUP3 MSTORE RETURNDATASIZE PUSH1 0x0 PUSH1 0x20 DUP5 ADD RETURNDATACOPY PUSH2 0xCEF JUMP JUMPDEST PUSH1 0x60 SWAP2 POP JUMPDEST POP SWAP2 POP SWAP2 POP PUSH2 0xD00 DUP8 DUP4 DUP4 DUP8 PUSH2 0xD0C JUMP JUMPDEST SWAP3 POP POP POP SWAP5 SWAP4 POP POP POP POP JUMP JUMPDEST PUSH1 0x60 DUP4 ISZERO PUSH2 0xD6E JUMPI PUSH1 0x0 DUP4 MLOAD SUB PUSH2 0xD66 JUMPI PUSH2 0xD26 DUP6 PUSH2 0xD81 JUMP JUMPDEST PUSH2 0xD65 JUMPI PUSH1 0x40 MLOAD PUSH32 0x8C379A000000000000000000000000000000000000000000000000000000000 DUP2 MSTORE PUSH1 0x4 ADD PUSH2 0xD5C SWAP1 PUSH2 0x17BA JUMP JUMPDEST PUSH1 0x40 MLOAD DUP1 SWAP2 SUB SWAP1 REVERT JUMPDEST JUMPDEST DUP3 SWAP1 POP PUSH2 0xD79 JUMP JUMPDEST PUSH2 0xD78 DUP4 DUP4 PUSH2 0xDA4 JUMP JUMPDEST JUMPDEST SWAP5 SWAP4 POP POP POP POP JUMP JUMPDEST PUSH1 0x0 DUP1 DUP3 PUSH20 0xFFFFFFFFFFFFFFFFFFFFFFFFFFFFFFFFFFFFFFFF AND EXTCODESIZE GT SWAP1 POP SWAP2 SWAP1 POP JUMP JUMPDEST PUSH1 0x0 DUP3 MLOAD GT ISZERO PUSH2 0xDB7 JUMPI DUP2 MLOAD DUP1 DUP4 PUSH1 0x20 ADD REVERT JUMPDEST DUP1 PUSH1 0x40 MLOAD PUSH32 0x8C379A000000000000000000000000000000000000000000000000000000000 DUP2 MSTORE PUSH1 0x4 ADD PUSH2 0xDEB SWAP2 SWAP1 PUSH2 0x182F JUMP JUMPDEST PUSH1 0x40 MLOAD DUP1 SWAP2 SUB SWAP1 REVERT JUMPDEST PUSH1 0x0 PUSH20 0xFFFFFFFFFFFFFFFFFFFFFFFFFFFFFFFFFFFFFFFF DUP3 AND SWAP1 POP SWAP2 SWAP1 POP JUMP JUMPDEST PUSH1 0x0 PUSH2 0xE1F DUP3 PUSH2 0xDF4 JUMP JUMPDEST SWAP1 POP SWAP2 SWAP1 POP JUMP JUMPDEST PUSH2 0xE2F DUP2 PUSH2 0xE14 JUMP JUMPDEST DUP3 MSTORE POP POP JUMP JUMPDEST PUSH1 0x0 DUP2 SWAP1 POP SWAP2 SWAP1 POP JUMP JUMPDEST PUSH2 0xE48 DUP2 PUSH2 0xE35 JUMP JUMPDEST DUP3 MSTORE POP POP JUMP JUMPDEST PUSH1 0x0 PUSH1 0x40 DUP3 ADD SWAP1 POP PUSH2 0xE63 PUSH1 0x0 DUP4 ADD DUP6 PUSH2 0xE26 JUMP JUMPDEST PUSH2 0xE70 PUSH1 0x20 DUP4 ADD DUP5 PUSH2 0xE3F JUMP JUMPDEST SWAP4 SWAP3 POP POP POP JUMP JUMPDEST PUSH1 0x0 DUP1 REVERT JUMPDEST PUSH1 0x0 PUSH2 0xE87 DUP3 PUSH2 0xDF4 JUMP JUMPDEST SWAP1 POP SWAP2 SWAP1 POP JUMP JUMPDEST PUSH2 0xE97 DUP2 PUSH2 0xE7C JUMP JUMPDEST DUP2 EQ PUSH2 0xEA2 JUMPI PUSH1 0x0 DUP1 REVERT JUMPDEST POP JUMP JUMPDEST PUSH1 0x0 DUP2 CALLDATALOAD SWAP1 POP PUSH2 0xEB4 DUP2 PUSH2 0xE8E JUMP JUMPDEST SWAP3 SWAP2 POP POP JUMP JUMPDEST PUSH1 0x0 PUSH1 0x20 DUP3 DUP5 SUB SLT ISZERO PUSH2 0xED0 JUMPI PUSH2 0xECF PUSH2 0xE77 JUMP JUMPDEST JUMPDEST PUSH1 0x0 PUSH2 0xEDE DUP5 DUP3 DUP6 ADD PUSH2 0xEA5 JUMP JUMPDEST SWAP2 POP POP SWAP3 SWAP2 POP POP JUMP JUMPDEST PUSH1 0x0 PUSH1 0x20 DUP3 ADD SWAP1 POP PUSH2 0xEFC PUSH1 0x0 DUP4 ADD DUP5 PUSH2 0xE3F JUMP JUMPDEST SWAP3 SWAP2 POP POP JUMP JUMPDEST PUSH1 0x0 PUSH2 0xF0D DUP3 PUSH2 0xE14 JUMP JUMPDEST SWAP1 POP SWAP2 SWAP1 POP JUMP JUMPDEST PUSH2 0xF1D DUP2 PUSH2 0xF02 JUMP JUMPDEST DUP2 EQ PUSH2 0xF28 JUMPI PUSH1 0x0 DUP1 REVERT JUMPDEST POP JUMP JUMPDEST PUSH1 0x0 DUP2 CALLDATALOAD SWAP1 POP PUSH2 0xF3A DUP2 PUSH2 0xF14 JUMP JUMPDEST SWAP3 SWAP2 POP POP JUMP JUMPDEST PUSH2 0xF49 DUP2 PUSH2 0xE14 JUMP JUMPDEST DUP2 EQ PUSH2 0xF54 JUMPI PUSH1 0x0 DUP1 REVERT JUMPDEST POP JUMP JUMPDEST PUSH1 0x0 DUP2 CALLDATALOAD SWAP1 POP PUSH2 0xF66 DUP2 PUSH2 0xF40 JUMP JUMPDEST SWAP3 SWAP2 POP POP JUMP JUMPDEST PUSH1 0x0 DUP1 PUSH1 0x40 DUP4 DUP6 SUB SLT ISZERO PUSH2 0xF83 JUMPI PUSH2 0xF82 PUSH2 0xE77 JUMP JUMPDEST JUMPDEST PUSH1 0x0 PUSH2 0xF91 DUP6 DUP3 DUP7 ADD PUSH2 0xF2B JUMP JUMPDEST SWAP3 POP POP PUSH1 0x20 PUSH2 0xFA2 DUP6 DUP3 DUP7 ADD PUSH2 0xF57 JUMP JUMPDEST SWAP2 POP POP SWAP3 POP SWAP3 SWAP1 POP JUMP JUMPDEST PUSH2 0xFB5 DUP2 PUSH2 0xE35 JUMP JUMPDEST DUP2 EQ PUSH2 0xFC0 JUMPI PUSH1 0x0 DUP1 REVERT JUMPDEST POP JUMP JUMPDEST PUSH1 0x0 DUP2 CALLDATALOAD SWAP1 POP PUSH2 0xFD2 DUP2 PUSH2 0xFAC JUMP JUMPDEST SWAP3 SWAP2 POP POP JUMP JUMPDEST PUSH1 0x0 PUSH1 0x20 DUP3 DUP5 SUB SLT ISZERO PUSH2 0xFEE JUMPI PUSH2 0xFED PUSH2 0xE77 JUMP JUMPDEST JUMPDEST PUSH1 0x0 PUSH2 0xFFC DUP5 DUP3 DUP6 ADD PUSH2 0xFC3 JUMP JUMPDEST SWAP2 POP POP SWAP3 SWAP2 POP POP JUMP JUMPDEST PUSH1 0x0 PUSH1 0x20 DUP3 ADD SWAP1 POP PUSH2 0x101A PUSH1 0x0 DUP4 ADD DUP5 PUSH2 0xE26 JUMP JUMPDEST SWAP3 SWAP2 POP POP JUMP JUMPDEST PUSH1 0x0 PUSH1 0x20 DUP3 DUP5 SUB SLT ISZERO PUSH2 0x1036 JUMPI PUSH2 0x1035 PUSH2 0xE77 JUMP JUMPDEST JUMPDEST PUSH1 0x0 PUSH2 0x1044 DUP5 DUP3 DUP6 ADD PUSH2 0xF57 JUMP JUMPDEST SWAP2 POP POP SWAP3 SWAP2 POP POP JUMP JUMPDEST PUSH1 0x0 PUSH1 0x20 DUP3 DUP5 SUB SLT ISZERO PUSH2 0x1063 JUMPI PUSH2 0x1062 PUSH2 0xE77 JUMP JUMPDEST JUMPDEST PUSH1 0x0 PUSH2 0x1071 DUP5 DUP3 DUP6 ADD PUSH2 0xF2B JUMP JUMPDEST SWAP2 POP POP SWAP3 SWAP2 POP POP JUMP JUMPDEST PUSH1 0x0 DUP3 DUP3 MSTORE PUSH1 0x20 DUP3 ADD SWAP1 POP SWAP3 SWAP2 POP POP JUMP JUMPDEST PUSH32 0x5061796D656E7453706C69747465723A206163636F756E7420686173206E6F20 PUSH1 0x0 DUP3 ADD MSTORE PUSH32 0x7368617265730000000000000000000000000000000000000000000000000000 PUSH1 0x20 DUP3 ADD MSTORE POP JUMP JUMPDEST PUSH1 0x0 PUSH2 0x10E7 PUSH1 0x26 DUP4 PUSH2 0x107A JUMP JUMPDEST SWAP2 POP PUSH2 0x10F2 DUP3 PUSH2 0x108B JUMP JUMPDEST PUSH1 0x40 DUP3 ADD SWAP1 POP SWAP2 SWAP1 POP JUMP JUMPDEST PUSH1 0x0 PUSH1 0x20 DUP3 ADD SWAP1 POP DUP2 DUP2 SUB PUSH1 0x0 DUP4 ADD MSTORE PUSH2 0x1116 DUP2 PUSH2 0x10DA JUMP JUMPDEST SWAP1 POP SWAP2 SWAP1 POP JUMP JUMPDEST PUSH32 0x5061796D656E7453706C69747465723A206163636F756E74206973206E6F7420 PUSH1 0x0 DUP3 ADD MSTORE PUSH32 0x647565207061796D656E74000000000000000000000000000000000000000000 PUSH1 0x20 DUP3 ADD MSTORE POP JUMP JUMPDEST PUSH1 0x0 PUSH2 0x1179 PUSH1 0x2B DUP4 PUSH2 0x107A JUMP JUMPDEST SWAP2 POP PUSH2 0x1184 DUP3 PUSH2 0x111D JUMP JUMPDEST PUSH1 0x40 DUP3 ADD SWAP1 POP SWAP2 SWAP1 POP JUMP JUMPDEST PUSH1 0x0 PUSH1 0x20 DUP3 ADD SWAP1 POP DUP2 DUP2 SUB PUSH1 0x0 DUP4 ADD MSTORE PUSH2 0x11A8 DUP2 PUSH2 0x116C JUMP JUMPDEST SWAP1 POP SWAP2 SWAP1 POP JUMP JUMPDEST PUSH32 0x4E487B7100000000000000000000000000000000000000000000000000000000 PUSH1 0x0 MSTORE PUSH1 0x11 PUSH1 0x4 MSTORE PUSH1 0x24 PUSH1 0x0 REVERT JUMPDEST PUSH1 0x0 PUSH2 0x11E9 DUP3 PUSH2 0xE35 JUMP JUMPDEST SWAP2 POP PUSH2 0x11F4 DUP4 PUSH2 0xE35 JUMP JUMPDEST SWAP3 POP DUP3 PUSH32 0xFFFFFFFFFFFFFFFFFFFFFFFFFFFFFFFFFFFFFFFFFFFFFFFFFFFFFFFFFFFFFFFF SUB DUP3 GT ISZERO PUSH2 0x1229 JUMPI PUSH2 0x1228 PUSH2 0x11AF JUMP JUMPDEST JUMPDEST DUP3 DUP3 ADD SWAP1 POP SWAP3 SWAP2 POP POP JUMP JUMPDEST PUSH1 0x0 DUP2 SWAP1 POP SWAP2 SWAP1 POP JUMP JUMPDEST PUSH1 0x0 PUSH2 0x1259 PUSH2 0x1254 PUSH2 0x124F DUP5 PUSH2 0xDF4 JUMP JUMPDEST PUSH2 0x1234 JUMP JUMPDEST PUSH2 0xDF4 JUMP JUMPDEST SWAP1 POP SWAP2 SWAP1 POP JUMP JUMPDEST PUSH1 0x0 PUSH2 0x126B DUP3 PUSH2 0x123E JUMP JUMPDEST SWAP1 POP SWAP2 SWAP1 POP JUMP JUMPDEST PUSH1 0x0 PUSH2 0x127D DUP3 PUSH2 0x1260 JUMP JUMPDEST SWAP1 POP SWAP2 SWAP1 POP JUMP JUMPDEST PUSH2 0x128D DUP2 PUSH2 0x1272 JUMP JUMPDEST DUP3 MSTORE POP POP JUMP JUMPDEST PUSH1 0x0 PUSH1 0x40 DUP3 ADD SWAP1 POP PUSH2 0x12A8 PUSH1 0x0 DUP4 ADD DUP6 PUSH2 0x1284 JUMP JUMPDEST PUSH2 0x12B5 PUSH1 0x20 DUP4 ADD DUP5 PUSH2 0xE3F JUMP JUMPDEST SWAP4 SWAP3 POP POP POP JUMP JUMPDEST PUSH32 0x4E487B7100000000000000000000000000000000000000000000000000000000 PUSH1 0x0 MSTORE PUSH1 0x32 PUSH1 0x4 MSTORE PUSH1 0x24 PUSH1 0x0 REVERT JUMPDEST PUSH1 0x0 DUP2 MLOAD SWAP1 POP PUSH2 0x12FA DUP2 PUSH2 0xFAC JUMP JUMPDEST SWAP3 SWAP2 POP POP JUMP JUMPDEST PUSH1 0x0 PUSH1 0x20 DUP3 DUP5 SUB SLT ISZERO PUSH2 0x1316 JUMPI PUSH2 0x1315 PUSH2 0xE77 JUMP JUMPDEST JUMPDEST PUSH1 0x0 PUSH2 0x1324 DUP5 DUP3 DUP6 ADD PUSH2 0x12EB JUMP JUMPDEST SWAP2 POP POP SWAP3 SWAP2 POP POP JUMP JUMPDEST PUSH32 0x416464726573733A20696E73756666696369656E742062616C616E6365000000 PUSH1 0x0 DUP3 ADD MSTORE POP JUMP JUMPDEST PUSH1 0x0 PUSH2 0x1363 PUSH1 0x1D DUP4 PUSH2 0x107A JUMP JUMPDEST SWAP2 POP PUSH2 0x136E DUP3 PUSH2 0x132D JUMP JUMPDEST PUSH1 0x20 DUP3 ADD SWAP1 POP SWAP2 SWAP1 POP JUMP JUMPDEST PUSH1 0x0 PUSH1 0x20 DUP3 ADD SWAP1 POP DUP2 DUP2 SUB PUSH1 0x0 DUP4 ADD MSTORE PUSH2 0x1392 DUP2 PUSH2 0x1356 JUMP JUMPDEST SWAP1 POP SWAP2 SWAP1 POP JUMP JUMPDEST PUSH1 0x0 DUP2 SWAP1 POP SWAP3 SWAP2 POP POP JUMP JUMPDEST POP JUMP JUMPDEST PUSH1 0x0 PUSH2 0x13B4 PUSH1 0x0 DUP4 PUSH2 0x1399 JUMP JUMPDEST SWAP2 POP PUSH2 0x13BF DUP3 PUSH2 0x13A4 JUMP JUMPDEST PUSH1 0x0 DUP3 ADD SWAP1 POP SWAP2 SWAP1 POP JUMP JUMPDEST PUSH1 0x0 PUSH2 0x13D5 DUP3 PUSH2 0x13A7 JUMP JUMPDEST SWAP2 POP DUP2 SWAP1 POP SWAP2 SWAP1 POP JUMP JUMPDEST PUSH32 0x416464726573733A20756E61626C6520746F2073656E642076616C75652C2072 PUSH1 0x0 DUP3 ADD MSTORE PUSH32 0x6563697069656E74206D61792068617665207265766572746564000000000000 PUSH1 0x20 DUP3 ADD MSTORE POP JUMP JUMPDEST PUSH1 0x0 PUSH2 0x143B PUSH1 0x3A DUP4 PUSH2 0x107A JUMP JUMPDEST SWAP2 POP PUSH2 0x1446 DUP3 PUSH2 0x13DF JUMP JUMPDEST PUSH1 0x40 DUP3 ADD SWAP1 POP SWAP2 SWAP1 POP JUMP JUMPDEST PUSH1 0x0 PUSH1 0x20 DUP3 ADD SWAP1 POP DUP2 DUP2 SUB PUSH1 0x0 DUP4 ADD MSTORE PUSH2 0x146A DUP2 PUSH2 0x142E JUMP JUMPDEST SWAP1 POP SWAP2 SWAP1 POP JUMP JUMPDEST PUSH1 0x0 PUSH2 0x147C DUP3 PUSH2 0xE35 JUMP JUMPDEST SWAP2 POP PUSH2 0x1487 DUP4 PUSH2 0xE35 JUMP JUMPDEST SWAP3 POP DUP2 PUSH32 0xFFFFFFFFFFFFFFFFFFFFFFFFFFFFFFFFFFFFFFFFFFFFFFFFFFFFFFFFFFFFFFFF DIV DUP4 GT DUP3 ISZERO ISZERO AND ISZERO PUSH2 0x14C0 JUMPI PUSH2 0x14BF PUSH2 0x11AF JUMP JUMPDEST JUMPDEST DUP3 DUP3 MUL SWAP1 POP SWAP3 SWAP2 POP POP JUMP JUMPDEST PUSH32 0x4E487B7100000000000000000000000000000000000000000000000000000000 PUSH1 0x0 MSTORE PUSH1 0x12 PUSH1 0x4 MSTORE PUSH1 0x24 PUSH1 0x0 REVERT JUMPDEST PUSH1 0x0 PUSH2 0x1505 DUP3 PUSH2 0xE35 JUMP JUMPDEST SWAP2 POP PUSH2 0x1510 DUP4 PUSH2 0xE35 JUMP JUMPDEST SWAP3 POP DUP3 PUSH2 0x1520 JUMPI PUSH2 0x151F PUSH2 0x14CB JUMP JUMPDEST JUMPDEST DUP3 DUP3 DIV SWAP1 POP SWAP3 SWAP2 POP POP JUMP JUMPDEST PUSH1 0x0 PUSH2 0x1536 DUP3 PUSH2 0xE35 JUMP JUMPDEST SWAP2 POP PUSH2 0x1541 DUP4 PUSH2 0xE35 JUMP JUMPDEST SWAP3 POP DUP3 DUP3 LT ISZERO PUSH2 0x1554 JUMPI PUSH2 0x1553 PUSH2 0x11AF JUMP JUMPDEST JUMPDEST DUP3 DUP3 SUB SWAP1 POP SWAP3 SWAP2 POP POP JUMP JUMPDEST PUSH1 0x0 DUP2 ISZERO ISZERO SWAP1 POP SWAP2 SWAP1 POP JUMP JUMPDEST PUSH2 0x1574 DUP2 PUSH2 0x155F JUMP JUMPDEST DUP2 EQ PUSH2 0x157F JUMPI PUSH1 0x0 DUP1 REVERT JUMPDEST POP JUMP JUMPDEST PUSH1 0x0 DUP2 MLOAD SWAP1 POP PUSH2 0x1591 DUP2 PUSH2 0x156B JUMP JUMPDEST SWAP3 SWAP2 POP POP JUMP JUMPDEST PUSH1 0x0 PUSH1 0x20 DUP3 DUP5 SUB SLT ISZERO PUSH2 0x15AD JUMPI PUSH2 0x15AC PUSH2 0xE77 JUMP JUMPDEST JUMPDEST PUSH1 0x0 PUSH2 0x15BB DUP5 DUP3 DUP6 ADD PUSH2 0x1582 JUMP JUMPDEST SWAP2 POP POP SWAP3 SWAP2 POP POP JUMP JUMPDEST PUSH32 0x5361666545524332303A204552433230206F7065726174696F6E20646964206E PUSH1 0x0 DUP3 ADD MSTORE PUSH32 0x6F74207375636365656400000000000000000000000000000000000000000000 PUSH1 0x20 DUP3 ADD MSTORE POP JUMP JUMPDEST PUSH1 0x0 PUSH2 0x1620 PUSH1 0x2A DUP4 PUSH2 0x107A JUMP JUMPDEST SWAP2 POP PUSH2 0x162B DUP3 PUSH2 0x15C4 JUMP JUMPDEST PUSH1 0x40 DUP3 ADD SWAP1 POP SWAP2 SWAP1 POP JUMP JUMPDEST PUSH1 0x0 PUSH1 0x20 DUP3 ADD SWAP1 POP DUP2 DUP2 SUB PUSH1 0x0 DUP4 ADD MSTORE PUSH2 0x164F DUP2 PUSH2 0x1613 JUMP JUMPDEST SWAP1 POP SWAP2 SWAP1 POP JUMP JUMPDEST PUSH32 0x416464726573733A20696E73756666696369656E742062616C616E636520666F PUSH1 0x0 DUP3 ADD MSTORE PUSH32 0x722063616C6C0000000000000000000000000000000000000000000000000000 PUSH1 0x20 DUP3 ADD MSTORE POP JUMP JUMPDEST PUSH1 0x0 PUSH2 0x16B2 PUSH1 0x26 DUP4 PUSH2 0x107A JUMP JUMPDEST SWAP2 POP PUSH2 0x16BD DUP3 PUSH2 0x1656 JUMP JUMPDEST PUSH1 0x40 DUP3 ADD SWAP1 POP SWAP2 SWAP1 POP JUMP JUMPDEST PUSH1 0x0 PUSH1 0x20 DUP3 ADD SWAP1 POP DUP2 DUP2 SUB PUSH1 0x0 DUP4 ADD MSTORE PUSH2 0x16E1 DUP2 PUSH2 0x16A5 JUMP JUMPDEST SWAP1 POP SWAP2 SWAP1 POP JUMP JUMPDEST PUSH1 0x0 DUP2 MLOAD SWAP1 POP SWAP2 SWAP1 POP JUMP JUMPDEST PUSH1 0x0 JUMPDEST DUP4 DUP2 LT ISZERO PUSH2 0x1711 JUMPI DUP1 DUP3 ADD MLOAD DUP2 DUP5 ADD MSTORE PUSH1 0x20 DUP2 ADD SWAP1 POP PUSH2 0x16F6 JUMP JUMPDEST DUP4 DUP2 GT ISZERO PUSH2 0x1720 JUMPI PUSH1 0x0 DUP5 DUP5 ADD MSTORE JUMPDEST POP POP POP POP JUMP JUMPDEST PUSH1 0x0 PUSH2 0x1731 DUP3 PUSH2 0x16E8 JUMP JUMPDEST PUSH2 0x173B DUP2 DUP6 PUSH2 0x1399 JUMP JUMPDEST SWAP4 POP PUSH2 0x174B DUP2 DUP6 PUSH1 0x20 DUP7 ADD PUSH2 0x16F3 JUMP JUMPDEST DUP1 DUP5 ADD SWAP2 POP POP SWAP3 SWAP2 POP POP JUMP JUMPDEST PUSH1 0x0 PUSH2 0x1763 DUP3 DUP5 PUSH2 0x1726 JUMP JUMPDEST SWAP2 POP DUP2 SWAP1 POP SWAP3 SWAP2 POP POP JUMP JUMPDEST PUSH32 0x416464726573733A2063616C6C20746F206E6F6E2D636F6E7472616374000000 PUSH1 0x0 DUP3 ADD MSTORE POP JUMP JUMPDEST PUSH1 0x0 PUSH2 0x17A4 PUSH1 0x1D DUP4 PUSH2 0x107A JUMP JUMPDEST SWAP2 POP PUSH2 0x17AF DUP3 PUSH2 0x176E JUMP JUMPDEST PUSH1 0x20 DUP3 ADD SWAP1 POP SWAP2 SWAP1 POP JUMP JUMPDEST PUSH1 0x0 PUSH1 0x20 DUP3 ADD SWAP1 POP DUP2 DUP2 SUB PUSH1 0x0 DUP4 ADD MSTORE PUSH2 0x17D3 DUP2 PUSH2 0x1797 JUMP JUMPDEST SWAP1 POP SWAP2 SWAP1 POP JUMP JUMPDEST PUSH1 0x0 DUP2 MLOAD SWAP1 POP SWAP2 SWAP1 POP JUMP JUMPDEST PUSH1 0x0 PUSH1 0x1F NOT PUSH1 0x1F DUP4 ADD AND SWAP1 POP SWAP2 SWAP1 POP JUMP JUMPDEST PUSH1 0x0 PUSH2 0x1801 DUP3 PUSH2 0x17DA JUMP JUMPDEST PUSH2 0x180B DUP2 DUP6 PUSH2 0x107A JUMP JUMPDEST SWAP4 POP PUSH2 0x181B DUP2 DUP6 PUSH1 0x20 DUP7 ADD PUSH2 0x16F3 JUMP JUMPDEST PUSH2 0x1824 DUP2 PUSH2 0x17E5 JUMP JUMPDEST DUP5 ADD SWAP2 POP POP SWAP3 SWAP2 POP POP JUMP JUMPDEST PUSH1 0x0 PUSH1 0x20 DUP3 ADD SWAP1 POP DUP2 DUP2 SUB PUSH1 0x0 DUP4 ADD MSTORE PUSH2 0x1849 DUP2 DUP5 PUSH2 0x17F6 JUMP JUMPDEST SWAP1 POP SWAP3 SWAP2 POP POP JUMP INVALID LOG2 PUSH5 0x6970667358 0x22 SLT KECCAK256 SWAP4 0x2F PUSH5 0x36DCD87C4F 0xBD RETURNDATASIZE 0x26 PUSH16 0xD052A93E5CAC2E5B66883653F220105F 0xAF PUSH19 0x174464736F6C634300080F0033000000000000 "
				},
				"gasEstimates": {
					"creation": {
						"codeDepositCost": "1255800",
						"executionCost": "infinite",
						"totalCost": "infinite"
					},
					"external": {
						"payee(uint256)": "5056",
						"releasable(address)": "infinite",
						"releasable(address,address)": "infinite",
						"release(address)": "infinite",
						"release(address,address)": "infinite",
						"released(address)": "2841",
						"released(address,address)": "infinite",
						"shares(address)": "2907",
						"totalReleased()": "2547",
						"totalReleased(address)": "2972",
						"totalShares()": "2460"
					},
					"internal": {
						"_addPayee(address,uint256)": "infinite",
						"_pendingPayment(address,uint256,uint256)": "infinite"
					}
				},
				"methodIdentifiers": {
					"payee(uint256)": "8b83209b",
					"releasable(address)": "a3f8eace",
					"releasable(address,address)": "c45ac050",
					"release(address)": "19165587",
					"release(address,address)": "48b75044",
					"released(address)": "9852595c",
					"released(address,address)": "406072a9",
					"shares(address)": "ce7c2ac2",
					"totalReleased()": "e33b7de3",
					"totalReleased(address)": "d79779b2",
					"totalShares()": "3a98ef39"
				}
			},
			"storageLayout": {
				"storage": [
					{
						"astId": 56,
						"contract": "https://github.com/OpenZeppelin/openzeppelin-contracts/blob/master/contracts/finance/PaymentSplitter.sol:PaymentSplitter",
						"label": "_totalShares",
						"offset": 0,
						"slot": "0",
						"type": "t_uint256"
					},
					{
						"astId": 58,
						"contract": "https://github.com/OpenZeppelin/openzeppelin-contracts/blob/master/contracts/finance/PaymentSplitter.sol:PaymentSplitter",
						"label": "_totalReleased",
						"offset": 0,
						"slot": "1",
						"type": "t_uint256"
					},
					{
						"astId": 62,
						"contract": "https://github.com/OpenZeppelin/openzeppelin-contracts/blob/master/contracts/finance/PaymentSplitter.sol:PaymentSplitter",
						"label": "_shares",
						"offset": 0,
						"slot": "2",
						"type": "t_mapping(t_address,t_uint256)"
					},
					{
						"astId": 66,
						"contract": "https://github.com/OpenZeppelin/openzeppelin-contracts/blob/master/contracts/finance/PaymentSplitter.sol:PaymentSplitter",
						"label": "_released",
						"offset": 0,
						"slot": "3",
						"type": "t_mapping(t_address,t_uint256)"
					},
					{
						"astId": 69,
						"contract": "https://github.com/OpenZeppelin/openzeppelin-contracts/blob/master/contracts/finance/PaymentSplitter.sol:PaymentSplitter",
						"label": "_payees",
						"offset": 0,
						"slot": "4",
						"type": "t_array(t_address)dyn_storage"
					},
					{
						"astId": 74,
						"contract": "https://github.com/OpenZeppelin/openzeppelin-contracts/blob/master/contracts/finance/PaymentSplitter.sol:PaymentSplitter",
						"label": "_erc20TotalReleased",
						"offset": 0,
						"slot": "5",
						"type": "t_mapping(t_contract(IERC20)570,t_uint256)"
					},
					{
						"astId": 81,
						"contract": "https://github.com/OpenZeppelin/openzeppelin-contracts/blob/master/contracts/finance/PaymentSplitter.sol:PaymentSplitter",
						"label": "_erc20Released",
						"offset": 0,
						"slot": "6",
						"type": "t_mapping(t_contract(IERC20)570,t_mapping(t_address,t_uint256))"
					}
				],
				"types": {
					"t_address": {
						"encoding": "inplace",
						"label": "address",
						"numberOfBytes": "20"
					},
					"t_array(t_address)dyn_storage": {
						"base": "t_address",
						"encoding": "dynamic_array",
						"label": "address[]",
						"numberOfBytes": "32"
					},
					"t_contract(IERC20)570": {
						"encoding": "inplace",
						"label": "contract IERC20",
						"numberOfBytes": "20"
					},
					"t_mapping(t_address,t_uint256)": {
						"encoding": "mapping",
						"key": "t_address",
						"label": "mapping(address => uint256)",
						"numberOfBytes": "32",
						"value": "t_uint256"
					},
					"t_mapping(t_contract(IERC20)570,t_mapping(t_address,t_uint256))": {
						"encoding": "mapping",
						"key": "t_contract(IERC20)570",
						"label": "mapping(contract IERC20 => mapping(address => uint256))",
						"numberOfBytes": "32",
						"value": "t_mapping(t_address,t_uint256)"
					},
					"t_mapping(t_contract(IERC20)570,t_uint256)": {
						"encoding": "mapping",
						"key": "t_contract(IERC20)570",
						"label": "mapping(contract IERC20 => uint256)",
						"numberOfBytes": "32",
						"value": "t_uint256"
					},
					"t_uint256": {
						"encoding": "inplace",
						"label": "uint256",
						"numberOfBytes": "32"
					}
				}
			},
			"userdoc": {
				"kind": "user",
				"methods": {},
				"version": 1
			}
		}
	}
}